{
  "contractName": "Election",
  "abi": [
    {
      "constant": true,
      "inputs": [],
      "name": "DetailssCount",
      "outputs": [
        {
          "name": "",
          "type": "uint256"
        }
      ],
      "payable": false,
      "stateMutability": "view",
      "type": "function"
    },
    {
      "constant": true,
      "inputs": [
        {
          "name": "",
          "type": "address"
        }
      ],
      "name": "players",
      "outputs": [
        {
          "name": "role",
          "type": "uint256"
        },
        {
          "name": "inventory",
          "type": "uint256"
        },
        {
          "name": "orderReceived",
          "type": "uint256"
        },
        {
          "name": "orderSent",
          "type": "uint256"
        }
      ],
      "payable": false,
      "stateMutability": "view",
      "type": "function"
    },
    {
      "inputs": [],
      "payable": false,
      "stateMutability": "nonpayable",
      "type": "constructor"
    },
    {
      "anonymous": false,
      "inputs": [
        {
          "indexed": true,
          "name": "_orderAmount",
          "type": "uint256"
        }
      ],
      "name": "orderPlaced",
      "type": "event"
    },
    {
      "constant": false,
      "inputs": [
        {
          "name": "_amt",
          "type": "uint256"
        },
        {
          "name": "receiver",
          "type": "address"
        }
      ],
      "name": "order1",
      "outputs": [],
      "payable": false,
      "stateMutability": "nonpayable",
      "type": "function"
    }
  ],
  "bytecode": "0x608060405234801561001057600080fd5b5061001f61002460201b60201c565b6102ae565b604051806080016040528060018152602001600a815260200160058152602001600081525060008073280ff1d5c4d38a9a1befbdc7b4651eaf7db0408573ffffffffffffffffffffffffffffffffffffffff1673ffffffffffffffffffffffffffffffffffffffff1681526020019081526020016000206000820151816000015560208201518160010155604082015181600201556060820151816003015590505060405180608001604052806002815260200160148152602001600f81526020016000815250600080731076a3a20bcf248eb0e511614631ebb43398b71a73ffffffffffffffffffffffffffffffffffffffff1673ffffffffffffffffffffffffffffffffffffffff16815260200190815260200160002060008201518160000155602082015181600101556040820151816002015560608201518160030155905050604051806080016040528060038152602001601e81526020016019815260200160008152506000807301de5f518e0d7f3f5d0006cb8faaa5b806449c8e73ffffffffffffffffffffffffffffffffffffffff1673ffffffffffffffffffffffffffffffffffffffff1681526020019081526020016000206000820151816000015560208201518160010155604082015181600201556060820151816003015590505060405180608001604052806004815260200160288152602001602381526020016000815250600080734fbfee8915a8effcc79b790314ba753e763b09ce73ffffffffffffffffffffffffffffffffffffffff1673ffffffffffffffffffffffffffffffffffffffff16815260200190815260200160002060008201518160000155602082015181600101556040820151816002015560608201518160030155905050565b6101cb806102bd6000396000f3fe608060405234801561001057600080fd5b50600436106100415760003560e01c8063197bb6e414610046578063c5aa9a8914610064578063e2eb41ff146100b2575b600080fd5b61004e61011f565b6040518082815260200191505060405180910390f35b6100b06004803603604081101561007a57600080fd5b8101908080359060200190929190803573ffffffffffffffffffffffffffffffffffffffff169060200190929190505050610125565b005b6100f4600480360360208110156100c857600080fd5b81019080803573ffffffffffffffffffffffffffffffffffffffff16906020019092919050505061016f565b6040518085815260200184815260200183815260200182815260200194505050505060405180910390f35b60015481565b816000808373ffffffffffffffffffffffffffffffffffffffff1673ffffffffffffffffffffffffffffffffffffffff168152602001908152602001600020600201819055505050565b6000602052806000526040600020600091509050806000015490806001015490806002015490806003015490508456fea165627a7a72305820e292c8ee8838ca8a974178ff6f3652b1f9a96209823e95672edcf66a8f3fd1670029",
  "source": "\npragma solidity ^0.5.0;\n\ncontract Election {\n\n    struct Details {\n        uint role;\n        uint inventory;\n        uint orderReceived;\n        uint orderSent;\n    }\n\n    // Store accounts that have voted\n    mapping(address => Details) public players;\n\n    // Store Detailss Count\n    uint public DetailssCount;\n\n    // voted event\n    event orderPlaced (\n        uint indexed _orderAmount\n    );\n\n    constructor () public {\n        setRoles();\n    }\n\n\n    function setRoles() private {\n        players[0x280fF1D5c4d38a9A1BEFBdc7b4651EaF7dB04085] = Details(1, 10, 5, 0);\n        players[0x1076a3A20BcF248eb0E511614631ebB43398B71a] = Details(2, 20, 15, 0);\n        players[0x01DE5F518e0D7F3F5D0006Cb8FAaA5b806449C8e] = Details(3, 30, 25, 0);\n        players[0x4FbFEe8915A8EFFCC79B790314Ba753E763B09CE] = Details(4, 40, 35, 0);\n    }\n\n    function order1(uint _amt, address receiver) public {\n       players[receiver].orderReceived = _amt;\n //       emit orderPlaced(_orderAmount);\n    }\n\n    /*\n    function vote (uint _DetailsId) public {\n        // require that they haven't voted before\n        //require(!voters[msg.sender]);\n\n        // require a valid Details\n        //require(_DetailsId > 0 && _DetailsId <= DetailssCount);\n\n        // record that voter has voted\n        //voters[msg.sender] = true;\n\n        // update Details vote Count\n      //  Detailss[_DetailsId].voteCount ++;\n\n        // trigger voted event\n        //emit votedEvent(_DetailsId);\n    } */\n}\n",
  "sourcePath": "/home/kenil/Desktop/dapps/e2/contracts/Election.sol",
  "compiler": {
    "name": "solc",
    "version": "0.5.8+commit.23d335f2.Emscripten.clang"
  },
  "schemaVersion": "3.0.17",
  "updatedAt": "2019-11-07T12:20:26.338Z",
  "networkType": "ethereum",
  "devdoc": {
    "methods": {}
  },
  "userdoc": {
    "methods": {}
  }
}