{
  "contractName": "SupplyChain",
  "abi": [
    {
      "constant": true,
      "inputs": [
        {
          "name": "",
          "type": "uint256"
        }
      ],
      "name": "adds",
      "outputs": [
        {
          "name": "",
          "type": "address"
        }
      ],
      "payable": false,
      "stateMutability": "view",
      "type": "function"
    },
    {
      "constant": true,
      "inputs": [],
      "name": "orderLeadTime",
      "outputs": [
        {
          "name": "",
          "type": "uint256"
        }
      ],
      "payable": false,
      "stateMutability": "view",
      "type": "function"
    },
    {
      "constant": true,
      "inputs": [
        {
          "name": "",
          "type": "uint256"
        }
      ],
      "name": "orderState",
      "outputs": [
        {
          "name": "",
          "type": "uint256"
        }
      ],
      "payable": false,
      "stateMutability": "view",
      "type": "function"
    },
    {
      "constant": true,
      "inputs": [
        {
          "name": "",
          "type": "uint256"
        }
      ],
      "name": "inventory",
      "outputs": [
        {
          "name": "",
          "type": "int256"
        }
      ],
      "payable": false,
      "stateMutability": "view",
      "type": "function"
    },
    {
      "constant": true,
      "inputs": [
        {
          "name": "",
          "type": "address"
        },
        {
          "name": "",
          "type": "uint256"
        }
      ],
      "name": "weekDetails",
      "outputs": [
        {
          "name": "weekNo",
          "type": "uint256"
        },
        {
          "name": "inventoryReceived",
          "type": "int256"
        },
        {
          "name": "inventoryPrevious",
          "type": "int256"
        },
        {
          "name": "demand",
          "type": "int256"
        },
        {
          "name": "shippingQuantityDemand",
          "type": "int256"
        },
        {
          "name": "shippingQuantityBackOrder",
          "type": "int256"
        },
        {
          "name": "orderPlaced",
          "type": "int256"
        },
        {
          "name": "inventoryLeft",
          "type": "int256"
        },
        {
          "name": "backOrder",
          "type": "int256"
        }
      ],
      "payable": false,
      "stateMutability": "view",
      "type": "function"
    },
    {
      "constant": true,
      "inputs": [],
      "name": "deliveryLeadTime",
      "outputs": [
        {
          "name": "",
          "type": "uint256"
        }
      ],
      "payable": false,
      "stateMutability": "view",
      "type": "function"
    },
    {
      "constant": true,
      "inputs": [],
      "name": "weekNo",
      "outputs": [
        {
          "name": "",
          "type": "uint256"
        }
      ],
      "payable": false,
      "stateMutability": "view",
      "type": "function"
    },
    {
      "constant": true,
      "inputs": [
        {
          "name": "",
          "type": "address"
        }
      ],
      "name": "players",
      "outputs": [
        {
          "name": "role",
          "type": "uint256"
        },
        {
          "name": "upstream",
          "type": "address"
        },
        {
          "name": "downstream",
          "type": "address"
        }
      ],
      "payable": false,
      "stateMutability": "view",
      "type": "function"
    },
    {
      "inputs": [],
      "payable": false,
      "stateMutability": "nonpayable",
      "type": "constructor"
    },
    {
      "anonymous": false,
      "inputs": [],
      "name": "weekEnd",
      "type": "event"
    },
    {
      "constant": false,
      "inputs": [
        {
          "name": "role",
          "type": "uint256"
        },
        {
          "name": "add",
          "type": "address"
        },
        {
          "name": "upAdd",
          "type": "address"
        }
      ],
      "name": "updateDetails",
      "outputs": [],
      "payable": false,
      "stateMutability": "nonpayable",
      "type": "function"
    },
    {
      "constant": false,
      "inputs": [
        {
          "name": "_amt",
          "type": "int256"
        }
      ],
      "name": "order",
      "outputs": [],
      "payable": false,
      "stateMutability": "nonpayable",
      "type": "function"
    }
  ],
  "bytecode": "0x60806040523480156200001157600080fd5b50620000226200002860201b60201c565b62000d55565b604051806060016040528060018152602001735a528ef100931de8dd12c08d09877ac038af04eb73ffffffffffffffffffffffffffffffffffffffff16815260200173b92d238ea91ea398cdc2b885b8f4395dd5c4bf3473ffffffffffffffffffffffffffffffffffffffff16815250600b600073b92d238ea91ea398cdc2b885b8f4395dd5c4bf3473ffffffffffffffffffffffffffffffffffffffff1673ffffffffffffffffffffffffffffffffffffffff1681526020019081526020016000206000820151816000015560208201518160010160006101000a81548173ffffffffffffffffffffffffffffffffffffffff021916908373ffffffffffffffffffffffffffffffffffffffff16021790555060408201518160020160006101000a81548173ffffffffffffffffffffffffffffffffffffffff021916908373ffffffffffffffffffffffffffffffffffffffff16021790555090505060405180606001604052806002815260200173eb01d15d4c7b3c75bb801e8ffde842e3a5e4d94c73ffffffffffffffffffffffffffffffffffffffff16815260200173b92d238ea91ea398cdc2b885b8f4395dd5c4bf3473ffffffffffffffffffffffffffffffffffffffff16815250600b6000735a528ef100931de8dd12c08d09877ac038af04eb73ffffffffffffffffffffffffffffffffffffffff1673ffffffffffffffffffffffffffffffffffffffff1681526020019081526020016000206000820151816000015560208201518160010160006101000a81548173ffffffffffffffffffffffffffffffffffffffff021916908373ffffffffffffffffffffffffffffffffffffffff16021790555060408201518160020160006101000a81548173ffffffffffffffffffffffffffffffffffffffff021916908373ffffffffffffffffffffffffffffffffffffffff16021790555090505060405180606001604052806003815260200173777b061fb4c1eb1b5f745ebe45e0f462f1e298f873ffffffffffffffffffffffffffffffffffffffff168152602001735a528ef100931de8dd12c08d09877ac038af04eb73ffffffffffffffffffffffffffffffffffffffff16815250600b600073eb01d15d4c7b3c75bb801e8ffde842e3a5e4d94c73ffffffffffffffffffffffffffffffffffffffff1673ffffffffffffffffffffffffffffffffffffffff1681526020019081526020016000206000820151816000015560208201518160010160006101000a81548173ffffffffffffffffffffffffffffffffffffffff021916908373ffffffffffffffffffffffffffffffffffffffff16021790555060408201518160020160006101000a81548173ffffffffffffffffffffffffffffffffffffffff021916908373ffffffffffffffffffffffffffffffffffffffff16021790555090505060405180606001604052806004815260200173777b061fb4c1eb1b5f745ebe45e0f462f1e298f873ffffffffffffffffffffffffffffffffffffffff16815260200173eb01d15d4c7b3c75bb801e8ffde842e3a5e4d94c73ffffffffffffffffffffffffffffffffffffffff16815250600b600073777b061fb4c1eb1b5f745ebe45e0f462f1e298f873ffffffffffffffffffffffffffffffffffffffff1673ffffffffffffffffffffffffffffffffffffffff1681526020019081526020016000206000820151816000015560208201518160010160006101000a81548173ffffffffffffffffffffffffffffffffffffffff021916908373ffffffffffffffffffffffffffffffffffffffff16021790555060408201518160020160006101000a81548173ffffffffffffffffffffffffffffffffffffffff021916908373ffffffffffffffffffffffffffffffffffffffff160217905550905050600c600073b92d238ea91ea398cdc2b885b8f4395dd5c4bf3473ffffffffffffffffffffffffffffffffffffffff1673ffffffffffffffffffffffffffffffffffffffff168152602001908152602001600020604051806101200160405280600181526020016000815260200160328152602001601e8152602001601e8152602001600081526020016000815260200160148152602001600081525090806001815401808255809150509060018203906000526020600020906009020160009091929091909150600082015181600001556020820151816001015560408201518160020155606082015181600301556080820151816004015560a0820151816005015560c0820151816006015560e082015181600701556101008201518160080155505050600c6000735a528ef100931de8dd12c08d09877ac038af04eb73ffffffffffffffffffffffffffffffffffffffff1673ffffffffffffffffffffffffffffffffffffffff1681526020019081526020016000206040518061012001604052806001815260200160008152602001603281526020016000815260200160008152602001600081526020016000815260200160328152602001600081525090806001815401808255809150509060018203906000526020600020906009020160009091929091909150600082015181600001556020820151816001015560408201518160020155606082015181600301556080820151816004015560a0820151816005015560c0820151816006015560e082015181600701556101008201518160080155505050600c600073eb01d15d4c7b3c75bb801e8ffde842e3a5e4d94c73ffffffffffffffffffffffffffffffffffffffff1673ffffffffffffffffffffffffffffffffffffffff1681526020019081526020016000206040518061012001604052806001815260200160008152602001603281526020016000815260200160008152602001600081526020016000815260200160328152602001600081525090806001815401808255809150509060018203906000526020600020906009020160009091929091909150600082015181600001556020820151816001015560408201518160020155606082015181600301556080820151816004015560a0820151816005015560c0820151816006015560e082015181600701556101008201518160080155505050600c600073777b061fb4c1eb1b5f745ebe45e0f462f1e298f873ffffffffffffffffffffffffffffffffffffffff1673ffffffffffffffffffffffffffffffffffffffff1681526020019081526020016000206040518061012001604052806001815260200160008152602001603281526020016000815260200160008152602001600081526020016000815260200160328152602001600081525090806001815401808255809150509060018203906000526020600020906009020160009091929091909150600082015181600001556020820151816001015560408201518160020155606082015181600301556080820151816004015560a0820151816005015560c0820151816006015560e08201518160070155610100820151816008015550505073b92d238ea91ea398cdc2b885b8f4395dd5c4bf34600d60006001815260200190815260200160002060006101000a81548173ffffffffffffffffffffffffffffffffffffffff021916908373ffffffffffffffffffffffffffffffffffffffff160217905550735a528ef100931de8dd12c08d09877ac038af04eb600d60006002815260200190815260200160002060006101000a81548173ffffffffffffffffffffffffffffffffffffffff021916908373ffffffffffffffffffffffffffffffffffffffff16021790555073eb01d15d4c7b3c75bb801e8ffde842e3a5e4d94c600d60006003815260200190815260200160002060006101000a81548173ffffffffffffffffffffffffffffffffffffffff021916908373ffffffffffffffffffffffffffffffffffffffff16021790555073777b061fb4c1eb1b5f745ebe45e0f462f1e298f8600d60006004815260200190815260200160002060006101000a81548173ffffffffffffffffffffffffffffffffffffffff021916908373ffffffffffffffffffffffffffffffffffffffff16021790555060016000819055506001808190555060006002819055506040518060800160405280601460ff168152602001603260ff168152602001603260ff168152602001603260ff16815250600790600462000c2a92919062000c71565b506040518060800160405280600060ff168152602001600060ff168152602001600060ff168152602001600060ff16815250600390600462000c6e92919062000cbb565b50565b826004810192821562000ca8579160200282015b8281111562000ca7578251829060ff1690559160200191906001019062000c85565b5b50905062000cb7919062000d05565b5090565b826004810192821562000cf2579160200282015b8281111562000cf1578251829060ff1690559160200191906001019062000ccf565b5b50905062000d01919062000d2d565b5090565b62000d2a91905b8082111562000d2657600081600090555060010162000d0c565b5090565b90565b62000d5291905b8082111562000d4e57600081600090555060010162000d34565b5090565b90565b61157b8062000d656000396000f3fe608060405234801561001057600080fd5b506004361061009e5760003560e01c806386742a2c1161006657806386742a2c1461024d578063af0f545f146102bb578063c813c382146102d9578063de0ac15914610307578063e2eb41ff146103255761009e565b806336720309146100a35780633e459c59146101115780634077c33c1461012f5780634272ee1814610171578063567802da146101b3575b600080fd5b6100cf600480360360208110156100b957600080fd5b81019080803590602001909291905050506103e3565b604051808273ffffffffffffffffffffffffffffffffffffffff1673ffffffffffffffffffffffffffffffffffffffff16815260200191505060405180910390f35b610119610416565b6040518082815260200191505060405180910390f35b61015b6004803603602081101561014557600080fd5b810190808035906020019092919050505061041c565b6040518082815260200191505060405180910390f35b61019d6004803603602081101561018757600080fd5b8101908080359060200190929190505050610434565b6040518082815260200191505060405180910390f35b6101ff600480360360408110156101c957600080fd5b81019080803573ffffffffffffffffffffffffffffffffffffffff1690602001909291908035906020019092919050505061044c565b604051808a8152602001898152602001888152602001878152602001868152602001858152602001848152602001838152602001828152602001995050505050505050505060405180910390f35b6102b96004803603606081101561026357600080fd5b8101908080359060200190929190803573ffffffffffffffffffffffffffffffffffffffff169060200190929190803573ffffffffffffffffffffffffffffffffffffffff1690602001909291905050506104b4565b005b6102c3610eeb565b6040518082815260200191505060405180910390f35b610305600480360360208110156102ef57600080fd5b8101908080359060200190929190505050610ef1565b005b61030f6110cf565b6040518082815260200191505060405180910390f35b6103676004803603602081101561033b57600080fd5b81019080803573ffffffffffffffffffffffffffffffffffffffff1690602001909291905050506110d5565b604051808481526020018373ffffffffffffffffffffffffffffffffffffffff1673ffffffffffffffffffffffffffffffffffffffff1681526020018273ffffffffffffffffffffffffffffffffffffffff1673ffffffffffffffffffffffffffffffffffffffff168152602001935050505060405180910390f35b600d6020528060005260406000206000915054906101000a900473ffffffffffffffffffffffffffffffffffffffff1681565b60025481565b6003816004811061042957fe5b016000915090505481565b6007816004811061044157fe5b016000915090505481565b600c602052816000526040600020818154811061046557fe5b9060005260206000209060090201600091509150508060000154908060010154908060020154908060030154908060040154908060050154908060060154908060070154908060080154905089565b600483146106ce57600060015460005403106105f157600c60008273ffffffffffffffffffffffffffffffffffffffff1673ffffffffffffffffffffffffffffffffffffffff168152602001908152602001600020600154600054038154811061051a57fe5b906000526020600020906009020160050154600c60008373ffffffffffffffffffffffffffffffffffffffff1673ffffffffffffffffffffffffffffffffffffffff168152602001908152602001600020600154600054038154811061057c57fe5b90600052602060002090600902016004015401600c60008473ffffffffffffffffffffffffffffffffffffffff1673ffffffffffffffffffffffffffffffffffffffff168152602001908152602001600020600054815481106105db57fe5b9060005260206000209060090201600101819055505b600060025460016000540303106106c957600c60008373ffffffffffffffffffffffffffffffffffffffff1673ffffffffffffffffffffffffffffffffffffffff168152602001908152602001600020600254600160005403038154811061065557fe5b906000526020600020906009020160060154600c60008373ffffffffffffffffffffffffffffffffffffffff1673ffffffffffffffffffffffffffffffffffffffff168152602001908152602001600020600054815481106106b357fe5b9060005260206000209060090201600301819055505b6107a1565b600060015460005403106107a057600c60008373ffffffffffffffffffffffffffffffffffffffff1673ffffffffffffffffffffffffffffffffffffffff168152602001908152602001600020600154600054038154811061072c57fe5b906000526020600020906009020160060154600c60008473ffffffffffffffffffffffffffffffffffffffff1673ffffffffffffffffffffffffffffffffffffffff1681526020019081526020016000206000548154811061078a57fe5b9060005260206000209060090201600101819055505b5b600c60008373ffffffffffffffffffffffffffffffffffffffff1673ffffffffffffffffffffffffffffffffffffffff168152602001908152602001600020600160005403815481106107f057fe5b906000526020600020906009020160070154600c60008473ffffffffffffffffffffffffffffffffffffffff1673ffffffffffffffffffffffffffffffffffffffff1681526020019081526020016000206000548154811061084e57fe5b9060005260206000209060090201600201819055506000600c60008473ffffffffffffffffffffffffffffffffffffffff1673ffffffffffffffffffffffffffffffffffffffff168152602001908152602001600020600054815481106108b157fe5b906000526020600020906009020160020154600c60008573ffffffffffffffffffffffffffffffffffffffff1673ffffffffffffffffffffffffffffffffffffffff1681526020019081526020016000206000548154811061090f57fe5b906000526020600020906009020160010154019050600c60008473ffffffffffffffffffffffffffffffffffffffff1673ffffffffffffffffffffffffffffffffffffffff1681526020019081526020016000206000548154811061097057fe5b906000526020600020906009020160030154811215610a4b5780600c60008573ffffffffffffffffffffffffffffffffffffffff1673ffffffffffffffffffffffffffffffffffffffff168152602001908152602001600020600054815481106109d657fe5b90600052602060002090600902016003015403600c60008573ffffffffffffffffffffffffffffffffffffffff1673ffffffffffffffffffffffffffffffffffffffff16815260200190815260200160002060005481548110610a3557fe5b9060005260206000209060090201600801819055505b60008112610b1a57600c60008473ffffffffffffffffffffffffffffffffffffffff1673ffffffffffffffffffffffffffffffffffffffff16815260200190815260200160002060016000540381548110610aa257fe5b906000526020600020906009020160080154600c60008573ffffffffffffffffffffffffffffffffffffffff1673ffffffffffffffffffffffffffffffffffffffff16815260200190815260200160002060005481548110610b0057fe5b906000526020600020906009020160050181905550610bda565b600c60008473ffffffffffffffffffffffffffffffffffffffff1673ffffffffffffffffffffffffffffffffffffffff16815260200190815260200160002060005481548110610b6657fe5b906000526020600020906009020160010154600c60008573ffffffffffffffffffffffffffffffffffffffff1673ffffffffffffffffffffffffffffffffffffffff16815260200190815260200160002060005481548110610bc457fe5b9060005260206000209060090201600501819055505b80600c60008573ffffffffffffffffffffffffffffffffffffffff1673ffffffffffffffffffffffffffffffffffffffff16815260200190815260200160002060005481548110610c2757fe5b9060005260206000209060090201600301541215610d0357600c60008473ffffffffffffffffffffffffffffffffffffffff1673ffffffffffffffffffffffffffffffffffffffff16815260200190815260200160002060005481548110610c8b57fe5b906000526020600020906009020160030154600c60008573ffffffffffffffffffffffffffffffffffffffff1673ffffffffffffffffffffffffffffffffffffffff16815260200190815260200160002060005481548110610ce957fe5b906000526020600020906009020160040181905550610d6f565b60008112610d6e5780600c60008573ffffffffffffffffffffffffffffffffffffffff1673ffffffffffffffffffffffffffffffffffffffff16815260200190815260200160002060005481548110610d5857fe5b9060005260206000209060090201600401819055505b5b600c60008473ffffffffffffffffffffffffffffffffffffffff1673ffffffffffffffffffffffffffffffffffffffff16815260200190815260200160002060005481548110610dbb57fe5b9060005260206000209060090201600301548103600c60008573ffffffffffffffffffffffffffffffffffffffff1673ffffffffffffffffffffffffffffffffffffffff16815260200190815260200160002060005481548110610e1b57fe5b906000526020600020906009020160070181905550600c60008473ffffffffffffffffffffffffffffffffffffffff1673ffffffffffffffffffffffffffffffffffffffff16815260200190815260200160002060005481548110610e7c57fe5b90600052602060002090600902016007015460076001600b60008773ffffffffffffffffffffffffffffffffffffffff1673ffffffffffffffffffffffffffffffffffffffff168152602001908152602001600020600001540360048110610ee057fe5b018190555050505050565b60015481565b600c60003373ffffffffffffffffffffffffffffffffffffffff1673ffffffffffffffffffffffffffffffffffffffff168152602001908152602001600020604051806101200160405280600160005401815260200160008152602001600081526020016000815260200160008152602001600081526020016000815260200160008152602001600081525090806001815401808255809150509060018203906000526020600020906009020160009091929091909150600082015181600001556020820151816001015560408201518160020155606082015181600301556080820151816004015560a0820151816005015560c0820151816006015560e08201518160070155610100820151816008015550505080600c60003373ffffffffffffffffffffffffffffffffffffffff1673ffffffffffffffffffffffffffffffffffffffff1681526020019081526020016000206001600054038154811061105657fe5b906000526020600020906009020160060181905550600160036001600b60003373ffffffffffffffffffffffffffffffffffffffff1673ffffffffffffffffffffffffffffffffffffffff1681526020019081526020016000206000015403600481106110bf57fe5b01819055506110cc61113f565b50565b60005481565b600b6020528060005260406000206000915090508060000154908060010160009054906101000a900473ffffffffffffffffffffffffffffffffffffffff16908060020160009054906101000a900473ffffffffffffffffffffffffffffffffffffffff16905083565b6001600b60003373ffffffffffffffffffffffffffffffffffffffff1673ffffffffffffffffffffffffffffffffffffffff16815260200190815260200160002060000154141561122b57600f444260405160200180838152602001828152602001925050506040516020818303038152906040528051906020012060001c816111c557fe5b07602801600c60003373ffffffffffffffffffffffffffffffffffffffff1673ffffffffffffffffffffffffffffffffffffffff1681526020019081526020016000206000548154811061121557fe5b9060005260206000209060090201600301819055505b6001600360006004811061123b57fe5b015414801561125957506001600360016004811061125557fe5b0154145b801561127457506001600360026004811061127057fe5b0154145b801561128e575060016003806004811061128a57fe5b0154145b156114e3576040518060800160405280600060ff168152602001600060ff168152602001600060ff168152602001600060ff1681525060039060046112d49291906114e5565b506113496001600d60006001815260200190815260200160002060009054906101000a900473ffffffffffffffffffffffffffffffffffffffff16600d60006002815260200190815260200160002060009054906101000a900473ffffffffffffffffffffffffffffffffffffffff166104b4565b6113bd6002600d60006002815260200190815260200160002060009054906101000a900473ffffffffffffffffffffffffffffffffffffffff16600d60006003815260200190815260200160002060009054906101000a900473ffffffffffffffffffffffffffffffffffffffff166104b4565b6114316003600d60006003815260200190815260200160002060009054906101000a900473ffffffffffffffffffffffffffffffffffffffff16600d60006004815260200190815260200160002060009054906101000a900473ffffffffffffffffffffffffffffffffffffffff166104b4565b6114a56004600d60006004815260200190815260200160002060009054906101000a900473ffffffffffffffffffffffffffffffffffffffff16600d60006004815260200190815260200160002060009054906101000a900473ffffffffffffffffffffffffffffffffffffffff166104b4565b60008081548092919060010191905055507f68e88fafe1fbb7460dc442ab8fb3c91cfd6aaa447128ffb4bc091eb739260f5360405160405180910390a15b565b8260048101928215611519579160200282015b82811115611518578251829060ff169055916020019190600101906114f8565b5b509050611526919061152a565b5090565b61154c91905b80821115611548576000816000905550600101611530565b5090565b9056fea165627a7a7230582000f8a916b887dccc82f75402c47fc9c38aba8fd2783156fd94ea5afc304a8c000029",
  "source": "\npragma solidity ^0.5.0;\n\ncontract SupplyChain {\n\n    struct Details {\n        uint weekNo;\n        int inventoryReceived;\n        int inventoryPrevious;\n        int demand;\n        int shippingQuantityDemand;\n        int shippingQuantityBackOrder;\n        int orderPlaced;\n        int inventoryLeft;         \n        int backOrder;\n        }\n\n    struct Player {\n        uint role;\n        address upstream;\n        address downstream;\n    }\n\n    uint public weekNo;\n    uint public deliveryLeadTime;\n    uint public orderLeadTime;\n    uint[4] public orderState;\n    int[4] public inventory;\n\n    mapping(address => Player) public players;\n    mapping(address => Details[]) public weekDetails;\n\n    mapping(uint => address) public adds;\n    \n\n    event weekEnd (\n    );\n\n\n\n    constructor () public {\n        setRoles();\n    }\n\n\n    function setRoles() private {\n        players[0xB92D238ea91Ea398CdC2b885B8F4395Dd5C4Bf34] = Player(1, 0x5a528ef100931de8dd12C08d09877ac038AF04eb, 0xB92D238ea91Ea398CdC2b885B8F4395Dd5C4Bf34);\n        players[0x5a528ef100931de8dd12C08d09877ac038AF04eb] = Player(2, 0xeb01d15D4C7B3c75bB801E8fFDE842E3a5e4D94C, 0xB92D238ea91Ea398CdC2b885B8F4395Dd5C4Bf34);\n        players[0xeb01d15D4C7B3c75bB801E8fFDE842E3a5e4D94C] = Player(3,0x777B061fB4C1eB1b5F745eBe45e0f462F1e298F8, 0x5a528ef100931de8dd12C08d09877ac038AF04eb);\n        players[0x777B061fB4C1eB1b5F745eBe45e0f462F1e298F8] = Player(4, 0x777B061fB4C1eB1b5F745eBe45e0f462F1e298F8, 0xeb01d15D4C7B3c75bB801E8fFDE842E3a5e4D94C);\n\n        weekDetails[0xB92D238ea91Ea398CdC2b885B8F4395Dd5C4Bf34].push(Details(1, 0, 50, 30, 30, 0, 0, 20, 0));\n        weekDetails[0x5a528ef100931de8dd12C08d09877ac038AF04eb].push(Details(1, 0, 50, 0, 0, 0, 0, 50, 0));\n        weekDetails[0xeb01d15D4C7B3c75bB801E8fFDE842E3a5e4D94C].push(Details(1, 0, 50, 0, 0, 0, 0, 50, 0));\n        weekDetails[0x777B061fB4C1eB1b5F745eBe45e0f462F1e298F8].push(Details(1, 0, 50, 0, 0, 0, 0, 50, 0));\n\n\n        adds[1] = 0xB92D238ea91Ea398CdC2b885B8F4395Dd5C4Bf34;\n        adds[2] = 0x5a528ef100931de8dd12C08d09877ac038AF04eb;\n        adds[3] = 0xeb01d15D4C7B3c75bB801E8fFDE842E3a5e4D94C;\n        adds[4] = 0x777B061fB4C1eB1b5F745eBe45e0f462F1e298F8;\n\n\n        weekNo = 1;\n        deliveryLeadTime = 1;\n        orderLeadTime = 0;\n        inventory = [20, 50, 50, 50];\n        orderState = [0,0,0,0];\n    }\n\n\n    function checkWeekEnd() private {\n\n        if(players[msg.sender].role == 1) {\n            weekDetails[msg.sender][weekNo].demand = 40 + (int(keccak256(abi.encode(block.difficulty, block.timestamp)))%15);\n        }\n\n        \n\n        if(orderState[0]==1 && orderState[1]==1 && orderState[2]==1 && orderState[3]==1 ) {\n            orderState = [0, 0, 0, 0];\n\n            updateDetails(1, adds[1], adds[2]);\n            updateDetails(2, adds[2], adds[3]);\n            updateDetails(3, adds[3], adds[4]);\n            updateDetails(4, adds[4], adds[4]);\n\n            weekNo++;\n            emit weekEnd();\n        }\n    }\n\n    function updateDetails (uint role, address add, address upAdd) public{\n\n        if(role != 4) {\n            if(weekNo-deliveryLeadTime >= 0) \n                weekDetails[add][weekNo].inventoryReceived = weekDetails[upAdd][weekNo-deliveryLeadTime].shippingQuantityDemand + weekDetails[upAdd][weekNo-deliveryLeadTime].shippingQuantityBackOrder;\n\n            if(weekNo-1-orderLeadTime >= 0)\n                weekDetails[upAdd][weekNo].demand = weekDetails[add][weekNo-1-orderLeadTime].orderPlaced;\n\n        }\n        else {\n            if(weekNo-deliveryLeadTime >= 0)\n                weekDetails[add][weekNo].inventoryReceived = weekDetails[add][weekNo-deliveryLeadTime].orderPlaced;\n        }\n\n        weekDetails[add][weekNo].inventoryPrevious = weekDetails[add][weekNo-1].inventoryLeft;\n\n        int totalInventory = weekDetails[add][weekNo].inventoryReceived + weekDetails[add][weekNo].inventoryPrevious;\n\n        if(totalInventory < weekDetails[add][weekNo].demand)\n            weekDetails[add][weekNo].backOrder = weekDetails[add][weekNo].demand - totalInventory;\n\n        if(totalInventory  >= 0)\n            weekDetails[add][weekNo].shippingQuantityBackOrder = weekDetails[add][weekNo-1].backOrder;\n        else\n            weekDetails[add][weekNo].shippingQuantityBackOrder = weekDetails[add][weekNo].inventoryReceived;\n\n        if(weekDetails[add][weekNo].demand < totalInventory) {\n            weekDetails[add][weekNo].shippingQuantityDemand = weekDetails[add][weekNo].demand;       \n        }\n        else { \n            if(totalInventory >= 0)\n                weekDetails[add][weekNo].shippingQuantityDemand = totalInventory;\n        }\n\n\n        weekDetails[add][weekNo].inventoryLeft = totalInventory - weekDetails[add][weekNo].demand;\n\n        inventory[players[add].role-1] = weekDetails[add][weekNo].inventoryLeft;\n\n    }\n\n\n    function order(int _amt) public {\n\n        weekDetails[msg.sender].push(Details(weekNo+1,0,0,0,0,0,0,0,0));\n        weekDetails[msg.sender][weekNo-1].orderPlaced = _amt;\n\n        orderState[players[msg.sender].role - 1] = 1;\n\n        checkWeekEnd(); \n    }\n\n}\n",
  "sourcePath": "/home/kenil/Desktop/SupplyChainDapp/SupplyChain/contracts/SupplyChain.sol",
  "compiler": {
    "name": "solc",
    "version": "0.5.8+commit.23d335f2.Emscripten.clang"
  },
  "schemaVersion": "3.0.17",
  "updatedAt": "2020-02-04T04:21:16.302Z",
  "networkType": "ethereum",
  "devdoc": {
    "methods": {}
  },
  "userdoc": {
    "methods": {}
  }
}