{
    "contractName": "SupplyChain",
    "abi": [
        {
            "constant": true,
            "inputs": [],
            "name": "endWeek",
            "outputs": [
                {
                    "name": "",
                    "type": "uint256"
                }
            ],
            "payable": false,
            "stateMutability": "view",
            "type": "function",
            "signature": "0x12c4b657"
        },
        {
            "constant": true,
            "inputs": [
                {
                    "name": "",
                    "type": "uint256"
                }
            ],
            "name": "backOrderCost",
            "outputs": [
                {
                    "name": "",
                    "type": "uint256"
                }
            ],
            "payable": false,
            "stateMutability": "view",
            "type": "function",
            "signature": "0x27e4ed6c"
        },
        {
            "constant": true,
            "inputs": [],
            "name": "maxWeeks",
            "outputs": [
                {
                    "name": "",
                    "type": "uint256"
                }
            ],
            "payable": false,
            "stateMutability": "view",
            "type": "function",
            "signature": "0x2b4bce31"
        },
        {
            "constant": true,
            "inputs": [
                {
                    "name": "",
                    "type": "uint256"
                }
            ],
            "name": "adds",
            "outputs": [
                {
                    "name": "",
                    "type": "address"
                }
            ],
            "payable": false,
            "stateMutability": "view",
            "type": "function",
            "signature": "0x36720309"
        },
        {
            "constant": true,
            "inputs": [],
            "name": "orderLeadTime",
            "outputs": [
                {
                    "name": "",
                    "type": "uint256"
                }
            ],
            "payable": false,
            "stateMutability": "view",
            "type": "function",
            "signature": "0x3e459c59"
        },
        {
            "constant": true,
            "inputs": [
                {
                    "name": "",
                    "type": "uint256"
                }
            ],
            "name": "orderState",
            "outputs": [
                {
                    "name": "",
                    "type": "uint256"
                }
            ],
            "payable": false,
            "stateMutability": "view",
            "type": "function",
            "signature": "0x4077c33c"
        },
        {
            "constant": true,
            "inputs": [
                {
                    "name": "",
                    "type": "uint256"
                }
            ],
            "name": "inventory",
            "outputs": [
                {
                    "name": "",
                    "type": "int256"
                }
            ],
            "payable": false,
            "stateMutability": "view",
            "type": "function",
            "signature": "0x4272ee18"
        },
        {
            "constant": true,
            "inputs": [
                {
                    "name": "",
                    "type": "address"
                },
                {
                    "name": "",
                    "type": "uint256"
                }
            ],
            "name": "weekDetails",
            "outputs": [
                {
                    "name": "weekNo",
                    "type": "uint256"
                },
                {
                    "name": "inventoryReceivedBackOrder",
                    "type": "int256"
                },
                {
                    "name": "inventoryReceivedDemand",
                    "type": "int256"
                },
                {
                    "name": "inventoryPrevious",
                    "type": "int256"
                },
                {
                    "name": "demand",
                    "type": "int256"
                },
                {
                    "name": "shippingQuantityBackOrder",
                    "type": "int256"
                },
                {
                    "name": "shippingQuantityDemand",
                    "type": "int256"
                },
                {
                    "name": "inventoryLeft",
                    "type": "int256"
                },
                {
                    "name": "expectedQuantity",
                    "type": "int256"
                },
                {
                    "name": "expectedQuantityBackOrder",
                    "type": "int256"
                },
                {
                    "name": "orderPlaced",
                    "type": "int256"
                },
                {
                    "name": "backOrder",
                    "type": "int256"
                },
                {
                    "name": "blockNumber",
                    "type": "uint256"
                }
            ],
            "payable": false,
            "stateMutability": "view",
            "type": "function",
            "signature": "0x567802da"
        },
        {
            "constant": true,
            "inputs": [],
            "name": "deliveryLeadTime",
            "outputs": [
                {
                    "name": "",
                    "type": "uint256"
                }
            ],
            "payable": false,
            "stateMutability": "view",
            "type": "function",
            "signature": "0xaf0f545f"
        },
        {
            "constant": true,
            "inputs": [
                {
                    "name": "",
                    "type": "uint256"
                }
            ],
            "name": "holdingCost",
            "outputs": [
                {
                    "name": "",
                    "type": "uint256"
                }
            ],
            "payable": false,
            "stateMutability": "view",
            "type": "function",
            "signature": "0xd4de484d"
        },
        {
            "constant": true,
            "inputs": [],
            "name": "weekNo",
            "outputs": [
                {
                    "name": "",
                    "type": "uint256"
                }
            ],
            "payable": false,
            "stateMutability": "view",
            "type": "function",
            "signature": "0xde0ac159"
        },
        {
            "constant": true,
            "inputs": [
                {
                    "name": "",
                    "type": "address"
                }
            ],
            "name": "players",
            "outputs": [
                {
                    "name": "role",
                    "type": "uint256"
                },
                {
                    "name": "upstream",
                    "type": "address"
                },
                {
                    "name": "downstream",
                    "type": "address"
                }
            ],
            "payable": false,
            "stateMutability": "view",
            "type": "function",
            "signature": "0xe2eb41ff"
        },
        {
            "constant": true,
            "inputs": [],
            "name": "startWeek",
            "outputs": [
                {
                    "name": "",
                    "type": "uint256"
                }
            ],
            "payable": false,
            "stateMutability": "view",
            "type": "function",
            "signature": "0xeddf2d21"
        },
        {
            "inputs": [
                {
                    "name": "add1",
                    "type": "address"
                },
                {
                    "name": "add2",
                    "type": "address"
                },
                {
                    "name": "add3",
                    "type": "address"
                },
                {
                    "name": "add4",
                    "type": "address"
                },
                {
                    "name": "totalWeeks",
                    "type": "uint256"
                },
                {
                    "name": "start",
                    "type": "uint256"
                },
                {
                    "name": "end",
                    "type": "uint256"
                },
                {
                    "name": "dLeadTime",
                    "type": "uint256"
                },
                {
                    "name": "oLeadTime",
                    "type": "uint256"
                },
                {
                    "name": "initialInv",
                    "type": "int256"
                },
                {
                    "name": "hCost",
                    "type": "uint256[4]"
                },
                {
                    "name": "boCost",
                    "type": "uint256[4]"
                },
                {
                    "name": "distribution",
                    "type": "int256[]"
                }
            ],
            "payable": false,
            "stateMutability": "nonpayable",
            "type": "constructor",
            "signature": "constructor"
        },
        {
            "anonymous": false,
            "inputs": [],
            "name": "weekEnd",
            "type": "event",
            "signature": "0x68e88fafe1fbb7460dc442ab8fb3c91cfd6aaa447128ffb4bc091eb739260f53"
        },
        {
            "constant": false,
            "inputs": [
                {
                    "name": "_amt",
                    "type": "int256"
                }
            ],
            "name": "order",
            "outputs": [],
            "payable": false,
            "stateMutability": "nonpayable",
            "type": "function",
            "signature": "0xc813c382"
        }
    ],
    "bytecode": "0x60806040523480156200001157600080fd5b5060405162002b4138038062002b4183398101806040526102608110156200003857600080fd5b81019080805190602001909291908051906020019092919080519060200190929190805190602001909291908051906020019092919080519060200190929190805190602001909291908051906020019092919080519060200190929190805190602001909291909190826080019190826080018051640100000000811115620000c157600080fd5b82810190506020810184811115620000d857600080fd5b8151856020820283011164010000000082111715620000f657600080fd5b50509291905050506040518060600160405280600181526020018d73ffffffffffffffffffffffffffffffffffffffff1681526020018e73ffffffffffffffffffffffffffffffffffffffff16815250601760008f73ffffffffffffffffffffffffffffffffffffffff1673ffffffffffffffffffffffffffffffffffffffff1681526020019081526020016000206000820151816000015560208201518160010160006101000a81548173ffffffffffffffffffffffffffffffffffffffff021916908373ffffffffffffffffffffffffffffffffffffffff16021790555060408201518160020160006101000a81548173ffffffffffffffffffffffffffffffffffffffff021916908373ffffffffffffffffffffffffffffffffffffffff1602179055509050506040518060600160405280600281526020018c73ffffffffffffffffffffffffffffffffffffffff1681526020018e73ffffffffffffffffffffffffffffffffffffffff16815250601760008e73ffffffffffffffffffffffffffffffffffffffff1673ffffffffffffffffffffffffffffffffffffffff1681526020019081526020016000206000820151816000015560208201518160010160006101000a81548173ffffffffffffffffffffffffffffffffffffffff021916908373ffffffffffffffffffffffffffffffffffffffff16021790555060408201518160020160006101000a81548173ffffffffffffffffffffffffffffffffffffffff021916908373ffffffffffffffffffffffffffffffffffffffff1602179055509050506040518060600160405280600381526020018b73ffffffffffffffffffffffffffffffffffffffff1681526020018d73ffffffffffffffffffffffffffffffffffffffff16815250601760008d73ffffffffffffffffffffffffffffffffffffffff1673ffffffffffffffffffffffffffffffffffffffff1681526020019081526020016000206000820151816000015560208201518160010160006101000a81548173ffffffffffffffffffffffffffffffffffffffff021916908373ffffffffffffffffffffffffffffffffffffffff16021790555060408201518160020160006101000a81548173ffffffffffffffffffffffffffffffffffffffff021916908373ffffffffffffffffffffffffffffffffffffffff1602179055509050506040518060600160405280600481526020018b73ffffffffffffffffffffffffffffffffffffffff1681526020018c73ffffffffffffffffffffffffffffffffffffffff16815250601760008c73ffffffffffffffffffffffffffffffffffffffff1673ffffffffffffffffffffffffffffffffffffffff1681526020019081526020016000206000820151816000015560208201518160010160006101000a81548173ffffffffffffffffffffffffffffffffffffffff021916908373ffffffffffffffffffffffffffffffffffffffff16021790555060408201518160020160006101000a81548173ffffffffffffffffffffffffffffffffffffffff021916908373ffffffffffffffffffffffffffffffffffffffff160217905550905050601860008e73ffffffffffffffffffffffffffffffffffffffff1673ffffffffffffffffffffffffffffffffffffffff168152602001908152602001600020604051806101a0016040528060018152602001600081526020016000815260200186815260200183600081518110620005fa57fe5b6020026020010151815260200160008152602001836000815181106200061c57fe5b60200260200101518152602001836000815181106200063757fe5b6020026020010151870381526020016000815260200160008152602001600081526020016000815260200160008152509080600181540180825580915050906001820390600052602060002090600d020160009091929091909150600082015181600001556020820151816001015560408201518160020155606082015181600301556080820151816004015560a0820151816005015560c0820151816006015560e082015181600701556101008201518160080155610120820151816009015561014082015181600a015561016082015181600b015561018082015181600c0155505050806000815181106200072a57fe5b6020026020010151841215620008165783601860008f73ffffffffffffffffffffffffffffffffffffffff1673ffffffffffffffffffffffffffffffffffffffff1681526020019081526020016000206000815481106200078757fe5b90600052602060002090600d0201600601819055508381600081518110620007ab57fe5b602002602001015103601860008f73ffffffffffffffffffffffffffffffffffffffff1673ffffffffffffffffffffffffffffffffffffffff1681526020019081526020016000206000815481106200080057fe5b90600052602060002090600d0201600b01819055505b601860008d73ffffffffffffffffffffffffffffffffffffffff1673ffffffffffffffffffffffffffffffffffffffff168152602001908152602001600020604051806101a001604052806001815260200160008152602001600081526020018681526020016000815260200160008152602001600081526020018681526020016000815260200160008152602001600081526020016000815260200160008152509080600181540180825580915050906001820390600052602060002090600d020160009091929091909150600082015181600001556020820151816001015560408201518160020155606082015181600301556080820151816004015560a0820151816005015560c0820151816006015560e082015181600701556101008201518160080155610120820151816009015561014082015181600a015561016082015181600b015561018082015181600c0155505050601860008c73ffffffffffffffffffffffffffffffffffffffff1673ffffffffffffffffffffffffffffffffffffffff168152602001908152602001600020604051806101a001604052806001815260200160008152602001600081526020018681526020016000815260200160008152602001600081526020018681526020016000815260200160008152602001600081526020016000815260200160008152509080600181540180825580915050906001820390600052602060002090600d020160009091929091909150600082015181600001556020820151816001015560408201518160020155606082015181600301556080820151816004015560a0820151816005015560c0820151816006015560e082015181600701556101008201518160080155610120820151816009015561014082015181600a015561016082015181600b015561018082015181600c0155505050601860008b73ffffffffffffffffffffffffffffffffffffffff1673ffffffffffffffffffffffffffffffffffffffff168152602001908152602001600020604051806101a001604052806001815260200160008152602001600081526020018681526020016000815260200160008152602001600081526020018681526020016000815260200160008152602001600081526020016000815260200160008152509080600181540180825580915050906001820390600052602060002090600d020160009091929091909150600082015181600001556020820151816001015560408201518160020155606082015181600301556080820151816004015560a0820151816005015560c0820151816006015560e082015181600701556101008201518160080155610120820151816009015561014082015181600a015561016082015181600b015561018082015181600c01555050508c601960006001815260200190815260200160002060006101000a81548173ffffffffffffffffffffffffffffffffffffffff021916908373ffffffffffffffffffffffffffffffffffffffff1602179055508b601960006002815260200190815260200160002060006101000a81548173ffffffffffffffffffffffffffffffffffffffff021916908373ffffffffffffffffffffffffffffffffffffffff1602179055508a601960006003815260200190815260200160002060006101000a81548173ffffffffffffffffffffffffffffffffffffffff021916908373ffffffffffffffffffffffffffffffffffffffff16021790555089601960006004815260200190815260200160002060006101000a81548173ffffffffffffffffffffffffffffffffffffffff021916908373ffffffffffffffffffffffffffffffffffffffff1602179055506001600081905550886001819055508760028190555086600381905550856004819055508460058190555082600e90600462000da592919062000e75565b5081601290600462000db992919062000e75565b5060405180608001604052808260008151811062000dd357fe5b60200260200101518603815260200185815260200185815260200185815250600a90600462000e0492919062000eba565b506040518060800160405280600060ff168152602001600060ff168152602001600060ff168152602001600060ff16815250600690600462000e4892919062000eff565b50806016908051906020019062000e6192919062000f49565b505050505050505050505050505062000feb565b826004810192821562000ea7579160200282015b8281111562000ea657825182559160200191906001019062000e89565b5b50905062000eb6919062000f9b565b5090565b826004810192821562000eec579160200282015b8281111562000eeb57825182559160200191906001019062000ece565b5b50905062000efb919062000fc3565b5090565b826004810192821562000f36579160200282015b8281111562000f35578251829060ff1690559160200191906001019062000f13565b5b50905062000f45919062000f9b565b5090565b82805482825590600052602060002090810192821562000f88579160200282015b8281111562000f8757825182559160200191906001019062000f6a565b5b50905062000f97919062000fc3565b5090565b62000fc091905b8082111562000fbc57600081600090555060010162000fa2565b5090565b90565b62000fe891905b8082111562000fe457600081600090555060010162000fca565b5090565b90565b611b468062000ffb6000396000f3fe608060405234801561001057600080fd5b50600436106100ea5760003560e01c8063567802da1161008c578063d4de484d11610066578063d4de484d1461037f578063de0ac159146103c1578063e2eb41ff146103df578063eddf2d211461049d576100ea565b8063567802da1461027d578063af0f545f14610333578063c813c38214610351576100ea565b806336720309116100c8578063367203091461016d5780633e459c59146101db5780634077c33c146101f95780634272ee181461023b576100ea565b806312c4b657146100ef57806327e4ed6c1461010d5780632b4bce311461014f575b600080fd5b6100f76104bb565b6040518082815260200191505060405180910390f35b6101396004803603602081101561012357600080fd5b81019080803590602001909291905050506104c1565b6040518082815260200191505060405180910390f35b6101576104d9565b6040518082815260200191505060405180910390f35b6101996004803603602081101561018357600080fd5b81019080803590602001909291905050506104df565b604051808273ffffffffffffffffffffffffffffffffffffffff1673ffffffffffffffffffffffffffffffffffffffff16815260200191505060405180910390f35b6101e3610512565b6040518082815260200191505060405180910390f35b6102256004803603602081101561020f57600080fd5b8101908080359060200190929190505050610518565b6040518082815260200191505060405180910390f35b6102676004803603602081101561025157600080fd5b8101908080359060200190929190505050610530565b6040518082815260200191505060405180910390f35b6102c96004803603604081101561029357600080fd5b81019080803573ffffffffffffffffffffffffffffffffffffffff16906020019092919080359060200190929190505050610548565b604051808e81526020018d81526020018c81526020018b81526020018a81526020018981526020018881526020018781526020018681526020018581526020018481526020018381526020018281526020019d505050505050505050505050505060405180910390f35b61033b6105c8565b6040518082815260200191505060405180910390f35b61037d6004803603602081101561036757600080fd5b81019080803590602001909291905050506105ce565b005b6103ab6004803603602081101561039557600080fd5b8101908080359060200190929190505050610859565b6040518082815260200191505060405180910390f35b6103c9610871565b6040518082815260200191505060405180910390f35b610421600480360360208110156103f557600080fd5b81019080803573ffffffffffffffffffffffffffffffffffffffff169060200190929190505050610877565b604051808481526020018373ffffffffffffffffffffffffffffffffffffffff1673ffffffffffffffffffffffffffffffffffffffff1681526020018273ffffffffffffffffffffffffffffffffffffffff1673ffffffffffffffffffffffffffffffffffffffff168152602001935050505060405180910390f35b6104a56108e1565b6040518082815260200191505060405180910390f35b60035481565b601281600481106104ce57fe5b016000915090505481565b60015481565b60196020528060005260406000206000915054906101000a900473ffffffffffffffffffffffffffffffffffffffff1681565b60055481565b6006816004811061052557fe5b016000915090505481565b600a816004811061053d57fe5b016000915090505481565b6018602052816000526040600020818154811061056157fe5b90600052602060002090600d02016000915091505080600001549080600101549080600201549080600301549080600401549080600501549080600601549080600701549080600801549080600901549080600a01549080600b01549080600c015490508d565b60045481565b601860003373ffffffffffffffffffffffffffffffffffffffff1673ffffffffffffffffffffffffffffffffffffffff168152602001908152602001600020604051806101a001604052806001600054018152602001600081526020016000815260200160008152602001600081526020016000815260200160008152602001600081526020016000815260200160008152602001600081526020016000815260200160008152509080600181540180825580915050906001820390600052602060002090600d020160009091929091909150600082015181600001556020820151816001015560408201518160020155606082015181600301556080820151816004015560a0820151816005015560c0820151816006015560e082015181600701556101008201518160080155610120820151816009015561014082015181600a015561016082015181600b015561018082015181600c015550505080601860003373ffffffffffffffffffffffffffffffffffffffff1673ffffffffffffffffffffffffffffffffffffffff1681526020019081526020016000206001600054038154811061077b57fe5b90600052602060002090600d0201600a018190555043601860003373ffffffffffffffffffffffffffffffffffffffff1673ffffffffffffffffffffffffffffffffffffffff168152602001908152602001600020600160005403815481106107e057fe5b90600052602060002090600d0201600c0181905550600160066001601760003373ffffffffffffffffffffffffffffffffffffffff1673ffffffffffffffffffffffffffffffffffffffff16815260200190815260200160002060000154036004811061084957fe5b01819055506108566108e7565b50565b600e816004811061086657fe5b016000915090505481565b60005481565b60176020528060005260406000206000915090508060000154908060010160009054906101000a900473ffffffffffffffffffffffffffffffffffffffff16908060020160009054906101000a900473ffffffffffffffffffffffffffffffffffffffff16905083565b60025481565b6001601760003373ffffffffffffffffffffffffffffffffffffffff1673ffffffffffffffffffffffffffffffffffffffff1681526020019081526020016000206000015414156109bb57601680805490506000548161094357fe5b068154811061094e57fe5b9060005260206000200154601860003373ffffffffffffffffffffffffffffffffffffffff1673ffffffffffffffffffffffffffffffffffffffff168152602001908152602001600020600054815481106109a557fe5b90600052602060002090600d0201600401819055505b600160066000600481106109cb57fe5b01541480156109e95750600160066001600481106109e557fe5b0154145b8015610a04575060016006600260048110610a0057fe5b0154145b8015610a1f575060016006600360048110610a1b57fe5b0154145b15610c74576040518060800160405280600060ff168152602001600060ff168152602001600060ff168152602001600060ff168152506006906004610a65929190611ab0565b50610ada6001601960006001815260200190815260200160002060009054906101000a900473ffffffffffffffffffffffffffffffffffffffff16601960006002815260200190815260200160002060009054906101000a900473ffffffffffffffffffffffffffffffffffffffff16610c76565b610b4e6002601960006002815260200190815260200160002060009054906101000a900473ffffffffffffffffffffffffffffffffffffffff16601960006003815260200190815260200160002060009054906101000a900473ffffffffffffffffffffffffffffffffffffffff16610c76565b610bc26003601960006003815260200190815260200160002060009054906101000a900473ffffffffffffffffffffffffffffffffffffffff16601960006004815260200190815260200160002060009054906101000a900473ffffffffffffffffffffffffffffffffffffffff16610c76565b610c366004601960006004815260200190815260200160002060009054906101000a900473ffffffffffffffffffffffffffffffffffffffff16601960006004815260200190815260200160002060009054906101000a900473ffffffffffffffffffffffffffffffffffffffff16610c76565b60008081548092919060010191905055507f68e88fafe1fbb7460dc442ab8fb3c91cfd6aaa447128ffb4bc091eb739260f5360405160405180910390a15b565b60048314610efc576000600454600554600054030310610e1f57601860008273ffffffffffffffffffffffffffffffffffffffff1673ffffffffffffffffffffffffffffffffffffffff168152602001908152602001600020600454600554600054030381548110610ce457fe5b90600052602060002090600d020160050154601860008473ffffffffffffffffffffffffffffffffffffffff1673ffffffffffffffffffffffffffffffffffffffff16815260200190815260200160002060005481548110610d4257fe5b90600052602060002090600d020160010181905550601860008273ffffffffffffffffffffffffffffffffffffffff1673ffffffffffffffffffffffffffffffffffffffff168152602001908152602001600020600454600554600054030381548110610dab57fe5b90600052602060002090600d020160060154601860008473ffffffffffffffffffffffffffffffffffffffff1673ffffffffffffffffffffffffffffffffffffffff16815260200190815260200160002060005481548110610e0957fe5b90600052602060002090600d0201600201819055505b60006005546001600054030312610ef757601860008373ffffffffffffffffffffffffffffffffffffffff1673ffffffffffffffffffffffffffffffffffffffff1681526020019081526020016000206005546001600054030381548110610e8357fe5b90600052602060002090600d0201600a0154601860008373ffffffffffffffffffffffffffffffffffffffff1673ffffffffffffffffffffffffffffffffffffffff16815260200190815260200160002060005481548110610ee157fe5b90600052602060002090600d0201600401819055505b610fdd565b6000600454600160055460005403030312610fdc57601860008373ffffffffffffffffffffffffffffffffffffffff1673ffffffffffffffffffffffffffffffffffffffff168152602001908152602001600020600454600160055460005403030381548110610f6857fe5b90600052602060002090600d0201600a0154601860008473ffffffffffffffffffffffffffffffffffffffff1673ffffffffffffffffffffffffffffffffffffffff16815260200190815260200160002060005481548110610fc657fe5b90600052602060002090600d0201600201819055505b5b601860008373ffffffffffffffffffffffffffffffffffffffff1673ffffffffffffffffffffffffffffffffffffffff1681526020019081526020016000206001600054038154811061102c57fe5b90600052602060002090600d020160070154601860008473ffffffffffffffffffffffffffffffffffffffff1673ffffffffffffffffffffffffffffffffffffffff1681526020019081526020016000206000548154811061108a57fe5b90600052602060002090600d02016003018190555060006111096000601860008673ffffffffffffffffffffffffffffffffffffffff1673ffffffffffffffffffffffffffffffffffffffff168152602001908152602001600020600054815481106110f257fe5b90600052602060002090600d020160030154611a63565b601860008573ffffffffffffffffffffffffffffffffffffffff1673ffffffffffffffffffffffffffffffffffffffff1681526020019081526020016000206000548154811061115557fe5b90600052602060002090600d020160020154601860008673ffffffffffffffffffffffffffffffffffffffff1673ffffffffffffffffffffffffffffffffffffffff168152602001908152602001600020600054815481106111b357fe5b90600052602060002090600d020160010154010190506000601860008573ffffffffffffffffffffffffffffffffffffffff1673ffffffffffffffffffffffffffffffffffffffff1681526020019081526020016000206000548154811061121757fe5b90600052602060002090600d0201600301549050600081131561129c576000601860008673ffffffffffffffffffffffffffffffffffffffff1673ffffffffffffffffffffffffffffffffffffffff1681526020019081526020016000206000548154811061128257fe5b90600052602060002090600d020160050181905550611387565b60008212611386576112ad81611a7c565b8212611322576112bc81611a7c565b601860008673ffffffffffffffffffffffffffffffffffffffff1673ffffffffffffffffffffffffffffffffffffffff1681526020019081526020016000206000548154811061130857fe5b90600052602060002090600d020160050181905550611385565b81601860008673ffffffffffffffffffffffffffffffffffffffff1673ffffffffffffffffffffffffffffffffffffffff1681526020019081526020016000206000548154811061136f57fe5b90600052602060002090600d0201600501819055505b5b5b601860008573ffffffffffffffffffffffffffffffffffffffff1673ffffffffffffffffffffffffffffffffffffffff168152602001908152602001600020600054815481106113d357fe5b90600052602060002090600d020160040154601860008673ffffffffffffffffffffffffffffffffffffffff1673ffffffffffffffffffffffffffffffffffffffff1681526020019081526020016000206000548154811061143157fe5b90600052602060002090600d02016005015483031261150e57601860008573ffffffffffffffffffffffffffffffffffffffff1673ffffffffffffffffffffffffffffffffffffffff1681526020019081526020016000206000548154811061149657fe5b90600052602060002090600d020160040154601860008673ffffffffffffffffffffffffffffffffffffffff1673ffffffffffffffffffffffffffffffffffffffff168152602001908152602001600020600054815481106114f457fe5b90600052602060002090600d0201600601819055506115d0565b601860008573ffffffffffffffffffffffffffffffffffffffff1673ffffffffffffffffffffffffffffffffffffffff1681526020019081526020016000206000548154811061155a57fe5b90600052602060002090600d0201600501548203601860008673ffffffffffffffffffffffffffffffffffffffff1673ffffffffffffffffffffffffffffffffffffffff168152602001908152602001600020600054815481106115ba57fe5b90600052602060002090600d0201600601819055505b601860008573ffffffffffffffffffffffffffffffffffffffff1673ffffffffffffffffffffffffffffffffffffffff1681526020019081526020016000206000548154811061161c57fe5b90600052602060002090600d020160040154601860008673ffffffffffffffffffffffffffffffffffffffff1673ffffffffffffffffffffffffffffffffffffffff1681526020019081526020016000206000548154811061167a57fe5b90600052602060002090600d020160050154830303601860008673ffffffffffffffffffffffffffffffffffffffff1673ffffffffffffffffffffffffffffffffffffffff168152602001908152602001600020600054815481106116db57fe5b90600052602060002090600d02016007018190555060006004546005546000540303106117ca57601860008573ffffffffffffffffffffffffffffffffffffffff1673ffffffffffffffffffffffffffffffffffffffff16815260200190815260200160002060045460055460005403038154811061175657fe5b90600052602060002090600d0201600a0154601860008673ffffffffffffffffffffffffffffffffffffffff1673ffffffffffffffffffffffffffffffffffffffff168152602001908152602001600020600054815481106117b457fe5b90600052602060002090600d0201600801819055505b600485146118ad5760006004546005546000540303106118ac57601860008473ffffffffffffffffffffffffffffffffffffffff1673ffffffffffffffffffffffffffffffffffffffff16815260200190815260200160002060045460055460005403038154811061183857fe5b90600052602060002090600d0201600b0154601860008673ffffffffffffffffffffffffffffffffffffffff1673ffffffffffffffffffffffffffffffffffffffff1681526020019081526020016000206000548154811061189657fe5b90600052602060002090600d0201600901819055505b5b61191d6119186000601860008873ffffffffffffffffffffffffffffffffffffffff1673ffffffffffffffffffffffffffffffffffffffff1681526020019081526020016000206000548154811061190157fe5b90600052602060002090600d020160070154611a97565b611a7c565b601860008673ffffffffffffffffffffffffffffffffffffffff1673ffffffffffffffffffffffffffffffffffffffff1681526020019081526020016000206000548154811061196957fe5b90600052602060002090600d0201600b0181905550611a476000601860008773ffffffffffffffffffffffffffffffffffffffff1673ffffffffffffffffffffffffffffffffffffffff168152602001908152602001600020600054815481106119cf57fe5b90600052602060002090600d020160060154601860008873ffffffffffffffffffffffffffffffffffffffff1673ffffffffffffffffffffffffffffffffffffffff16815260200190815260200160002060005481548110611a2d57fe5b90600052602060002090600d020160050154850303611a63565b600a6001870360048110611a5757fe5b01819055505050505050565b6000818313611a725781611a74565b825b905092915050565b6000808213611a8e5781600003611a90565b815b9050919050565b6000818312611aa65781611aa8565b825b905092915050565b8260048101928215611ae4579160200282015b82811115611ae3578251829060ff16905591602001919060010190611ac3565b5b509050611af19190611af5565b5090565b611b1791905b80821115611b13576000816000905550600101611afb565b5090565b9056fea165627a7a72305820795108890e02b498d2578883287d58b7ce59d2c966163b32f18024452a4c408b0029",
    "source": "\npragma solidity ^0.5.0;\n\ncontract SupplyChain {\n\n    struct Details {\n        uint weekNo;\n        int inventoryReceivedBackOrder;\n        int inventoryReceivedDemand;\n        int inventoryPrevious;\n        int demand;\n        int shippingQuantityBackOrder;\n        int shippingQuantityDemand;\n        int inventoryLeft;\n        int expectedQuantity;\n        int expectedQuantityBackOrder;        \n        int orderPlaced;\n        int backOrder;\n        uint blockNumber;\n        }\n\n    struct Player {\n        uint role;\n        address upstream;\n        address downstream;\n    }\n\n    uint public weekNo;\n    uint public maxWeeks;\n    uint public startWeek; \n    uint public endWeek;\n    uint public deliveryLeadTime;\n    uint public orderLeadTime;\n    uint[4] public orderState;\n    int[4] public inventory;\n    uint[4] public holdingCost;\n    uint[4] public backOrderCost;\n    int[] private customerDemand;\n\n    mapping(address => Player) public players;\n    mapping(address => Details[]) public weekDetails;\n\n    mapping(uint => address) public adds;\n    \n\n    event weekEnd (\n    );\n\n\n\n    constructor (address add1, address add2, address add3, address add4, uint totalWeeks, uint start, uint end, uint dLeadTime, uint oLeadTime, int initialInv, uint[4] memory hCost, uint[4] memory boCost, int[] memory distribution) public {\n        players[add1] = Player(1, add2, add1);\n        players[add2] = Player(2, add3, add1);\n        players[add3] = Player(3,add4, add2);\n        players[add4] = Player(4, add4, add3);\n\n        weekDetails[add1].push(Details(1, 0, 0, initialInv, distribution[0], 0, distribution[0], initialInv-distribution[0], 0, 0, 0, 0, 0));\n\n        if(initialInv < distribution[0]) {\n            weekDetails[add1][0].shippingQuantityDemand = initialInv;\n            weekDetails[add1][0].backOrder = distribution[0]-initialInv;\n        }\n\n        weekDetails[add2].push(Details(1, 0, 0, initialInv, 0, 0, 0, initialInv, 0, 0, 0, 0, 0));\n        weekDetails[add3].push(Details(1, 0, 0, initialInv, 0, 0, 0, initialInv, 0, 0, 0, 0, 0));\n        weekDetails[add4].push(Details(1, 0, 0, initialInv, 0, 0, 0, initialInv, 0, 0, 0, 0, 0));\n\n        adds[1] = add1;\n        adds[2] = add2;\n        adds[3] = add3;\n        adds[4] = add4;\n\n        weekNo = 1;\n        maxWeeks=totalWeeks;\n        startWeek=start;\n        endWeek=end;\n        deliveryLeadTime = dLeadTime;\n        orderLeadTime = oLeadTime;\n        holdingCost=hCost;\n        backOrderCost=boCost;\n        inventory = [initialInv-distribution[0], initialInv, initialInv, initialInv];\n        orderState = [0,0,0,0];\n        customerDemand = distribution; \n    }\n\n\n    function checkWeekEnd() private {\n\n        if(players[msg.sender].role == 1) {\n            weekDetails[msg.sender][weekNo].demand = customerDemand[weekNo%customerDemand.length];\n        }\n\n        \n\n        if(orderState[0]==1 && orderState[1]==1 && orderState[2]==1 && orderState[3]==1 ) {\n            orderState = [0, 0, 0, 0];\n\n            updateDetails(1, adds[1], adds[2]);\n            updateDetails(2, adds[2], adds[3]);\n            updateDetails(3, adds[3], adds[4]);\n            updateDetails(4, adds[4], adds[4]);\n\n            weekNo++;\n            emit weekEnd();\n        }\n    }\n\n    function updateDetails (uint role, address add, address upAdd) private{\n\n        // setting inventory received\n        if(role != 4) {\n            if(weekNo - orderLeadTime - deliveryLeadTime >= 0) {\n                weekDetails[add][weekNo].inventoryReceivedBackOrder = weekDetails[upAdd][weekNo-orderLeadTime-deliveryLeadTime].shippingQuantityBackOrder;\n                weekDetails[add][weekNo].inventoryReceivedDemand = weekDetails[upAdd][weekNo-orderLeadTime-deliveryLeadTime].shippingQuantityDemand;\n            }\n            //setting demand\n            if(int(weekNo-1-orderLeadTime) >= 0)\n                weekDetails[upAdd][weekNo].demand = weekDetails[add][weekNo-1-orderLeadTime].orderPlaced;\n\n        }\n        else {\n            if(int(weekNo-orderLeadTime-1-deliveryLeadTime) >= 0)\n                weekDetails[add][weekNo].inventoryReceivedDemand = weekDetails[add][weekNo-orderLeadTime-1-deliveryLeadTime].orderPlaced;\n        }\n        //previous inventory\n        weekDetails[add][weekNo].inventoryPrevious = weekDetails[add][weekNo-1].inventoryLeft;\n\n        int beginInventory = weekDetails[add][weekNo].inventoryReceivedBackOrder + weekDetails[add][weekNo].inventoryReceivedDemand + max(0, weekDetails[add][weekNo].inventoryPrevious);\n        int prevInventory = weekDetails[add][weekNo].inventoryPrevious;\n\n        //shipping quantity BackOrder\n        if(prevInventory > 0)\n            weekDetails[add][weekNo].shippingQuantityBackOrder = 0;\n        else if(beginInventory >= 0) {\n            if(beginInventory >= abs(prevInventory))\n                weekDetails[add][weekNo].shippingQuantityBackOrder = abs(prevInventory);\n            else\n                weekDetails[add][weekNo].shippingQuantityBackOrder = beginInventory;\n        }\n\n        //shipping quantity demand\n        if(beginInventory - weekDetails[add][weekNo].shippingQuantityBackOrder >= weekDetails[add][weekNo].demand) {\n            weekDetails[add][weekNo].shippingQuantityDemand = weekDetails[add][weekNo].demand;       \n        }\n        else { \n                weekDetails[add][weekNo].shippingQuantityDemand = beginInventory - weekDetails[add][weekNo].shippingQuantityBackOrder;\n        }\n\n        //inventory left\n        weekDetails[add][weekNo].inventoryLeft = beginInventory - weekDetails[add][weekNo].shippingQuantityBackOrder - weekDetails[add][weekNo].demand;\n\n        //expected quantity\n        if(weekNo-orderLeadTime-deliveryLeadTime >= 0)\n            weekDetails[add][weekNo].expectedQuantity = weekDetails[add][weekNo-orderLeadTime-deliveryLeadTime].orderPlaced;\n\n        //expected quantity BackOrder\n        if(role != 4) {\n            if(weekNo-orderLeadTime-deliveryLeadTime >= 0)\n                weekDetails[add][weekNo].expectedQuantityBackOrder = weekDetails[upAdd][weekNo-orderLeadTime-deliveryLeadTime].backOrder;                \n        }\n\n        //backOrder\n        weekDetails[add][weekNo].backOrder = abs(min(0, int(weekDetails[add][weekNo].inventoryLeft)));\n\n        inventory[role-1] = max(0,beginInventory-weekDetails[add][weekNo].shippingQuantityBackOrder-weekDetails[add][weekNo].shippingQuantityDemand);\n\n    }\n\n\n    function order(int _amt) public {\n        weekDetails[msg.sender].push(Details(weekNo+1,0,0,0,0,0,0,0,0,0,0,0,0));\n\n        weekDetails[msg.sender][weekNo-1].orderPlaced = _amt;\n        weekDetails[msg.sender][weekNo-1].blockNumber = block.number;\n\n        orderState[players[msg.sender].role - 1] = 1;\n        checkWeekEnd(); \n    }\n\n    function max(int a, int b) private pure returns (int){\n        return a>b ? a : b;\n    }\n\n    function min(int a, int b) private pure returns (int){\n        return a<b ? a : b;\n    }\n\n    function abs(int a) private pure returns (int){\n        return a>0 ? int(a) : int(0-a);\n    }\n\n}\n",
    "sourcePath": "/home/kenil/Desktop/dd/SupplyChainDapp_2/SupplyChain/contracts/SupplyChain.sol",
    "compiler": {
        "name": "solc",
        "version": "0.5.8+commit.23d335f2.Emscripten.clang"
    },
    "schemaVersion": "3.0.17",
    "updatedAt": "2020-06-22T07:22:16.275Z",
    "networkType": "ethereum",
    "devdoc": {
        "methods": {}
    },
    "userdoc": {
        "methods": {}
    }
}