{
    "contractName": "SupplyChain",
    "abi": [
        {
            "constant": true,
            "inputs": [],
            "name": "endWeek",
            "outputs": [
                {
                    "name": "",
                    "type": "uint256"
                }
            ],
            "payable": false,
            "stateMutability": "view",
            "type": "function",
            "signature": "0x12c4b657"
        },
        {
            "constant": true,
            "inputs": [],
            "name": "maxWeeks",
            "outputs": [
                {
                    "name": "",
                    "type": "uint256"
                }
            ],
            "payable": false,
            "stateMutability": "view",
            "type": "function",
            "signature": "0x2b4bce31"
        },
        {
            "constant": true,
            "inputs": [
                {
                    "name": "",
                    "type": "uint256"
                }
            ],
            "name": "adds",
            "outputs": [
                {
                    "name": "",
                    "type": "address"
                }
            ],
            "payable": false,
            "stateMutability": "view",
            "type": "function",
            "signature": "0x36720309"
        },
        {
            "constant": true,
            "inputs": [],
            "name": "orderLeadTime",
            "outputs": [
                {
                    "name": "",
                    "type": "uint256"
                }
            ],
            "payable": false,
            "stateMutability": "view",
            "type": "function",
            "signature": "0x3e459c59"
        },
        {
            "constant": true,
            "inputs": [
                {
                    "name": "",
                    "type": "uint256"
                }
            ],
            "name": "orderState",
            "outputs": [
                {
                    "name": "",
                    "type": "uint256"
                }
            ],
            "payable": false,
            "stateMutability": "view",
            "type": "function",
            "signature": "0x4077c33c"
        },
        {
            "constant": true,
            "inputs": [
                {
                    "name": "",
                    "type": "uint256"
                }
            ],
            "name": "inventory",
            "outputs": [
                {
                    "name": "",
                    "type": "uint256"
                }
            ],
            "payable": false,
            "stateMutability": "view",
            "type": "function",
            "signature": "0x4272ee18"
        },
        {
            "constant": true,
            "inputs": [
                {
                    "name": "",
                    "type": "address"
                },
                {
                    "name": "",
                    "type": "uint256"
                }
            ],
            "name": "weekDetails",
            "outputs": [
                {
                    "name": "weekNo",
                    "type": "uint256"
                },
                {
                    "name": "inventoryReceived",
                    "type": "uint256"
                },
                {
                    "name": "inventoryPrevious",
                    "type": "uint256"
                },
                {
                    "name": "demand",
                    "type": "uint256"
                },
                {
                    "name": "shippingQuantity",
                    "type": "uint256"
                },
                {
                    "name": "inventoryLeft",
                    "type": "uint256"
                },
                {
                    "name": "expextedQuantity",
                    "type": "uint256"
                },
                {
                    "name": "orderPlaced",
                    "type": "uint256"
                },
                {
                    "name": "lostSales",
                    "type": "uint256"
                },
                {
                    "name": "blockNumber",
                    "type": "uint256"
                }
            ],
            "payable": false,
            "stateMutability": "view",
            "type": "function",
            "signature": "0x567802da"
        },
        {
            "constant": true,
            "inputs": [],
            "name": "deliveryLeadTime",
            "outputs": [
                {
                    "name": "",
                    "type": "uint256"
                }
            ],
            "payable": false,
            "stateMutability": "view",
            "type": "function",
            "signature": "0xaf0f545f"
        },
        {
            "constant": true,
            "inputs": [
                {
                    "name": "",
                    "type": "uint256"
                }
            ],
            "name": "holdingCost",
            "outputs": [
                {
                    "name": "",
                    "type": "uint256"
                }
            ],
            "payable": false,
            "stateMutability": "view",
            "type": "function",
            "signature": "0xd4de484d"
        },
        {
            "constant": true,
            "inputs": [],
            "name": "weekNo",
            "outputs": [
                {
                    "name": "",
                    "type": "uint256"
                }
            ],
            "payable": false,
            "stateMutability": "view",
            "type": "function",
            "signature": "0xde0ac159"
        },
        {
            "constant": true,
            "inputs": [
                {
                    "name": "",
                    "type": "address"
                }
            ],
            "name": "players",
            "outputs": [
                {
                    "name": "role",
                    "type": "uint256"
                },
                {
                    "name": "upstream",
                    "type": "address"
                },
                {
                    "name": "downstream",
                    "type": "address"
                }
            ],
            "payable": false,
            "stateMutability": "view",
            "type": "function",
            "signature": "0xe2eb41ff"
        },
        {
            "constant": true,
            "inputs": [],
            "name": "startWeek",
            "outputs": [
                {
                    "name": "",
                    "type": "uint256"
                }
            ],
            "payable": false,
            "stateMutability": "view",
            "type": "function",
            "signature": "0xeddf2d21"
        },
        {
            "constant": true,
            "inputs": [
                {
                    "name": "",
                    "type": "uint256"
                }
            ],
            "name": "lostSalesCost",
            "outputs": [
                {
                    "name": "",
                    "type": "uint256"
                }
            ],
            "payable": false,
            "stateMutability": "view",
            "type": "function",
            "signature": "0xf38e0c66"
        },
        {
            "inputs": [
                {
                    "name": "add1",
                    "type": "address"
                },
                {
                    "name": "add2",
                    "type": "address"
                },
                {
                    "name": "add3",
                    "type": "address"
                },
                {
                    "name": "add4",
                    "type": "address"
                },
                {
                    "name": "totalWeeks",
                    "type": "uint256"
                },
                {
                    "name": "start",
                    "type": "uint256"
                },
                {
                    "name": "end",
                    "type": "uint256"
                },
                {
                    "name": "dLeadTime",
                    "type": "uint256"
                },
                {
                    "name": "oLeadTime",
                    "type": "uint256"
                },
                {
                    "name": "hCost",
                    "type": "uint256[4]"
                },
                {
                    "name": "lsCost",
                    "type": "uint256[4]"
                },
                {
                    "name": "initialInv",
                    "type": "uint256"
                },
                {
                    "name": "distribution",
                    "type": "uint256[]"
                }
            ],
            "payable": false,
            "stateMutability": "nonpayable",
            "type": "constructor",
            "signature": "constructor"
        },
        {
            "anonymous": false,
            "inputs": [],
            "name": "weekEnd",
            "type": "event",
            "signature": "0x68e88fafe1fbb7460dc442ab8fb3c91cfd6aaa447128ffb4bc091eb739260f53"
        },
        {
            "constant": false,
            "inputs": [
                {
                    "name": "role",
                    "type": "uint256"
                },
                {
                    "name": "add",
                    "type": "address"
                },
                {
                    "name": "upAdd",
                    "type": "address"
                }
            ],
            "name": "updateDetails",
            "outputs": [],
            "payable": false,
            "stateMutability": "nonpayable",
            "type": "function",
            "signature": "0x86742a2c"
        },
        {
            "constant": false,
            "inputs": [
                {
                    "name": "_amt",
                    "type": "uint256"
                }
            ],
            "name": "order",
            "outputs": [],
            "payable": false,
            "stateMutability": "nonpayable",
            "type": "function",
            "signature": "0x21603f43"
        }
    ],
    "bytecode": "0x60806040523480156200001157600080fd5b50604051620026093803806200260983398101806040526102608110156200003857600080fd5b81019080805190602001909291908051906020019092919080519060200190929190805190602001909291908051906020019092919080519060200190929190805190602001909291908051906020019092919080519060200190929190919082608001919082608001805190602001909291908051640100000000811115620000c157600080fd5b82810190506020810184811115620000d857600080fd5b8151856020820283011164010000000082111715620000f657600080fd5b50509291905050506040518060600160405280600181526020018d73ffffffffffffffffffffffffffffffffffffffff1681526020018e73ffffffffffffffffffffffffffffffffffffffff16815250601760008f73ffffffffffffffffffffffffffffffffffffffff1673ffffffffffffffffffffffffffffffffffffffff1681526020019081526020016000206000820151816000015560208201518160010160006101000a81548173ffffffffffffffffffffffffffffffffffffffff021916908373ffffffffffffffffffffffffffffffffffffffff16021790555060408201518160020160006101000a81548173ffffffffffffffffffffffffffffffffffffffff021916908373ffffffffffffffffffffffffffffffffffffffff1602179055509050506040518060600160405280600281526020018c73ffffffffffffffffffffffffffffffffffffffff1681526020018e73ffffffffffffffffffffffffffffffffffffffff16815250601760008e73ffffffffffffffffffffffffffffffffffffffff1673ffffffffffffffffffffffffffffffffffffffff1681526020019081526020016000206000820151816000015560208201518160010160006101000a81548173ffffffffffffffffffffffffffffffffffffffff021916908373ffffffffffffffffffffffffffffffffffffffff16021790555060408201518160020160006101000a81548173ffffffffffffffffffffffffffffffffffffffff021916908373ffffffffffffffffffffffffffffffffffffffff1602179055509050506040518060600160405280600381526020018b73ffffffffffffffffffffffffffffffffffffffff1681526020018d73ffffffffffffffffffffffffffffffffffffffff16815250601760008d73ffffffffffffffffffffffffffffffffffffffff1673ffffffffffffffffffffffffffffffffffffffff1681526020019081526020016000206000820151816000015560208201518160010160006101000a81548173ffffffffffffffffffffffffffffffffffffffff021916908373ffffffffffffffffffffffffffffffffffffffff16021790555060408201518160020160006101000a81548173ffffffffffffffffffffffffffffffffffffffff021916908373ffffffffffffffffffffffffffffffffffffffff1602179055509050506040518060600160405280600481526020018b73ffffffffffffffffffffffffffffffffffffffff1681526020018c73ffffffffffffffffffffffffffffffffffffffff16815250601760008c73ffffffffffffffffffffffffffffffffffffffff1673ffffffffffffffffffffffffffffffffffffffff1681526020019081526020016000206000820151816000015560208201518160010160006101000a81548173ffffffffffffffffffffffffffffffffffffffff021916908373ffffffffffffffffffffffffffffffffffffffff16021790555060408201518160020160006101000a81548173ffffffffffffffffffffffffffffffffffffffff021916908373ffffffffffffffffffffffffffffffffffffffff160217905550905050806000815181106200059457fe5b602002602001015182106200070957601860008e73ffffffffffffffffffffffffffffffffffffffff1673ffffffffffffffffffffffffffffffffffffffff1681526020019081526020016000206040518061014001604052806001815260200160008152602001848152602001836000815181106200061057fe5b60200260200101518152602001836000815181106200062b57fe5b60200260200101518152602001836000815181106200064657fe5b60200260200101518503815260200160008152602001600081526020016000815260200160008152509080600181540180825580915050906001820390600052602060002090600a020160009091929091909150600082015181600001556020820151816001015560408201518160020155606082015181600301556080820151816004015560a0820151816005015560c0820151816006015560e082015181600701556101008201518160080155610120820151816009015550505062000855565b601860008e73ffffffffffffffffffffffffffffffffffffffff1673ffffffffffffffffffffffffffffffffffffffff1681526020019081526020016000206040518061014001604052806001815260200160008152602001848152602001836000815181106200077657fe5b602002602001015181526020018481526020016000815260200160008152602001600081526020018484600081518110620007ad57fe5b602002602001015103815260200160008152509080600181540180825580915050906001820390600052602060002090600a020160009091929091909150600082015181600001556020820151816001015560408201518160020155606082015181600301556080820151816004015560a0820151816005015560c0820151816006015560e08201518160070155610100820151816008015561012082015181600901555050505b601860008d73ffffffffffffffffffffffffffffffffffffffff1673ffffffffffffffffffffffffffffffffffffffff1681526020019081526020016000206040518061014001604052806001815260200160008152602001848152602001600081526020016000815260200184815260200160008152602001600081526020016000815260200160008152509080600181540180825580915050906001820390600052602060002090600a020160009091929091909150600082015181600001556020820151816001015560408201518160020155606082015181600301556080820151816004015560a0820151816005015560c0820151816006015560e0820151816007015561010082015181600801556101208201518160090155505050601860008c73ffffffffffffffffffffffffffffffffffffffff1673ffffffffffffffffffffffffffffffffffffffff1681526020019081526020016000206040518061014001604052806001815260200160008152602001848152602001600081526020016000815260200184815260200160008152602001600081526020016000815260200160008152509080600181540180825580915050906001820390600052602060002090600a020160009091929091909150600082015181600001556020820151816001015560408201518160020155606082015181600301556080820151816004015560a0820151816005015560c0820151816006015560e0820151816007015561010082015181600801556101208201518160090155505050601860008b73ffffffffffffffffffffffffffffffffffffffff1673ffffffffffffffffffffffffffffffffffffffff1681526020019081526020016000206040518061014001604052806001815260200160008152602001848152602001600081526020016000815260200184815260200160008152602001600081526020016000815260200160008152509080600181540180825580915050906001820390600052602060002090600a020160009091929091909150600082015181600001556020820151816001015560408201518160020155606082015181600301556080820151816004015560a0820151816005015560c0820151816006015560e08201518160070155610100820151816008015561012082015181600901555050508c601960006001815260200190815260200160002060006101000a81548173ffffffffffffffffffffffffffffffffffffffff021916908373ffffffffffffffffffffffffffffffffffffffff1602179055508b601960006002815260200190815260200160002060006101000a81548173ffffffffffffffffffffffffffffffffffffffff021916908373ffffffffffffffffffffffffffffffffffffffff1602179055508a601960006003815260200190815260200160002060006101000a81548173ffffffffffffffffffffffffffffffffffffffff021916908373ffffffffffffffffffffffffffffffffffffffff16021790555089601960006004815260200190815260200160002060006101000a81548173ffffffffffffffffffffffffffffffffffffffff021916908373ffffffffffffffffffffffffffffffffffffffff160217905550600160008190555088600181905550876002819055508660038190555083600e90600462000d3492919062000e0b565b5082601290600462000d4892919062000e0b565b5085600481905550846005819055506040518060800160405280601460ff168152602001603260ff168152602001603260ff168152602001603260ff16815250600a90600462000d9a92919062000e50565b506040518060800160405280600060ff168152602001600060ff168152602001600060ff168152602001600060ff16815250600690600462000dde92919062000e50565b50806016908051906020019062000df792919062000e9a565b505050505050505050505050505062000f14565b826004810192821562000e3d579160200282015b8281111562000e3c57825182559160200191906001019062000e1f565b5b50905062000e4c919062000eec565b5090565b826004810192821562000e87579160200282015b8281111562000e86578251829060ff1690559160200191906001019062000e64565b5b50905062000e96919062000eec565b5090565b82805482825590600052602060002090810192821562000ed9579160200282015b8281111562000ed857825182559160200191906001019062000ebb565b5b50905062000ee8919062000eec565b5090565b62000f1191905b8082111562000f0d57600081600090555060010162000ef3565b5090565b90565b6116e58062000f246000396000f3fe608060405234801561001057600080fd5b50600436106100f55760003560e01c8063567802da11610097578063de0ac15911610066578063de0ac159146103e3578063e2eb41ff14610401578063eddf2d21146104bf578063f38e0c66146104dd576100f5565b8063567802da1461027457806386742a2c14610315578063af0f545f14610383578063d4de484d146103a1576100f5565b806336720309116100d357806336720309146101645780633e459c59146101d25780634077c33c146101f05780634272ee1814610232576100f5565b806312c4b657146100fa57806321603f43146101185780632b4bce3114610146575b600080fd5b61010261051f565b6040518082815260200191505060405180910390f35b6101446004803603602081101561012e57600080fd5b8101908080359060200190929190505050610525565b005b61014e61078b565b6040518082815260200191505060405180910390f35b6101906004803603602081101561017a57600080fd5b8101908080359060200190929190505050610791565b604051808273ffffffffffffffffffffffffffffffffffffffff1673ffffffffffffffffffffffffffffffffffffffff16815260200191505060405180910390f35b6101da6107c4565b6040518082815260200191505060405180910390f35b61021c6004803603602081101561020657600080fd5b81019080803590602001909291905050506107ca565b6040518082815260200191505060405180910390f35b61025e6004803603602081101561024857600080fd5b81019080803590602001909291905050506107e2565b6040518082815260200191505060405180910390f35b6102c06004803603604081101561028a57600080fd5b81019080803573ffffffffffffffffffffffffffffffffffffffff169060200190929190803590602001909291905050506107fa565b604051808b81526020018a81526020018981526020018881526020018781526020018681526020018581526020018481526020018381526020018281526020019a505050505050505050505060405180910390f35b6103816004803603606081101561032b57600080fd5b8101908080359060200190929190803573ffffffffffffffffffffffffffffffffffffffff169060200190929190803573ffffffffffffffffffffffffffffffffffffffff169060200190929190505050610868565b005b61038b611216565b6040518082815260200191505060405180910390f35b6103cd600480360360208110156103b757600080fd5b810190808035906020019092919050505061121c565b6040518082815260200191505060405180910390f35b6103eb611234565b6040518082815260200191505060405180910390f35b6104436004803603602081101561041757600080fd5b81019080803573ffffffffffffffffffffffffffffffffffffffff16906020019092919050505061123a565b604051808481526020018373ffffffffffffffffffffffffffffffffffffffff1673ffffffffffffffffffffffffffffffffffffffff1681526020018273ffffffffffffffffffffffffffffffffffffffff1673ffffffffffffffffffffffffffffffffffffffff168152602001935050505060405180910390f35b6104c76112a4565b6040518082815260200191505060405180910390f35b610509600480360360208110156104f357600080fd5b81019080803590602001909291905050506112aa565b6040518082815260200191505060405180910390f35b60035481565b600154600054111561053657600080fd5b601860003373ffffffffffffffffffffffffffffffffffffffff1673ffffffffffffffffffffffffffffffffffffffff1681526020019081526020016000206040518061014001604052806001600054018152602001600081526020016000815260200160008152602001600081526020016000815260200160008152602001600081526020016000815260200160008152509080600181540180825580915050906001820390600052602060002090600a020160009091929091909150600082015181600001556020820151816001015560408201518160020155606082015181600301556080820151816004015560a0820151816005015560c0820151816006015560e082015181600701556101008201518160080155610120820151816009015550505080601860003373ffffffffffffffffffffffffffffffffffffffff1673ffffffffffffffffffffffffffffffffffffffff168152602001908152602001600020600160005403815481106106ad57fe5b90600052602060002090600a02016007018190555043601860003373ffffffffffffffffffffffffffffffffffffffff1673ffffffffffffffffffffffffffffffffffffffff1681526020019081526020016000206001600054038154811061071257fe5b90600052602060002090600a020160090181905550600160066001601760003373ffffffffffffffffffffffffffffffffffffffff1673ffffffffffffffffffffffffffffffffffffffff16815260200190815260200160002060000154036004811061077b57fe5b01819055506107886112c2565b50565b60015481565b60196020528060005260406000206000915054906101000a900473ffffffffffffffffffffffffffffffffffffffff1681565b60055481565b600681600481106107d757fe5b016000915090505481565b600a81600481106107ef57fe5b016000915090505481565b6018602052816000526040600020818154811061081357fe5b90600052602060002090600a020160009150915050806000015490806001015490806002015490806003015490806004015490806005015490806006015490806007015490806008015490806009015490508a565b601860008373ffffffffffffffffffffffffffffffffffffffff1673ffffffffffffffffffffffffffffffffffffffff168152602001908152602001600020600160005403815481106108b757fe5b90600052602060002090600a020160050154601860008473ffffffffffffffffffffffffffffffffffffffff1673ffffffffffffffffffffffffffffffffffffffff1681526020019081526020016000206000548154811061091557fe5b90600052602060002090600a02016002018190555060048314610ad257601860008273ffffffffffffffffffffffffffffffffffffffff1673ffffffffffffffffffffffffffffffffffffffff168152602001908152602001600020600454600054038154811061098257fe5b90600052602060002090600a020160040154601860008473ffffffffffffffffffffffffffffffffffffffff1673ffffffffffffffffffffffffffffffffffffffff168152602001908152602001600020600054815481106109e057fe5b90600052602060002090600a02016001018190555060006005546001600054030310610acd57601860008373ffffffffffffffffffffffffffffffffffffffff1673ffffffffffffffffffffffffffffffffffffffff1681526020019081526020016000206005546001600054030381548110610a5957fe5b90600052602060002090600a020160070154601860008373ffffffffffffffffffffffffffffffffffffffff1673ffffffffffffffffffffffffffffffffffffffff16815260200190815260200160002060005481548110610ab757fe5b90600052602060002090600a0201600301819055505b610bab565b60006001600454600054030312610baa57601860008373ffffffffffffffffffffffffffffffffffffffff1673ffffffffffffffffffffffffffffffffffffffff1681526020019081526020016000206001600454600054030381548110610b3657fe5b90600052602060002090600a020160070154601860008473ffffffffffffffffffffffffffffffffffffffff1673ffffffffffffffffffffffffffffffffffffffff16815260200190815260200160002060005481548110610b9457fe5b90600052602060002090600a0201600101819055505b5b601860008373ffffffffffffffffffffffffffffffffffffffff1673ffffffffffffffffffffffffffffffffffffffff16815260200190815260200160002060016000540381548110610bfa57fe5b90600052602060002090600a020160050154601860008473ffffffffffffffffffffffffffffffffffffffff1673ffffffffffffffffffffffffffffffffffffffff16815260200190815260200160002060005481548110610c5857fe5b90600052602060002090600a0201600201819055506000601860008473ffffffffffffffffffffffffffffffffffffffff1673ffffffffffffffffffffffffffffffffffffffff16815260200190815260200160002060005481548110610cbb57fe5b90600052602060002090600a020160020154601860008573ffffffffffffffffffffffffffffffffffffffff1673ffffffffffffffffffffffffffffffffffffffff16815260200190815260200160002060005481548110610d1957fe5b90600052602060002090600a02016001015401905080601860008573ffffffffffffffffffffffffffffffffffffffff1673ffffffffffffffffffffffffffffffffffffffff16815260200190815260200160002060005481548110610d7b57fe5b90600052602060002090600a0201600301541015610e5757601860008473ffffffffffffffffffffffffffffffffffffffff1673ffffffffffffffffffffffffffffffffffffffff16815260200190815260200160002060005481548110610ddf57fe5b90600052602060002090600a020160030154601860008573ffffffffffffffffffffffffffffffffffffffff1673ffffffffffffffffffffffffffffffffffffffff16815260200190815260200160002060005481548110610e3d57fe5b90600052602060002090600a020160040181905550610eba565b80601860008573ffffffffffffffffffffffffffffffffffffffff1673ffffffffffffffffffffffffffffffffffffffff16815260200190815260200160002060005481548110610ea457fe5b90600052602060002090600a0201600401819055505b601860008473ffffffffffffffffffffffffffffffffffffffff1673ffffffffffffffffffffffffffffffffffffffff16815260200190815260200160002060005481548110610f0657fe5b90600052602060002090600a0201600401548103601860008573ffffffffffffffffffffffffffffffffffffffff1673ffffffffffffffffffffffffffffffffffffffff16815260200190815260200160002060005481548110610f6657fe5b90600052602060002090600a020160050181905550601860008473ffffffffffffffffffffffffffffffffffffffff1673ffffffffffffffffffffffffffffffffffffffff16815260200190815260200160002060016000540381548110610fca57fe5b90600052602060002090600a020160070154601860008573ffffffffffffffffffffffffffffffffffffffff1673ffffffffffffffffffffffffffffffffffffffff1681526020019081526020016000206000548154811061102857fe5b90600052602060002090600a020160060181905550601860008473ffffffffffffffffffffffffffffffffffffffff1673ffffffffffffffffffffffffffffffffffffffff1681526020019081526020016000206000548154811061108957fe5b90600052602060002090600a020160040154601860008573ffffffffffffffffffffffffffffffffffffffff1673ffffffffffffffffffffffffffffffffffffffff168152602001908152602001600020600054815481106110e757fe5b90600052602060002090600a02016003015403601860008573ffffffffffffffffffffffffffffffffffffffff1673ffffffffffffffffffffffffffffffffffffffff1681526020019081526020016000206000548154811061114657fe5b90600052602060002090600a020160080181905550601860008473ffffffffffffffffffffffffffffffffffffffff1673ffffffffffffffffffffffffffffffffffffffff168152602001908152602001600020600054815481106111a757fe5b90600052602060002090600a020160050154600a6001601760008773ffffffffffffffffffffffffffffffffffffffff1673ffffffffffffffffffffffffffffffffffffffff16815260200190815260200160002060000154036004811061120b57fe5b018190555050505050565b60045481565b600e816004811061122957fe5b016000915090505481565b60005481565b60176020528060005260406000206000915090508060000154908060010160009054906101000a900473ffffffffffffffffffffffffffffffffffffffff16908060020160009054906101000a900473ffffffffffffffffffffffffffffffffffffffff16905083565b60025481565b601281600481106112b757fe5b016000915090505481565b6001601760003373ffffffffffffffffffffffffffffffffffffffff1673ffffffffffffffffffffffffffffffffffffffff1681526020019081526020016000206000015414156113945760166001546000548161131c57fe5b068154811061132757fe5b9060005260206000200154601860003373ffffffffffffffffffffffffffffffffffffffff1673ffffffffffffffffffffffffffffffffffffffff1681526020019081526020016000206000548154811061137e57fe5b90600052602060002090600a0201600301819055505b600160066000600481106113a457fe5b01541480156113c25750600160066001600481106113be57fe5b0154145b80156113dd5750600160066002600481106113d957fe5b0154145b80156113f85750600160066003600481106113f457fe5b0154145b1561164d576040518060800160405280600060ff168152602001600060ff168152602001600060ff168152602001600060ff16815250600690600461143e92919061164f565b506114b36001601960006001815260200190815260200160002060009054906101000a900473ffffffffffffffffffffffffffffffffffffffff16601960006002815260200190815260200160002060009054906101000a900473ffffffffffffffffffffffffffffffffffffffff16610868565b6115276002601960006002815260200190815260200160002060009054906101000a900473ffffffffffffffffffffffffffffffffffffffff16601960006003815260200190815260200160002060009054906101000a900473ffffffffffffffffffffffffffffffffffffffff16610868565b61159b6003601960006003815260200190815260200160002060009054906101000a900473ffffffffffffffffffffffffffffffffffffffff16601960006004815260200190815260200160002060009054906101000a900473ffffffffffffffffffffffffffffffffffffffff16610868565b61160f6004601960006004815260200190815260200160002060009054906101000a900473ffffffffffffffffffffffffffffffffffffffff16601960006004815260200190815260200160002060009054906101000a900473ffffffffffffffffffffffffffffffffffffffff16610868565b60008081548092919060010191905055507f68e88fafe1fbb7460dc442ab8fb3c91cfd6aaa447128ffb4bc091eb739260f5360405160405180910390a15b565b8260048101928215611683579160200282015b82811115611682578251829060ff16905591602001919060010190611662565b5b5090506116909190611694565b5090565b6116b691905b808211156116b257600081600090555060010161169a565b5090565b9056fea165627a7a723058206dbb1ed234a4e2206c2a2998548b8ffcdb190798972d24a9664953e5fdbd08080029",
    "source": "\npragma solidity ^0.5.0;\n\ncontract SupplyChain {\n\n    struct Details {\n        uint weekNo;\n        uint inventoryReceived;\n        uint inventoryPrevious;\n        uint demand;\n        uint shippingQuantity;\n        uint inventoryLeft;\n        uint expextedQuantity;\n        uint orderPlaced;\n        uint lostSales;\n        uint blockNumber;         \n        }\n\n    struct Player {\n        uint role;\n        address upstream;\n        address downstream;\n    }\n\n    uint public weekNo;\n    uint public maxWeeks;\n    uint public startWeek; \n    uint public endWeek;\n    uint public deliveryLeadTime;\n    uint public orderLeadTime;\n    uint[4] public orderState;\n    uint[4] public inventory;\n    uint[4] public holdingCost;\n    uint[4] public lostSalesCost;\n    uint[] customerDemand;\n\n    mapping(address => Player) public players;\n    mapping(address => Details[]) public weekDetails;\n\n    mapping(uint => address) public adds;\n    \n\n    event weekEnd (\n    );\n\n\n\n    constructor(address add1, address add2, address add3, address add4, uint totalWeeks, uint start, uint end, uint dLeadTime, uint oLeadTime, uint[4] memory hCost, uint[4] memory lsCost, uint initialInv, uint[] memory distribution) public{\n        players[add1] = Player(1, add2, add1);\n        players[add2] = Player(2, add3, add1);\n        players[add3] = Player(3,add4, add2);\n        players[add4] = Player(4, add4, add3);\n\n        if(initialInv>=distribution[0])\n            weekDetails[add1].push(Details(1, 0, initialInv, distribution[0], distribution[0], initialInv-distribution[0], 0, 0, 0, 0));\n        else\n            weekDetails[add1].push(Details(1, 0, initialInv, distribution[0], initialInv, 0, 0, 0, distribution[0]-initialInv, 0));\n\n        weekDetails[add2].push(Details(1, 0, initialInv, 0, 0, initialInv, 0, 0, 0, 0));\n        weekDetails[add3].push(Details(1, 0, initialInv, 0, 0, initialInv, 0, 0, 0, 0));\n        weekDetails[add4].push(Details(1, 0, initialInv, 0, 0, initialInv, 0, 0, 0, 0));\n\n\n        adds[1] = add1;\n        adds[2] = add2;\n        adds[3] = add3;\n        adds[4] = add4;\n\n\n        weekNo = 1;\n        maxWeeks = totalWeeks;\n        startWeek = start;\n        endWeek = end;\n        holdingCost = hCost;\n        lostSalesCost = lsCost;\n\n        deliveryLeadTime = dLeadTime;\n        orderLeadTime = oLeadTime;\n\n        inventory = [20, 50, 50, 50];\n        orderState = [0,0,0,0];\n        customerDemand = distribution;\n    }\n\n\n    function checkWeekEnd() private {\n\n        if(players[msg.sender].role == 1) {\n            weekDetails[msg.sender][weekNo].demand = customerDemand[weekNo%maxWeeks];\n        }\n\n        \n\n        if(orderState[0]==1 && orderState[1]==1 && orderState[2]==1 && orderState[3]==1 ) {\n            orderState = [0, 0, 0, 0];\n\n            updateDetails(1, adds[1], adds[2]);\n            updateDetails(2, adds[2], adds[3]);\n            updateDetails(3, adds[3], adds[4]);\n            updateDetails(4, adds[4], adds[4]);\n\n            weekNo++;\n            emit weekEnd();\n        }\n    }\n\n    function updateDetails (uint role, address add, address upAdd) public{\n        weekDetails[add][weekNo].inventoryPrevious = weekDetails[add][weekNo-1].inventoryLeft;\n        if(role != 4) {\n            weekDetails[add][weekNo].inventoryReceived = weekDetails[upAdd][weekNo-deliveryLeadTime].shippingQuantity;\n            if(weekNo-1-orderLeadTime >= 0)\n                weekDetails[upAdd][weekNo].demand = weekDetails[add][weekNo-1-orderLeadTime].orderPlaced;\n        }\n        else\n            if(int(weekNo-deliveryLeadTime-1) >= 0)\n                weekDetails[add][weekNo].inventoryReceived = weekDetails[add][weekNo-deliveryLeadTime-1].orderPlaced;\n\n        weekDetails[add][weekNo].inventoryPrevious = weekDetails[add][weekNo-1].inventoryLeft;\n\n        uint beginInventory = weekDetails[add][weekNo].inventoryReceived + weekDetails[add][weekNo].inventoryPrevious;\n\n        if(weekDetails[add][weekNo].demand < beginInventory)\n                weekDetails[add][weekNo].shippingQuantity = weekDetails[add][weekNo].demand;\n\n        else\n            weekDetails[add][weekNo].shippingQuantity = beginInventory;\n\n        weekDetails[add][weekNo].inventoryLeft = beginInventory - weekDetails[add][weekNo].shippingQuantity;\n\n        weekDetails[add][weekNo].expextedQuantity = weekDetails[add][weekNo-1].orderPlaced;\n\n        weekDetails[add][weekNo].lostSales = weekDetails[add][weekNo].demand - weekDetails[add][weekNo].shippingQuantity;\n\n        inventory[players[add].role-1] = weekDetails[add][weekNo].inventoryLeft;\n\n    }\n\n\n    function order(uint _amt) public {\n\n        require(weekNo<=maxWeeks);\n\n        weekDetails[msg.sender].push(Details(weekNo+1,0,0,0,0,0,0,0,0,0));\n        weekDetails[msg.sender][weekNo-1].orderPlaced = _amt;\n        weekDetails[msg.sender][weekNo-1].blockNumber = block.number;\n\n        orderState[players[msg.sender].role - 1] = 1;\n\n        checkWeekEnd(); \n    }\n}\n",
    "sourcePath": "/home/kenil/Desktop/SupplyChainDapp/SupplyChain/contracts/SupplyChain.sol",
    "compiler": {
        "name": "solc",
        "version": "0.5.8+commit.23d335f2.Emscripten.clang"
    },
    "schemaVersion": "3.0.17",
    "updatedAt": "2020-06-10T14:25:50.353Z",
    "devdoc": {
        "methods": {}
    },
    "userdoc": {
        "methods": {}
    }
}