{
  "contractName": "SupplyChain",
  "abi": [
    {
      "constant": true,
      "inputs": [
        {
          "name": "",
          "type": "address"
        }
      ],
      "name": "players",
      "outputs": [
        {
          "name": "role",
          "type": "uint256"
        },
        {
          "name": "inventory",
          "type": "uint256"
        },
        {
          "name": "orderReceived",
          "type": "uint256"
        },
        {
          "name": "orderSent",
          "type": "uint256"
        },
        {
          "name": "upstream",
          "type": "address"
        }
      ],
      "payable": false,
      "stateMutability": "view",
      "type": "function"
    },
    {
      "inputs": [],
      "payable": false,
      "stateMutability": "nonpayable",
      "type": "constructor"
    },
    {
      "anonymous": false,
      "inputs": [
        {
          "indexed": true,
          "name": "_orderAmount",
          "type": "uint256"
        }
      ],
      "name": "orderPlaced",
      "type": "event"
    },
    {
      "constant": false,
      "inputs": [
        {
          "name": "_amt",
          "type": "uint256"
        }
      ],
      "name": "order1",
      "outputs": [],
      "payable": false,
      "stateMutability": "nonpayable",
      "type": "function"
    }
  ],
  "bytecode": "0x608060405234801561001057600080fd5b5061001f61002460201b60201c565b61048a565b6040518060a0016040528060018152602001600a8152602001600581526020016000815260200173bf43c96c307b2c822fbc6ae3fc6cf203d1c8062d73ffffffffffffffffffffffffffffffffffffffff168152506000807313a72135525fe16dcecb0c0bf59f1f730af00e2773ffffffffffffffffffffffffffffffffffffffff1673ffffffffffffffffffffffffffffffffffffffff1681526020019081526020016000206000820151816000015560208201518160010155604082015181600201556060820151816003015560808201518160040160006101000a81548173ffffffffffffffffffffffffffffffffffffffff021916908373ffffffffffffffffffffffffffffffffffffffff1602179055509050506040518060a001604052806002815260200160148152602001600f81526020016000815260200173fe536dc6ef2167b9184946ff21d084e16e5ead6773ffffffffffffffffffffffffffffffffffffffff1681525060008073bf43c96c307b2c822fbc6ae3fc6cf203d1c8062d73ffffffffffffffffffffffffffffffffffffffff1673ffffffffffffffffffffffffffffffffffffffff1681526020019081526020016000206000820151816000015560208201518160010155604082015181600201556060820151816003015560808201518160040160006101000a81548173ffffffffffffffffffffffffffffffffffffffff021916908373ffffffffffffffffffffffffffffffffffffffff1602179055509050506040518060a0016040528060038152602001601e815260200160198152602001600081526020017399c230f42da0f5391cf4ea4dc4e2e6310efdadb973ffffffffffffffffffffffffffffffffffffffff1681525060008073fe536dc6ef2167b9184946ff21d084e16e5ead6773ffffffffffffffffffffffffffffffffffffffff1673ffffffffffffffffffffffffffffffffffffffff1681526020019081526020016000206000820151816000015560208201518160010155604082015181600201556060820151816003015560808201518160040160006101000a81548173ffffffffffffffffffffffffffffffffffffffff021916908373ffffffffffffffffffffffffffffffffffffffff1602179055509050506040518060a00160405280600481526020016028815260200160238152602001600081526020017399c230f42da0f5391cf4ea4dc4e2e6310efdadb973ffffffffffffffffffffffffffffffffffffffff168152506000807399c230f42da0f5391cf4ea4dc4e2e6310efdadb973ffffffffffffffffffffffffffffffffffffffff1673ffffffffffffffffffffffffffffffffffffffff1681526020019081526020016000206000820151816000015560208201518160010155604082015181600201556060820151816003015560808201518160040160006101000a81548173ffffffffffffffffffffffffffffffffffffffff021916908373ffffffffffffffffffffffffffffffffffffffff160217905550905050565b61023b806104996000396000f3fe608060405234801561001057600080fd5b50600436106100365760003560e01c80639aa9c7411461003b578063e2eb41ff14610069575b600080fd5b6100676004803603602081101561005157600080fd5b8101908080359060200190929190505050610109565b005b6100ab6004803603602081101561007f57600080fd5b81019080803573ffffffffffffffffffffffffffffffffffffffff1690602001909291905050506101b9565b604051808681526020018581526020018481526020018381526020018273ffffffffffffffffffffffffffffffffffffffff1673ffffffffffffffffffffffffffffffffffffffff1681526020019550505050505060405180910390f35b60008060003373ffffffffffffffffffffffffffffffffffffffff1673ffffffffffffffffffffffffffffffffffffffff16815260200190815260200160002060040160009054906101000a900473ffffffffffffffffffffffffffffffffffffffff169050816000808373ffffffffffffffffffffffffffffffffffffffff1673ffffffffffffffffffffffffffffffffffffffff168152602001908152602001600020600201819055505050565b60006020528060005260406000206000915090508060000154908060010154908060020154908060030154908060040160009054906101000a900473ffffffffffffffffffffffffffffffffffffffff1690508556fea165627a7a7230582007869439b3ecfcaaef2cb8f984d618fb50c0a583ded3260960fa59b63c7eea0e0029",
  "source": "\npragma solidity ^0.5.0;\n\ncontract SupplyChain {\n\n    struct Details {\n        uint role;\n        uint inventory;\n        uint orderReceived;\n        uint orderSent;\n        address upstream;\n    }\n\n    // Store accounts that have voted\n    mapping(address => Details) public players;\n\n    // voted event\n    event orderPlaced (\n        uint indexed _orderAmount\n    );\n\n    constructor () public {\n        setRoles();\n    }\n\n\n    function setRoles() private {\n        players[0x13A72135525FE16DcECb0C0BF59F1f730aF00e27] = Details(1, 10, 5, 0, 0xBF43C96c307B2c822fbc6Ae3fC6cf203D1c8062D);\n        players[0xBF43C96c307B2c822fbc6Ae3fC6cf203D1c8062D] = Details(2, 20, 15, 0, 0xFe536dc6ef2167B9184946FF21D084E16e5EAd67);\n        players[0xFe536dc6ef2167B9184946FF21D084E16e5EAd67] = Details(3, 30, 25, 0, 0x99C230F42Da0F5391cf4EA4dc4e2e6310eFDadB9);\n        players[0x99C230F42Da0F5391cf4EA4dc4e2e6310eFDadB9] = Details(4, 40, 35, 0, 0x99C230F42Da0F5391cf4EA4dc4e2e6310eFDadB9);\n    }\n\n    function order1(uint _amt) public {\n       address upAddreess = players[msg.sender].upstream;\n       players[upAddreess].orderReceived = _amt;\n //       emit orderPlaced(_orderAmount);\n    }\n\n    /*\n    function vote (uint _DetailsId) public {\n        // require that they haven't voted before\n        //require(!voters[msg.sender]);\n\n        // require a valid Details\n        //require(_DetailsId > 0 && _DetailsId <= DetailssCount);\n\n        // record that voter has voted\n        //voters[msg.sender] = true;\n\n        // update Details vote Count\n      //  Detailss[_DetailsId].voteCount ++;\n\n        // trigger voted event\n        //emit votedEvent(_DetailsId);\n    } */\n}\n",
  "sourcePath": "/home/kenil/Desktop/SupplyChainDapp/SupplyChain/contracts/SupplyChain.sol",
  "compiler": {
    "name": "solc",
    "version": "0.5.8+commit.23d335f2.Emscripten.clang"
  },
  "schemaVersion": "3.0.17",
  "updatedAt": "2019-11-07T13:06:52.921Z",
  "networkType": "ethereum",
  "devdoc": {
    "methods": {}
  },
  "userdoc": {
    "methods": {}
  }
}