{
  "contractName": "SupplyChain",
  "abi": [
    {
      "constant": true,
      "inputs": [
        {
          "name": "",
          "type": "uint256"
        }
      ],
      "name": "inventory",
      "outputs": [
        {
          "name": "",
          "type": "uint256"
        }
      ],
      "payable": false,
      "stateMutability": "view",
      "type": "function"
    },
    {
      "constant": true,
      "inputs": [
        {
          "name": "",
          "type": "address"
        }
      ],
      "name": "players",
      "outputs": [
        {
          "name": "role",
          "type": "uint256"
        },
        {
          "name": "inventory",
          "type": "uint256"
        },
        {
          "name": "orderReceived",
          "type": "uint256"
        },
        {
          "name": "orderSent",
          "type": "uint256"
        },
        {
          "name": "upstream",
          "type": "address"
        },
        {
          "name": "downstream",
          "type": "address"
        }
      ],
      "payable": false,
      "stateMutability": "view",
      "type": "function"
    },
    {
      "inputs": [],
      "payable": false,
      "stateMutability": "nonpayable",
      "type": "constructor"
    },
    {
      "anonymous": false,
      "inputs": [
        {
          "indexed": true,
          "name": "_orderAmount",
          "type": "uint256"
        }
      ],
      "name": "orderPlaced",
      "type": "event"
    },
    {
      "anonymous": false,
      "inputs": [
        {
          "indexed": true,
          "name": "_amt",
          "type": "uint256"
        }
      ],
      "name": "orderSent",
      "type": "event"
    },
    {
      "constant": false,
      "inputs": [
        {
          "name": "_amt",
          "type": "uint256"
        }
      ],
      "name": "orderUp",
      "outputs": [],
      "payable": false,
      "stateMutability": "nonpayable",
      "type": "function"
    },
    {
      "constant": false,
      "inputs": [
        {
          "name": "_amt",
          "type": "uint256"
        }
      ],
      "name": "fillStock",
      "outputs": [],
      "payable": false,
      "stateMutability": "nonpayable",
      "type": "function"
    },
    {
      "constant": false,
      "inputs": [
        {
          "name": "_amt",
          "type": "uint256"
        }
      ],
      "name": "clearStock",
      "outputs": [],
      "payable": false,
      "stateMutability": "nonpayable",
      "type": "function"
    },
    {
      "constant": false,
      "inputs": [
        {
          "name": "_amt",
          "type": "uint256"
        }
      ],
      "name": "orderDown",
      "outputs": [],
      "payable": false,
      "stateMutability": "nonpayable",
      "type": "function"
    }
  ],
  "bytecode": "0x608060405234801561001057600080fd5b5061001f61002460201b60201c565b610713565b6040518060c00160405280600181526020016064815260200161012c815260200160008152602001735a1f364c20e58ab62e61bbcb001061fc56396a7873ffffffffffffffffffffffffffffffffffffffff16815260200173d1fc4e50c387d71ca06ca7f121a3681d649303d573ffffffffffffffffffffffffffffffffffffffff1681525060008073d1fc4e50c387d71ca06ca7f121a3681d649303d573ffffffffffffffffffffffffffffffffffffffff1673ffffffffffffffffffffffffffffffffffffffff1681526020019081526020016000206000820151816000015560208201518160010155604082015181600201556060820151816003015560808201518160040160006101000a81548173ffffffffffffffffffffffffffffffffffffffff021916908373ffffffffffffffffffffffffffffffffffffffff16021790555060a08201518160050160006101000a81548173ffffffffffffffffffffffffffffffffffffffff021916908373ffffffffffffffffffffffffffffffffffffffff1602179055509050506040518060c001604052806002815260200160148152602001600f81526020016000815260200173c570ee4e9dfc403f8618147e6d6836d39774c73273ffffffffffffffffffffffffffffffffffffffff16815260200173d1fc4e50c387d71ca06ca7f121a3681d649303d573ffffffffffffffffffffffffffffffffffffffff16815250600080735a1f364c20e58ab62e61bbcb001061fc56396a7873ffffffffffffffffffffffffffffffffffffffff1673ffffffffffffffffffffffffffffffffffffffff1681526020019081526020016000206000820151816000015560208201518160010155604082015181600201556060820151816003015560808201518160040160006101000a81548173ffffffffffffffffffffffffffffffffffffffff021916908373ffffffffffffffffffffffffffffffffffffffff16021790555060a08201518160050160006101000a81548173ffffffffffffffffffffffffffffffffffffffff021916908373ffffffffffffffffffffffffffffffffffffffff1602179055509050506040518060c0016040528060038152602001601e8152602001601981526020016000815260200173b301540f9243ea80a2f3f47eb6839cf4e4341a2373ffffffffffffffffffffffffffffffffffffffff168152602001735a1f364c20e58ab62e61bbcb001061fc56396a7873ffffffffffffffffffffffffffffffffffffffff1681525060008073c570ee4e9dfc403f8618147e6d6836d39774c73273ffffffffffffffffffffffffffffffffffffffff1673ffffffffffffffffffffffffffffffffffffffff1681526020019081526020016000206000820151816000015560208201518160010155604082015181600201556060820151816003015560808201518160040160006101000a81548173ffffffffffffffffffffffffffffffffffffffff021916908373ffffffffffffffffffffffffffffffffffffffff16021790555060a08201518160050160006101000a81548173ffffffffffffffffffffffffffffffffffffffff021916908373ffffffffffffffffffffffffffffffffffffffff1602179055509050506040518060c001604052806004815260200160288152602001602381526020016000815260200173b301540f9243ea80a2f3f47eb6839cf4e4341a2373ffffffffffffffffffffffffffffffffffffffff16815260200173c570ee4e9dfc403f8618147e6d6836d39774c73273ffffffffffffffffffffffffffffffffffffffff1681525060008073b301540f9243ea80a2f3f47eb6839cf4e4341a2373ffffffffffffffffffffffffffffffffffffffff1673ffffffffffffffffffffffffffffffffffffffff1681526020019081526020016000206000820151816000015560208201518160010155604082015181600201556060820151816003015560808201518160040160006101000a81548173ffffffffffffffffffffffffffffffffffffffff021916908373ffffffffffffffffffffffffffffffffffffffff16021790555060a08201518160050160006101000a81548173ffffffffffffffffffffffffffffffffffffffff021916908373ffffffffffffffffffffffffffffffffffffffff1602179055509050506040518060800160405280606460ff168152602001601460ff168152602001601e60ff168152602001602860ff1681525060019060046106a69291906106a9565b50565b82600481019282156106dd579160200282015b828111156106dc578251829060ff169055916020019190600101906106bc565b5b5090506106ea91906106ee565b5090565b61071091905b8082111561070c5760008160009055506001016106f4565b5090565b90565b610930806107226000396000f3fe608060405234801561001057600080fd5b50600436106100625760003560e01c80634272ee181461006757806358efcaf4146100a95780636ee9af40146100d7578063a0d649b614610105578063c093722814610133578063e2eb41ff14610161575b600080fd5b6100936004803603602081101561007d57600080fd5b8101908080359060200190929190505050610234565b6040518082815260200191505060405180910390f35b6100d5600480360360208110156100bf57600080fd5b810190808035906020019092919050505061024c565b005b610103600480360360208110156100ed57600080fd5b8101908080359060200190929190505050610529565b005b6101316004803603602081101561011b57600080fd5b81019080803590602001909291905050506105e2565b005b61015f6004803603602081101561014957600080fd5b81019080803590602001909291905050506107aa565b005b6101a36004803603602081101561017757600080fd5b81019080803573ffffffffffffffffffffffffffffffffffffffff169060200190929190505050610888565b604051808781526020018681526020018581526020018481526020018373ffffffffffffffffffffffffffffffffffffffff1673ffffffffffffffffffffffffffffffffffffffff1681526020018273ffffffffffffffffffffffffffffffffffffffff1673ffffffffffffffffffffffffffffffffffffffff168152602001965050505050505060405180910390f35b6001816004811061024157fe5b016000915090505481565b6000803373ffffffffffffffffffffffffffffffffffffffff1673ffffffffffffffffffffffffffffffffffffffff1681526020019081526020016000206001015481111580156102de57506000803373ffffffffffffffffffffffffffffffffffffffff1673ffffffffffffffffffffffffffffffffffffffff168152602001908152602001600020600201548111155b6102e757600080fd5b60008060003373ffffffffffffffffffffffffffffffffffffffff1673ffffffffffffffffffffffffffffffffffffffff16815260200190815260200160002060050160009054906101000a900473ffffffffffffffffffffffffffffffffffffffff169050816000808373ffffffffffffffffffffffffffffffffffffffff1673ffffffffffffffffffffffffffffffffffffffff16815260200190815260200160002060010160008282540192505081905550816001806000808573ffffffffffffffffffffffffffffffffffffffff1673ffffffffffffffffffffffffffffffffffffffff1681526020019081526020016000206000015403600481106103ed57fe5b0160008282540192505081905550816000803373ffffffffffffffffffffffffffffffffffffffff1673ffffffffffffffffffffffffffffffffffffffff16815260200190815260200160002060010160008282540392505081905550816001806000803373ffffffffffffffffffffffffffffffffffffffff1673ffffffffffffffffffffffffffffffffffffffff16815260200190815260200160002060000154036004811061049b57fe5b0160008282540392505081905550816000803373ffffffffffffffffffffffffffffffffffffffff1673ffffffffffffffffffffffffffffffffffffffff16815260200190815260200160002060020160008282540392505081905550817f0e213bdc406c034352c187ea338f408de37e07efafa09364c50f247f0cb0c28760405160405180910390a25050565b60008060003373ffffffffffffffffffffffffffffffffffffffff1673ffffffffffffffffffffffffffffffffffffffff16815260200190815260200160002060040160009054906101000a900473ffffffffffffffffffffffffffffffffffffffff169050816000808373ffffffffffffffffffffffffffffffffffffffff1673ffffffffffffffffffffffffffffffffffffffff168152602001908152602001600020600201600082825401925050819055505050565b6000803373ffffffffffffffffffffffffffffffffffffffff1673ffffffffffffffffffffffffffffffffffffffff16815260200190815260200160002060010154811115801561067457506000803373ffffffffffffffffffffffffffffffffffffffff1673ffffffffffffffffffffffffffffffffffffffff168152602001908152602001600020600201548111155b61067d57600080fd5b806000803373ffffffffffffffffffffffffffffffffffffffff1673ffffffffffffffffffffffffffffffffffffffff16815260200190815260200160002060010160008282540392505081905550806001806000803373ffffffffffffffffffffffffffffffffffffffff1673ffffffffffffffffffffffffffffffffffffffff16815260200190815260200160002060000154036004811061071d57fe5b0160008282540392505081905550806000803373ffffffffffffffffffffffffffffffffffffffff1673ffffffffffffffffffffffffffffffffffffffff16815260200190815260200160002060020160008282540392505081905550807f0e213bdc406c034352c187ea338f408de37e07efafa09364c50f247f0cb0c28760405160405180910390a250565b806000803373ffffffffffffffffffffffffffffffffffffffff1673ffffffffffffffffffffffffffffffffffffffff16815260200190815260200160002060010160008282540192505081905550806001806000803373ffffffffffffffffffffffffffffffffffffffff1673ffffffffffffffffffffffffffffffffffffffff16815260200190815260200160002060000154036004811061084a57fe5b0160008282540192505081905550807f0e213bdc406c034352c187ea338f408de37e07efafa09364c50f247f0cb0c28760405160405180910390a250565b60006020528060005260406000206000915090508060000154908060010154908060020154908060030154908060040160009054906101000a900473ffffffffffffffffffffffffffffffffffffffff16908060050160009054906101000a900473ffffffffffffffffffffffffffffffffffffffff1690508656fea165627a7a723058205421cdb8b2b5b930d65c409705c42c45b00b46f7432913f4fb1c47ad53b884ed0029",
  "source": "\npragma solidity ^0.5.0;\n\ncontract SupplyChain {\n\n    struct Details {\n        uint role;\n        uint inventory;\n        uint orderReceived;\n        uint orderSent;\n        address upstream;\n        address downstream;\n    }\n\n    // Store accounts that have voted\n    mapping(address => Details) public players;\n\n    uint[4] public inventory;\n\n    // voted event\n    event orderPlaced (\n        uint indexed _orderAmount\n    );\n\n    event orderSent (\n        uint indexed _amt\n    );\n\n    constructor () public {\n        setRoles();\n    }\n\n\n    function setRoles() private {\n        players[0xD1Fc4e50C387D71Ca06cA7f121a3681D649303d5] = Details(1, 100, 300, 0, 0x5a1F364C20E58aB62E61bbCB001061fc56396A78, 0xD1Fc4e50C387D71Ca06cA7f121a3681D649303d5);\n        players[0x5a1F364C20E58aB62E61bbCB001061fc56396A78] = Details(2, 20, 15, 0, 0xC570ee4e9dFc403f8618147e6D6836d39774C732, 0xD1Fc4e50C387D71Ca06cA7f121a3681D649303d5);\n        players[0xC570ee4e9dFc403f8618147e6D6836d39774C732] = Details(3, 30, 25, 0, 0xb301540f9243eA80A2f3F47eb6839CF4E4341a23, 0x5a1F364C20E58aB62E61bbCB001061fc56396A78);\n        players[0xb301540f9243eA80A2f3F47eb6839CF4E4341a23] = Details(4, 40, 35, 0, 0xb301540f9243eA80A2f3F47eb6839CF4E4341a23, 0xC570ee4e9dFc403f8618147e6D6836d39774C732);\n\n        inventory = [100, 20, 30, 40];\n    }\n\n    function orderUp(uint _amt) public {\n       address upAddreess = players[msg.sender].upstream;\n       players[upAddreess].orderReceived += _amt;\n //       emit orderPlaced(_orderAmount);\n    }\n\n    function fillStock(uint _amt) public {\n        players[msg.sender].inventory += _amt;\n        inventory[players[msg.sender].role - 1] += _amt;\n        emit orderSent(_amt);\n    }\n\n    function clearStock(uint _amt) public {\n        require(_amt <= players[msg.sender].inventory && _amt<= players[msg.sender].orderReceived);\n        players[msg.sender].inventory -= _amt;\n        inventory[players[msg.sender].role-1] -= _amt;\n\n        players[msg.sender].orderReceived -= _amt;\n        emit orderSent(_amt);\n    }\n\n    function orderDown(uint _amt) public {\n\n        require(_amt <= players[msg.sender].inventory && _amt<= players[msg.sender].orderReceived);\n\n        address downAddress = players[msg.sender].downstream;\n        players[downAddress].inventory += _amt;\n        inventory[players[downAddress].role-1] += _amt;\n\n        players[msg.sender].inventory -= _amt;\n        inventory[players[msg.sender].role-1] -= _amt;\n\n        players[msg.sender].orderReceived -= _amt;\n\n        emit orderSent(_amt);\n    }\n\n}\n",
  "sourcePath": "/home/kenil/Desktop/SupplyChainDapp/SupplyChain/contracts/SupplyChain.sol",
  "compiler": {
    "name": "solc",
    "version": "0.5.8+commit.23d335f2.Emscripten.clang"
  },
  "schemaVersion": "3.0.17",
  "updatedAt": "2019-11-22T01:17:20.193Z",
  "devdoc": {
    "methods": {}
  },
  "userdoc": {
    "methods": {}
  }
}