{
  "contractName": "SupplyChain",
  "abi": [
    {
      "constant": true,
      "inputs": [
        {
          "name": "",
          "type": "uint256"
        }
      ],
      "name": "orderState",
      "outputs": [
        {
          "name": "",
          "type": "uint256"
        }
      ],
      "payable": false,
      "stateMutability": "view",
      "type": "function"
    },
    {
      "constant": true,
      "inputs": [
        {
          "name": "",
          "type": "uint256"
        }
      ],
      "name": "inventory",
      "outputs": [
        {
          "name": "",
          "type": "uint256"
        }
      ],
      "payable": false,
      "stateMutability": "view",
      "type": "function"
    },
    {
      "constant": true,
      "inputs": [
        {
          "name": "",
          "type": "address"
        },
        {
          "name": "",
          "type": "uint256"
        }
      ],
      "name": "weekDetails",
      "outputs": [
        {
          "name": "inventoryReceived",
          "type": "uint256"
        },
        {
          "name": "inventoryPrevious",
          "type": "uint256"
        },
        {
          "name": "demand",
          "type": "uint256"
        },
        {
          "name": "shippingQuantity",
          "type": "uint256"
        },
        {
          "name": "orderPlaced",
          "type": "uint256"
        },
        {
          "name": "inventoryLeft",
          "type": "uint256"
        }
      ],
      "payable": false,
      "stateMutability": "view",
      "type": "function"
    },
    {
      "constant": true,
      "inputs": [],
      "name": "weekNo",
      "outputs": [
        {
          "name": "",
          "type": "uint256"
        }
      ],
      "payable": false,
      "stateMutability": "view",
      "type": "function"
    },
    {
      "constant": true,
      "inputs": [
        {
          "name": "",
          "type": "address"
        }
      ],
      "name": "players",
      "outputs": [
        {
          "name": "role",
          "type": "uint256"
        },
        {
          "name": "upstream",
          "type": "address"
        },
        {
          "name": "downstream",
          "type": "address"
        }
      ],
      "payable": false,
      "stateMutability": "view",
      "type": "function"
    },
    {
      "inputs": [],
      "payable": false,
      "stateMutability": "nonpayable",
      "type": "constructor"
    },
    {
      "anonymous": false,
      "inputs": [],
      "name": "weekEnd",
      "type": "event"
    },
    {
      "constant": false,
      "inputs": [
        {
          "name": "_amt",
          "type": "uint256"
        }
      ],
      "name": "order",
      "outputs": [],
      "payable": false,
      "stateMutability": "nonpayable",
      "type": "function"
    }
  ],
  "bytecode": "0x60806040523480156200001157600080fd5b50620000226200002860201b60201c565b62000c0d565b604051806060016040528060018152602001735a528ef100931de8dd12c08d09877ac038af04eb73ffffffffffffffffffffffffffffffffffffffff16815260200173b92d238ea91ea398cdc2b885b8f4395dd5c4bf3473ffffffffffffffffffffffffffffffffffffffff16815250600a600073b92d238ea91ea398cdc2b885b8f4395dd5c4bf3473ffffffffffffffffffffffffffffffffffffffff1673ffffffffffffffffffffffffffffffffffffffff1681526020019081526020016000206000820151816000015560208201518160010160006101000a81548173ffffffffffffffffffffffffffffffffffffffff021916908373ffffffffffffffffffffffffffffffffffffffff16021790555060408201518160020160006101000a81548173ffffffffffffffffffffffffffffffffffffffff021916908373ffffffffffffffffffffffffffffffffffffffff16021790555090505060405180606001604052806002815260200173eb01d15d4c7b3c75bb801e8ffde842e3a5e4d94c73ffffffffffffffffffffffffffffffffffffffff16815260200173b92d238ea91ea398cdc2b885b8f4395dd5c4bf3473ffffffffffffffffffffffffffffffffffffffff16815250600a6000735a528ef100931de8dd12c08d09877ac038af04eb73ffffffffffffffffffffffffffffffffffffffff1673ffffffffffffffffffffffffffffffffffffffff1681526020019081526020016000206000820151816000015560208201518160010160006101000a81548173ffffffffffffffffffffffffffffffffffffffff021916908373ffffffffffffffffffffffffffffffffffffffff16021790555060408201518160020160006101000a81548173ffffffffffffffffffffffffffffffffffffffff021916908373ffffffffffffffffffffffffffffffffffffffff16021790555090505060405180606001604052806003815260200173777b061fb4c1eb1b5f745ebe45e0f462f1e298f873ffffffffffffffffffffffffffffffffffffffff168152602001735a528ef100931de8dd12c08d09877ac038af04eb73ffffffffffffffffffffffffffffffffffffffff16815250600a600073eb01d15d4c7b3c75bb801e8ffde842e3a5e4d94c73ffffffffffffffffffffffffffffffffffffffff1673ffffffffffffffffffffffffffffffffffffffff1681526020019081526020016000206000820151816000015560208201518160010160006101000a81548173ffffffffffffffffffffffffffffffffffffffff021916908373ffffffffffffffffffffffffffffffffffffffff16021790555060408201518160020160006101000a81548173ffffffffffffffffffffffffffffffffffffffff021916908373ffffffffffffffffffffffffffffffffffffffff16021790555090505060405180606001604052806004815260200173777b061fb4c1eb1b5f745ebe45e0f462f1e298f873ffffffffffffffffffffffffffffffffffffffff16815260200173eb01d15d4c7b3c75bb801e8ffde842e3a5e4d94c73ffffffffffffffffffffffffffffffffffffffff16815250600a600073777b061fb4c1eb1b5f745ebe45e0f462f1e298f873ffffffffffffffffffffffffffffffffffffffff1673ffffffffffffffffffffffffffffffffffffffff1681526020019081526020016000206000820151816000015560208201518160010160006101000a81548173ffffffffffffffffffffffffffffffffffffffff021916908373ffffffffffffffffffffffffffffffffffffffff16021790555060408201518160020160006101000a81548173ffffffffffffffffffffffffffffffffffffffff021916908373ffffffffffffffffffffffffffffffffffffffff160217905550905050600b600073b92d238ea91ea398cdc2b885b8f4395dd5c4bf3473ffffffffffffffffffffffffffffffffffffffff1673ffffffffffffffffffffffffffffffffffffffff1681526020019081526020016000206040518060c001604052806000815260200160288152602001601481526020016000815260200160008152602001602881525090806001815401808255809150509060018203906000526020600020906006020160009091929091909150600082015181600001556020820151816001015560408201518160020155606082015181600301556080820151816004015560a08201518160050155505050600b6000735a528ef100931de8dd12c08d09877ac038af04eb73ffffffffffffffffffffffffffffffffffffffff1673ffffffffffffffffffffffffffffffffffffffff1681526020019081526020016000206040518060c001604052806000815260200160288152602001600081526020016000815260200160008152602001602881525090806001815401808255809150509060018203906000526020600020906006020160009091929091909150600082015181600001556020820151816001015560408201518160020155606082015181600301556080820151816004015560a08201518160050155505050600b600073eb01d15d4c7b3c75bb801e8ffde842e3a5e4d94c73ffffffffffffffffffffffffffffffffffffffff1673ffffffffffffffffffffffffffffffffffffffff1681526020019081526020016000206040518060c001604052806000815260200160288152602001600081526020016000815260200160008152602001602881525090806001815401808255809150509060018203906000526020600020906006020160009091929091909150600082015181600001556020820151816001015560408201518160020155606082015181600301556080820151816004015560a08201518160050155505050600b600073777b061fb4c1eb1b5f745ebe45e0f462f1e298f873ffffffffffffffffffffffffffffffffffffffff1673ffffffffffffffffffffffffffffffffffffffff1681526020019081526020016000206040518060c001604052806000815260200160288152602001600081526020016000815260200160008152602001602881525090806001815401808255809150509060018203906000526020600020906006020160009091929091909150600082015181600001556020820151816001015560408201518160020155606082015181600301556080820151816004015560a08201518160050155505050600b600073b92d238ea91ea398cdc2b885b8f4395dd5c4bf3473ffffffffffffffffffffffffffffffffffffffff1673ffffffffffffffffffffffffffffffffffffffff1681526020019081526020016000206040518060c001604052806000815260200160288152602001600081526020016000815260200160008152602001602881525090806001815401808255809150509060018203906000526020600020906006020160009091929091909150600082015181600001556020820151816001015560408201518160020155606082015181600301556080820151816004015560a082015181600501555050506064444260405160200180838152602001828152602001925050506040516020818303038152906040528051906020012060001c8162000a8c57fe5b06600b600073b92d238ea91ea398cdc2b885b8f4395dd5c4bf3473ffffffffffffffffffffffffffffffffffffffff1673ffffffffffffffffffffffffffffffffffffffff16815260200190815260200160002060018154811062000aed57fe5b9060005260206000209060060201600201819055506001600081905550600180819055506040518060800160405280602860ff168152602001602860ff168152602001602860ff168152602001602860ff16815250600690600462000b5492919062000b9b565b506040518060800160405280600060ff168152602001600060ff168152602001600060ff168152602001600060ff16815250600290600462000b9892919062000b9b565b50565b826004810192821562000bd2579160200282015b8281111562000bd1578251829060ff1690559160200191906001019062000baf565b5b50905062000be1919062000be5565b5090565b62000c0a91905b8082111562000c0657600081600090555060010162000bec565b5090565b90565b6112378062000c1d6000396000f3fe608060405234801561001057600080fd5b50600436106100625760003560e01c806321603f43146100675780634077c33c146100955780634272ee18146100d7578063567802da14610119578063de0ac1591461019e578063e2eb41ff146101bc575b600080fd5b6100936004803603602081101561007d57600080fd5b810190808035906020019092919050505061027a565b005b6100c1600480360360208110156100ab57600080fd5b8101908080359060200190929190505050610df9565b6040518082815260200191505060405180910390f35b610103600480360360208110156100ed57600080fd5b8101908080359060200190929190505050610e11565b6040518082815260200191505060405180910390f35b6101656004803603604081101561012f57600080fd5b81019080803573ffffffffffffffffffffffffffffffffffffffff16906020019092919080359060200190929190505050610e29565b60405180878152602001868152602001858152602001848152602001838152602001828152602001965050505050505060405180910390f35b6101a6610e7f565b6040518082815260200191505060405180910390f35b6101fe600480360360208110156101d257600080fd5b81019080803573ffffffffffffffffffffffffffffffffffffffff169060200190929190505050610e85565b604051808481526020018373ffffffffffffffffffffffffffffffffffffffff1673ffffffffffffffffffffffffffffffffffffffff1681526020018273ffffffffffffffffffffffffffffffffffffffff1673ffffffffffffffffffffffffffffffffffffffff168152602001935050505060405180910390f35b6000600a60003373ffffffffffffffffffffffffffffffffffffffff1673ffffffffffffffffffffffffffffffffffffffff16815260200190815260200160002060010160009054906101000a900473ffffffffffffffffffffffffffffffffffffffff1690506000600a60003373ffffffffffffffffffffffffffffffffffffffff1673ffffffffffffffffffffffffffffffffffffffff16815260200190815260200160002060020160009054906101000a900473ffffffffffffffffffffffffffffffffffffffff169050600160005401600b60003373ffffffffffffffffffffffffffffffffffffffff1673ffffffffffffffffffffffffffffffffffffffff16815260200190815260200160002080549050101561047457600b60003373ffffffffffffffffffffffffffffffffffffffff1673ffffffffffffffffffffffffffffffffffffffff1681526020019081526020016000206040518060c001604052806000815260200160008152602001600081526020016000815260200160008152602001600081525090806001815401808255809150509060018203906000526020600020906006020160009091929091909150600082015181600001556020820151816001015560408201518160020155606082015181600301556080820151816004015560a082015181600501555050505b600160005401600b60008473ffffffffffffffffffffffffffffffffffffffff1673ffffffffffffffffffffffffffffffffffffffff1681526020019081526020016000208054905010156105a057600b60008373ffffffffffffffffffffffffffffffffffffffff1673ffffffffffffffffffffffffffffffffffffffff1681526020019081526020016000206040518060c001604052806000815260200160008152602001600081526020016000815260200160008152602001600081525090806001815401808255809150509060018203906000526020600020906006020160009091929091909150600082015181600001556020820151816001015560408201518160020155606082015181600301556080820151816004015560a082015181600501555050505b6004600a60003373ffffffffffffffffffffffffffffffffffffffff1673ffffffffffffffffffffffffffffffffffffffff1681526020019081526020016000206000015414156106b357600b60008373ffffffffffffffffffffffffffffffffffffffff1673ffffffffffffffffffffffffffffffffffffffff168152602001908152602001600020600154600054038154811061063b57fe5b906000526020600020906006020160040154600b60003373ffffffffffffffffffffffffffffffffffffffff1673ffffffffffffffffffffffffffffffffffffffff1681526020019081526020016000206000548154811061069957fe5b906000526020600020906006020160000181905550610777565b600b60008373ffffffffffffffffffffffffffffffffffffffff1673ffffffffffffffffffffffffffffffffffffffff168152602001908152602001600020600154600054038154811061070357fe5b906000526020600020906006020160030154600b60003373ffffffffffffffffffffffffffffffffffffffff1673ffffffffffffffffffffffffffffffffffffffff1681526020019081526020016000206000548154811061076157fe5b9060005260206000209060060201600001819055505b600b60003373ffffffffffffffffffffffffffffffffffffffff1673ffffffffffffffffffffffffffffffffffffffff168152602001908152602001600020600160005403815481106107c657fe5b906000526020600020906006020160050154600b60003373ffffffffffffffffffffffffffffffffffffffff1673ffffffffffffffffffffffffffffffffffffffff1681526020019081526020016000206000548154811061082457fe5b9060005260206000209060060201600101819055506000600b60003373ffffffffffffffffffffffffffffffffffffffff1673ffffffffffffffffffffffffffffffffffffffff1681526020019081526020016000206000548154811061088757fe5b906000526020600020906006020160010154600b60003373ffffffffffffffffffffffffffffffffffffffff1673ffffffffffffffffffffffffffffffffffffffff168152602001908152602001600020600054815481106108e557fe5b9060005260206000209060060201600001540190506004600a60003373ffffffffffffffffffffffffffffffffffffffff1673ffffffffffffffffffffffffffffffffffffffff1681526020019081526020016000206000015414610a80576000600154600054031115610a1b57600b60003373ffffffffffffffffffffffffffffffffffffffff1673ffffffffffffffffffffffffffffffffffffffff16815260200190815260200160002060015460005403815481106109a357fe5b906000526020600020906006020160040154600b60008573ffffffffffffffffffffffffffffffffffffffff1673ffffffffffffffffffffffffffffffffffffffff16815260200190815260200160002060005481548110610a0157fe5b906000526020600020906006020160020181905550610a7f565b6000600b60008573ffffffffffffffffffffffffffffffffffffffff1673ffffffffffffffffffffffffffffffffffffffff16815260200190815260200160002060005481548110610a6957fe5b9060005260206000209060060201600201819055505b5b80600b60003373ffffffffffffffffffffffffffffffffffffffff1673ffffffffffffffffffffffffffffffffffffffff16815260200190815260200160002060005481548110610acd57fe5b9060005260206000209060060201600201541015610c6a57600b60003373ffffffffffffffffffffffffffffffffffffffff1673ffffffffffffffffffffffffffffffffffffffff16815260200190815260200160002060005481548110610b3157fe5b906000526020600020906006020160020154600b60003373ffffffffffffffffffffffffffffffffffffffff1673ffffffffffffffffffffffffffffffffffffffff16815260200190815260200160002060005481548110610b8f57fe5b906000526020600020906006020160030181905550600b60003373ffffffffffffffffffffffffffffffffffffffff1673ffffffffffffffffffffffffffffffffffffffff16815260200190815260200160002060005481548110610bf057fe5b9060005260206000209060060201600201548103600b60003373ffffffffffffffffffffffffffffffffffffffff1673ffffffffffffffffffffffffffffffffffffffff16815260200190815260200160002060005481548110610c5057fe5b906000526020600020906006020160050181905550610d30565b80600b60003373ffffffffffffffffffffffffffffffffffffffff1673ffffffffffffffffffffffffffffffffffffffff16815260200190815260200160002060005481548110610cb757fe5b9060005260206000209060060201600301819055506000600b60003373ffffffffffffffffffffffffffffffffffffffff1673ffffffffffffffffffffffffffffffffffffffff16815260200190815260200160002060005481548110610d1a57fe5b9060005260206000209060060201600501819055505b83600b60003373ffffffffffffffffffffffffffffffffffffffff1673ffffffffffffffffffffffffffffffffffffffff16815260200190815260200160002060005481548110610d7d57fe5b906000526020600020906006020160040181905550600160026001600a60003373ffffffffffffffffffffffffffffffffffffffff1673ffffffffffffffffffffffffffffffffffffffff168152602001908152602001600020600001540360048110610de657fe5b0181905550610df3610eef565b50505050565b60028160048110610e0657fe5b016000915090505481565b60068160048110610e1e57fe5b016000915090505481565b600b6020528160005260406000208181548110610e4257fe5b9060005260206000209060060201600091509150508060000154908060010154908060020154908060030154908060040154908060050154905086565b60005481565b600a6020528060005260406000206000915090508060000154908060010160009054906101000a900473ffffffffffffffffffffffffffffffffffffffff16908060020160009054906101000a900473ffffffffffffffffffffffffffffffffffffffff16905083565b6001600a60003373ffffffffffffffffffffffffffffffffffffffff1673ffffffffffffffffffffffffffffffffffffffff1681526020019081526020016000206000015414156110b757600b60003373ffffffffffffffffffffffffffffffffffffffff1673ffffffffffffffffffffffffffffffffffffffff1681526020019081526020016000206040518060c001604052806000815260200160008152602001600081526020016000815260200160008152602001600081525090806001815401808255809150509060018203906000526020600020906006020160009091929091909150600082015181600001556020820151816001015560408201518160020155606082015181600301556080820151816004015560a082015181600501555050506064444260405160200180838152602001828152602001925050506040516020818303038152906040528051906020012060001c8161105157fe5b06600b60003373ffffffffffffffffffffffffffffffffffffffff1673ffffffffffffffffffffffffffffffffffffffff168152602001908152602001600020600160005401815481106110a157fe5b9060005260206000209060060201600201819055505b600160026000600481106110c757fe5b01541480156110e55750600160026001600481106110e157fe5b0154145b80156110ff57506001600280600481106110fb57fe5b0154145b801561111a57506001600260036004811061111657fe5b0154145b1561119f576040518060800160405280600060ff168152602001600060ff168152602001600060ff168152602001600060ff1681525060029060046111609291906111a1565b5060008081548092919060010191905055507f68e88fafe1fbb7460dc442ab8fb3c91cfd6aaa447128ffb4bc091eb739260f5360405160405180910390a15b565b82600481019282156111d5579160200282015b828111156111d4578251829060ff169055916020019190600101906111b4565b5b5090506111e291906111e6565b5090565b61120891905b808211156112045760008160009055506001016111ec565b5090565b9056fea165627a7a72305820a5e94aa50a13359e6fe54c3631ba9cc473297f32597ebd59056ec63863316c580029",
  "source": "\npragma solidity ^0.5.0;\n\ncontract SupplyChain {\n\n    struct Details {\n        uint inventoryReceived;\n        uint inventoryPrevious;\n        uint demand;\n        uint shippingQuantity;\n        uint orderPlaced;\n        uint inventoryLeft;         \n        }\n\n    struct Player {\n        uint role;\n        address upstream;\n        address downstream;\n    }\n\n    uint public weekNo;\n    uint private leadTime;\n    uint[4] public orderState;\n    uint[4] public inventory;\n\n    mapping(address => Player) public players;\n    mapping(address => Details[]) public weekDetails;\n\n    \n\n    event weekEnd (\n    );\n\n\n\n    constructor () public {\n        setRoles();\n    }\n\n\n    function setRoles() private {\n        players[0xB92D238ea91Ea398CdC2b885B8F4395Dd5C4Bf34] = Player(1, 0x5a528ef100931de8dd12C08d09877ac038AF04eb, 0xB92D238ea91Ea398CdC2b885B8F4395Dd5C4Bf34);\n        players[0x5a528ef100931de8dd12C08d09877ac038AF04eb] = Player(2, 0xeb01d15D4C7B3c75bB801E8fFDE842E3a5e4D94C, 0xB92D238ea91Ea398CdC2b885B8F4395Dd5C4Bf34);\n        players[0xeb01d15D4C7B3c75bB801E8fFDE842E3a5e4D94C] = Player(3,0x777B061fB4C1eB1b5F745eBe45e0f462F1e298F8, 0x5a528ef100931de8dd12C08d09877ac038AF04eb);\n        players[0x777B061fB4C1eB1b5F745eBe45e0f462F1e298F8] = Player(4, 0x777B061fB4C1eB1b5F745eBe45e0f462F1e298F8, 0xeb01d15D4C7B3c75bB801E8fFDE842E3a5e4D94C);\n\n        weekDetails[0xB92D238ea91Ea398CdC2b885B8F4395Dd5C4Bf34].push(Details(0, 40, 20, 0, 0, 40));\n        weekDetails[0x5a528ef100931de8dd12C08d09877ac038AF04eb].push(Details(0, 40, 0, 0, 0, 40));\n        weekDetails[0xeb01d15D4C7B3c75bB801E8fFDE842E3a5e4D94C].push(Details(0, 40, 0, 0, 0, 40));\n        weekDetails[0x777B061fB4C1eB1b5F745eBe45e0f462F1e298F8].push(Details(0, 40, 0, 0, 0, 40));\n\n        weekDetails[0xB92D238ea91Ea398CdC2b885B8F4395Dd5C4Bf34].push(Details(0, 40, 0, 0, 0, 40));\n        weekDetails[0xB92D238ea91Ea398CdC2b885B8F4395Dd5C4Bf34][1].demand = (uint(keccak256(abi.encode(block.difficulty, block.timestamp)))%100);        \n\n        weekNo = 1;\n        leadTime = 1;\n        inventory = [40, 40, 40, 40];\n        orderState = [0,0,0,0];\n    }\n\n\n    function checkWeekEnd() private {\n\n        if(players[msg.sender].role == 1) {\n            weekDetails[msg.sender].push(Details(0,0,0,0,0,0));\n            weekDetails[msg.sender][weekNo+1].demand = (uint(keccak256(abi.encode(block.difficulty, block.timestamp)))%100);\n        }\n\n        if(orderState[0]==1 && orderState[1]==1 && orderState[2]==1 && orderState[3]==1 ) {\n            orderState = [0, 0, 0, 0];\n            weekNo++;\n            emit weekEnd();\n        }\n    }\n\n    function order(uint _amt) public {\n        address upAddreess = players[msg.sender].upstream;\n        address downAddreess = players[msg.sender].downstream;\n\n        if(weekDetails[msg.sender].length < weekNo+1)\n            weekDetails[msg.sender].push(Details(0,0,0,0,0,0));\n        if(weekDetails[upAddreess].length < weekNo+1)\n            weekDetails[upAddreess].push(Details(0,0,0,0,0,0));\n\n\n        if(players[msg.sender].role == 4)\n            weekDetails[msg.sender][weekNo].inventoryReceived = weekDetails[upAddreess][weekNo-leadTime].orderPlaced;\n        else\n            weekDetails[msg.sender][weekNo].inventoryReceived = weekDetails[upAddreess][weekNo-leadTime].shippingQuantity;\n        \n        weekDetails[msg.sender][weekNo].inventoryPrevious = weekDetails[msg.sender][weekNo-1].inventoryLeft;\n\n        uint totalInventory = weekDetails[msg.sender][weekNo].inventoryReceived + weekDetails[msg.sender][weekNo].inventoryPrevious;\n\n        if (players[msg.sender].role != 4) {\n            if(weekNo-leadTime > 0)\n                weekDetails[upAddreess][weekNo].demand = weekDetails[msg.sender][weekNo-leadTime].orderPlaced;\n            else\n                weekDetails[upAddreess][weekNo].demand = 0;\n        }\n\n        if(weekDetails[msg.sender][weekNo].demand < totalInventory) {\n            weekDetails[msg.sender][weekNo].shippingQuantity = weekDetails[msg.sender][weekNo].demand;\n            weekDetails[msg.sender][weekNo].inventoryLeft = totalInventory - weekDetails[msg.sender][weekNo].demand;\n        }\n        else {\n            weekDetails[msg.sender][weekNo].shippingQuantity = totalInventory;\n            weekDetails[msg.sender][weekNo].inventoryLeft = 0;\n        }\n\n\n        weekDetails[msg.sender][weekNo].orderPlaced = _amt;\n\n        orderState[players[msg.sender].role - 1] = 1;\n\n        checkWeekEnd(); \n    }\n\n /*   function fillStock(uint _amt) public {\n\n        require(players[msg.sender].role==4);\n        weekDetails[msg.sender][weekNo].inventoryPrevious = weekDetails[msg.sender][weekNo-1].inventoryLeft;\n        weekDetails[msg.sender][weekNo].inventoryReceived = weekDetails[msg.sender][weekNo-leadTime].orderPlaced;\n        weekDetails[msg.sender][weekNo].orderPlaced = _amt;\n//        players[msg.sender].inventory += _amt;\n//        inventory[players[msg.sender].role - 1] += _amt;\n//        emit orderSent(_amt);\n    }\n\n/*function clearStock(uint _amt) public {\n       // require(_amt <= players[msg.sender].inventory && _amt<= players[msg.sender].orderReceived);\n        players[msg.sender].inventory -= _amt;\n        inventory[players[msg.sender].role-1] -= _amt;\n\n        players[msg.sender].orderReceived -= _amt;\n        //emit orderSent(_amt);\n    }\n\n\n    function orderDown(uint _amt) public {\n\n        require(_amt <= players[msg.sender].inventory && _amt<= players[msg.sender].orderReceived);\n\n        address downAddress = players[msg.sender].downstream;\n        players[downAddress].inventory += _amt;\n        inventory[players[downAddress].role-1] += _amt;\n\n        players[msg.sender].inventory -= _amt;\n        inventory[players[msg.sender].role-1] -= _amt;\n\n        players[msg.sender].orderReceived -= _amt;\n\n        emit orderSent(_amt);\n    }\n*/\n}\n",
  "sourcePath": "/home/kenil/Desktop/SupplyChainDapp/SupplyChain/contracts/SupplyChain.sol",
  "compiler": {
    "name": "solc",
    "version": "0.5.8+commit.23d335f2.Emscripten.clang"
  },
  "schemaVersion": "3.0.17",
  "updatedAt": "2020-01-17T10:54:17.503Z",
  "networkType": "ethereum",
  "devdoc": {
    "methods": {}
  },
  "userdoc": {
    "methods": {}
  }
}