{
    "contractName": "SupplyChain",
    "abi": [
        {
            "constant": true,
            "inputs": [
                {
                    "name": "",
                    "type": "uint256"
                }
            ],
            "name": "adds",
            "outputs": [
                {
                    "name": "",
                    "type": "address"
                }
            ],
            "payable": false,
            "stateMutability": "view",
            "type": "function",
            "signature": "0x36720309"
        },
        {
            "constant": true,
            "inputs": [],
            "name": "orderLeadTime",
            "outputs": [
                {
                    "name": "",
                    "type": "uint256"
                }
            ],
            "payable": false,
            "stateMutability": "view",
            "type": "function",
            "signature": "0x3e459c59"
        },
        {
            "constant": true,
            "inputs": [
                {
                    "name": "",
                    "type": "uint256"
                }
            ],
            "name": "orderState",
            "outputs": [
                {
                    "name": "",
                    "type": "uint256"
                }
            ],
            "payable": false,
            "stateMutability": "view",
            "type": "function",
            "signature": "0x4077c33c"
        },
        {
            "constant": true,
            "inputs": [
                {
                    "name": "",
                    "type": "uint256"
                }
            ],
            "name": "inventory",
            "outputs": [
                {
                    "name": "",
                    "type": "int256"
                }
            ],
            "payable": false,
            "stateMutability": "view",
            "type": "function",
            "signature": "0x4272ee18"
        },
        {
            "constant": true,
            "inputs": [
                {
                    "name": "",
                    "type": "address"
                },
                {
                    "name": "",
                    "type": "uint256"
                }
            ],
            "name": "weekDetails",
            "outputs": [
                {
                    "name": "weekNo",
                    "type": "uint256"
                },
                {
                    "name": "inventoryReceivedBackOrder",
                    "type": "int256"
                },
                {
                    "name": "inventoryReceivedDemand",
                    "type": "int256"
                },
                {
                    "name": "inventoryPrevious",
                    "type": "int256"
                },
                {
                    "name": "demand",
                    "type": "int256"
                },
                {
                    "name": "shippingQuantityBackOrder",
                    "type": "int256"
                },
                {
                    "name": "shippingQuantityDemand",
                    "type": "int256"
                },
                {
                    "name": "inventoryLeft",
                    "type": "int256"
                },
                {
                    "name": "expectedQuantity",
                    "type": "int256"
                },
                {
                    "name": "expectedQuantityBackOrder",
                    "type": "int256"
                },
                {
                    "name": "orderPlaced",
                    "type": "int256"
                },
                {
                    "name": "backOrder",
                    "type": "int256"
                }
            ],
            "payable": false,
            "stateMutability": "view",
            "type": "function",
            "signature": "0x567802da"
        },
        {
            "constant": true,
            "inputs": [],
            "name": "deliveryLeadTime",
            "outputs": [
                {
                    "name": "",
                    "type": "uint256"
                }
            ],
            "payable": false,
            "stateMutability": "view",
            "type": "function",
            "signature": "0xaf0f545f"
        },
        {
            "constant": true,
            "inputs": [],
            "name": "weekNo",
            "outputs": [
                {
                    "name": "",
                    "type": "uint256"
                }
            ],
            "payable": false,
            "stateMutability": "view",
            "type": "function",
            "signature": "0xde0ac159"
        },
        {
            "constant": true,
            "inputs": [
                {
                    "name": "",
                    "type": "address"
                }
            ],
            "name": "players",
            "outputs": [
                {
                    "name": "role",
                    "type": "uint256"
                },
                {
                    "name": "upstream",
                    "type": "address"
                },
                {
                    "name": "downstream",
                    "type": "address"
                }
            ],
            "payable": false,
            "stateMutability": "view",
            "type": "function",
            "signature": "0xe2eb41ff"
        },
        {
            "inputs": [
                {
                    "name": "add1",
                    "type": "address"
                },
                {
                    "name": "add2",
                    "type": "address"
                },
                {
                    "name": "add3",
                    "type": "address"
                },
                {
                    "name": "add4",
                    "type": "address"
                }
            ],
            "payable": false,
            "stateMutability": "nonpayable",
            "type": "constructor",
            "signature": "constructor"
        },
        {
            "anonymous": false,
            "inputs": [],
            "name": "weekEnd",
            "type": "event",
            "signature": "0x68e88fafe1fbb7460dc442ab8fb3c91cfd6aaa447128ffb4bc091eb739260f53"
        },
        {
            "constant": false,
            "inputs": [
                {
                    "name": "_amt",
                    "type": "int256"
                }
            ],
            "name": "order",
            "outputs": [],
            "payable": false,
            "stateMutability": "nonpayable",
            "type": "function",
            "signature": "0xc813c382"
        }
    ],
    "bytecode": "0x60806040523480156200001157600080fd5b5060405160808062002765833981018060405260808110156200003357600080fd5b81019080805190602001909291908051906020019092919080519060200190929190805190602001909291905050506040518060600160405280600181526020018473ffffffffffffffffffffffffffffffffffffffff1681526020018573ffffffffffffffffffffffffffffffffffffffff16815250602460008673ffffffffffffffffffffffffffffffffffffffff1673ffffffffffffffffffffffffffffffffffffffff1681526020019081526020016000206000820151816000015560208201518160010160006101000a81548173ffffffffffffffffffffffffffffffffffffffff021916908373ffffffffffffffffffffffffffffffffffffffff16021790555060408201518160020160006101000a81548173ffffffffffffffffffffffffffffffffffffffff021916908373ffffffffffffffffffffffffffffffffffffffff1602179055509050506040518060600160405280600281526020018373ffffffffffffffffffffffffffffffffffffffff1681526020018573ffffffffffffffffffffffffffffffffffffffff16815250602460008573ffffffffffffffffffffffffffffffffffffffff1673ffffffffffffffffffffffffffffffffffffffff1681526020019081526020016000206000820151816000015560208201518160010160006101000a81548173ffffffffffffffffffffffffffffffffffffffff021916908373ffffffffffffffffffffffffffffffffffffffff16021790555060408201518160020160006101000a81548173ffffffffffffffffffffffffffffffffffffffff021916908373ffffffffffffffffffffffffffffffffffffffff1602179055509050506040518060600160405280600381526020018273ffffffffffffffffffffffffffffffffffffffff1681526020018473ffffffffffffffffffffffffffffffffffffffff16815250602460008473ffffffffffffffffffffffffffffffffffffffff1673ffffffffffffffffffffffffffffffffffffffff1681526020019081526020016000206000820151816000015560208201518160010160006101000a81548173ffffffffffffffffffffffffffffffffffffffff021916908373ffffffffffffffffffffffffffffffffffffffff16021790555060408201518160020160006101000a81548173ffffffffffffffffffffffffffffffffffffffff021916908373ffffffffffffffffffffffffffffffffffffffff1602179055509050506040518060600160405280600481526020018273ffffffffffffffffffffffffffffffffffffffff1681526020018373ffffffffffffffffffffffffffffffffffffffff16815250602460008373ffffffffffffffffffffffffffffffffffffffff1673ffffffffffffffffffffffffffffffffffffffff1681526020019081526020016000206000820151816000015560208201518160010160006101000a81548173ffffffffffffffffffffffffffffffffffffffff021916908373ffffffffffffffffffffffffffffffffffffffff16021790555060408201518160020160006101000a81548173ffffffffffffffffffffffffffffffffffffffff021916908373ffffffffffffffffffffffffffffffffffffffff160217905550905050602560008573ffffffffffffffffffffffffffffffffffffffff1673ffffffffffffffffffffffffffffffffffffffff16815260200190815260200160002060405180610180016040528060018152602001600081526020016000815260200160be81526020016057815260200160008152602001605781526020016067815260200160008152602001600081526020016000815260200160008152509080600181540180825580915050906001820390600052602060002090600c020160009091929091909150600082015181600001556020820151816001015560408201518160020155606082015181600301556080820151816004015560a0820151816005015560c0820151816006015560e082015181600701556101008201518160080155610120820151816009015561014082015181600a015561016082015181600b0155505050602560008473ffffffffffffffffffffffffffffffffffffffff1673ffffffffffffffffffffffffffffffffffffffff16815260200190815260200160002060405180610180016040528060018152602001600081526020016000815260200160be815260200160008152602001600081526020016000815260200160be815260200160008152602001600081526020016000815260200160008152509080600181540180825580915050906001820390600052602060002090600c020160009091929091909150600082015181600001556020820151816001015560408201518160020155606082015181600301556080820151816004015560a0820151816005015560c0820151816006015560e082015181600701556101008201518160080155610120820151816009015561014082015181600a015561016082015181600b0155505050602560008373ffffffffffffffffffffffffffffffffffffffff1673ffffffffffffffffffffffffffffffffffffffff16815260200190815260200160002060405180610180016040528060018152602001600081526020016000815260200160be815260200160008152602001600081526020016000815260200160be815260200160008152602001600081526020016000815260200160008152509080600181540180825580915050906001820390600052602060002090600c020160009091929091909150600082015181600001556020820151816001015560408201518160020155606082015181600301556080820151816004015560a0820151816005015560c0820151816006015560e082015181600701556101008201518160080155610120820151816009015561014082015181600a015561016082015181600b0155505050602560008273ffffffffffffffffffffffffffffffffffffffff1673ffffffffffffffffffffffffffffffffffffffff16815260200190815260200160002060405180610180016040528060018152602001600081526020016000815260200160be815260200160008152602001600081526020016000815260200160be815260200160008152602001600081526020016000815260200160008152509080600181540180825580915050906001820390600052602060002090600c020160009091929091909150600082015181600001556020820151816001015560408201518160020155606082015181600301556080820151816004015560a0820151816005015560c0820151816006015560e082015181600701556101008201518160080155610120820151816009015561014082015181600a015561016082015181600b015550505083602660006001815260200190815260200160002060006101000a81548173ffffffffffffffffffffffffffffffffffffffff021916908373ffffffffffffffffffffffffffffffffffffffff16021790555082602660006002815260200190815260200160002060006101000a81548173ffffffffffffffffffffffffffffffffffffffff021916908373ffffffffffffffffffffffffffffffffffffffff16021790555081602660006003815260200190815260200160002060006101000a81548173ffffffffffffffffffffffffffffffffffffffff021916908373ffffffffffffffffffffffffffffffffffffffff16021790555080602660006004815260200190815260200160002060006101000a81548173ffffffffffffffffffffffffffffffffffffffff021916908373ffffffffffffffffffffffffffffffffffffffff16021790555060016000819055506001808190555060006002819055506040518060800160405280606760ff16815260200160be60ff16815260200160be60ff16815260200160be60ff16815250600790600462000bac92919062000d12565b506040518060800160405280600060ff168152602001600060ff168152602001600060ff168152602001600060ff16815250600390600462000bf092919062000d5c565b50604051806103200160405280605760ff168152602001604d60ff168152602001604c60ff168152602001605060ff168152602001605860ff168152602001604360ff168152602001605f60ff168152602001605160ff168152602001605560ff168152602001604d60ff168152602001604b60ff168152602001605860ff168152602001605760ff168152602001605060ff168152602001606760ff168152602001606060ff168152602001606160ff168152602001605860ff168152602001604260ff168152602001604360ff168152602001604f60ff168152602001605460ff168152602001605a60ff168152602001604f60ff168152602001605160ff16815250600b90601962000d0792919062000da6565b505050505062000e40565b826004810192821562000d49579160200282015b8281111562000d48578251829060ff1690559160200191906001019062000d26565b5b50905062000d58919062000df0565b5090565b826004810192821562000d93579160200282015b8281111562000d92578251829060ff1690559160200191906001019062000d70565b5b50905062000da2919062000e18565b5090565b826019810192821562000ddd579160200282015b8281111562000ddc578251829060ff1690559160200191906001019062000dba565b5b50905062000dec919062000df0565b5090565b62000e1591905b8082111562000e1157600081600090555060010162000df7565b5090565b90565b62000e3d91905b8082111562000e3957600081600090555060010162000e1f565b5090565b90565b6119158062000e506000396000f3fe608060405234801561001057600080fd5b50600436106100935760003560e01c8063567802da11610066578063567802da146101a8578063af0f545f14610257578063c813c38214610275578063de0ac159146102a3578063e2eb41ff146102c157610093565b806336720309146100985780633e459c59146101065780634077c33c146101245780634272ee1814610166575b600080fd5b6100c4600480360360208110156100ae57600080fd5b810190808035906020019092919050505061037f565b604051808273ffffffffffffffffffffffffffffffffffffffff1673ffffffffffffffffffffffffffffffffffffffff16815260200191505060405180910390f35b61010e6103b2565b6040518082815260200191505060405180910390f35b6101506004803603602081101561013a57600080fd5b81019080803590602001909291905050506103b8565b6040518082815260200191505060405180910390f35b6101926004803603602081101561017c57600080fd5b81019080803590602001909291905050506103d0565b6040518082815260200191505060405180910390f35b6101f4600480360360408110156101be57600080fd5b81019080803573ffffffffffffffffffffffffffffffffffffffff169060200190929190803590602001909291905050506103e8565b604051808d81526020018c81526020018b81526020018a81526020018981526020018881526020018781526020018681526020018581526020018481526020018381526020018281526020019c5050505050505050505050505060405180910390f35b61025f610462565b6040518082815260200191505060405180910390f35b6102a16004803603602081101561028b57600080fd5b8101908080359060200190929190505050610468565b005b6102ab61067c565b6040518082815260200191505060405180910390f35b610303600480360360208110156102d757600080fd5b81019080803573ffffffffffffffffffffffffffffffffffffffff169060200190929190505050610682565b604051808481526020018373ffffffffffffffffffffffffffffffffffffffff1673ffffffffffffffffffffffffffffffffffffffff1681526020018273ffffffffffffffffffffffffffffffffffffffff1673ffffffffffffffffffffffffffffffffffffffff168152602001935050505060405180910390f35b60266020528060005260406000206000915054906101000a900473ffffffffffffffffffffffffffffffffffffffff1681565b60025481565b600381600481106103c557fe5b016000915090505481565b600781600481106103dd57fe5b016000915090505481565b6025602052816000526040600020818154811061040157fe5b90600052602060002090600c02016000915091505080600001549080600101549080600201549080600301549080600401549080600501549080600601549080600701549080600801549080600901549080600a01549080600b015490508c565b60015481565b602560003373ffffffffffffffffffffffffffffffffffffffff1673ffffffffffffffffffffffffffffffffffffffff16815260200190815260200160002060405180610180016040528060016000540181526020016000815260200160008152602001600081526020016000815260200160008152602001600081526020016000815260200160008152602001600081526020016000815260200160008152509080600181540180825580915050906001820390600052602060002090600c020160009091929091909150600082015181600001556020820151816001015560408201518160020155606082015181600301556080820151816004015560a0820151816005015560c0820151816006015560e082015181600701556101008201518160080155610120820151816009015561014082015181600a015561016082015181600b015550505080602560003373ffffffffffffffffffffffffffffffffffffffff1673ffffffffffffffffffffffffffffffffffffffff1681526020019081526020016000206001600054038154811061060357fe5b90600052602060002090600c0201600a0181905550600160036001602460003373ffffffffffffffffffffffffffffffffffffffff1673ffffffffffffffffffffffffffffffffffffffff16815260200190815260200160002060000154036004811061066c57fe5b01819055506106796106ec565b50565b60005481565b60246020528060005260406000206000915090508060000154908060010160009054906101000a900473ffffffffffffffffffffffffffffffffffffffff16908060020160009054906101000a900473ffffffffffffffffffffffffffffffffffffffff16905083565b6001602460003373ffffffffffffffffffffffffffffffffffffffff1673ffffffffffffffffffffffffffffffffffffffff1681526020019081526020016000206000015414156107aa57600b6000546019811061074657fe5b0154602560003373ffffffffffffffffffffffffffffffffffffffff1673ffffffffffffffffffffffffffffffffffffffff1681526020019081526020016000206000548154811061079457fe5b90600052602060002090600c0201600401819055505b600160036000600481106107ba57fe5b01541480156107d85750600160036001600481106107d457fe5b0154145b80156107f35750600160036002600481106107ef57fe5b0154145b801561080d575060016003806004811061080957fe5b0154145b15610a62576040518060800160405280600060ff168152602001600060ff168152602001600060ff168152602001600060ff16815250600390600461085392919061187f565b506108c86001602660006001815260200190815260200160002060009054906101000a900473ffffffffffffffffffffffffffffffffffffffff16602660006002815260200190815260200160002060009054906101000a900473ffffffffffffffffffffffffffffffffffffffff16610a64565b61093c6002602660006002815260200190815260200160002060009054906101000a900473ffffffffffffffffffffffffffffffffffffffff16602660006003815260200190815260200160002060009054906101000a900473ffffffffffffffffffffffffffffffffffffffff16610a64565b6109b06003602660006003815260200190815260200160002060009054906101000a900473ffffffffffffffffffffffffffffffffffffffff16602660006004815260200190815260200160002060009054906101000a900473ffffffffffffffffffffffffffffffffffffffff16610a64565b610a246004602660006004815260200190815260200160002060009054906101000a900473ffffffffffffffffffffffffffffffffffffffff16602660006004815260200190815260200160002060009054906101000a900473ffffffffffffffffffffffffffffffffffffffff16610a64565b60008081548092919060010191905055507f68e88fafe1fbb7460dc442ab8fb3c91cfd6aaa447128ffb4bc091eb739260f5360405160405180910390a15b565b60048314610cea576000600154600254600054030310610c0d57602560008273ffffffffffffffffffffffffffffffffffffffff1673ffffffffffffffffffffffffffffffffffffffff168152602001908152602001600020600154600254600054030381548110610ad257fe5b90600052602060002090600c020160050154602560008473ffffffffffffffffffffffffffffffffffffffff1673ffffffffffffffffffffffffffffffffffffffff16815260200190815260200160002060005481548110610b3057fe5b90600052602060002090600c020160010181905550602560008273ffffffffffffffffffffffffffffffffffffffff1673ffffffffffffffffffffffffffffffffffffffff168152602001908152602001600020600154600254600054030381548110610b9957fe5b90600052602060002090600c020160060154602560008473ffffffffffffffffffffffffffffffffffffffff1673ffffffffffffffffffffffffffffffffffffffff16815260200190815260200160002060005481548110610bf757fe5b90600052602060002090600c0201600201819055505b60006002546001600054030312610ce557602560008373ffffffffffffffffffffffffffffffffffffffff1673ffffffffffffffffffffffffffffffffffffffff1681526020019081526020016000206002546001600054030381548110610c7157fe5b90600052602060002090600c0201600a0154602560008373ffffffffffffffffffffffffffffffffffffffff1673ffffffffffffffffffffffffffffffffffffffff16815260200190815260200160002060005481548110610ccf57fe5b90600052602060002090600c0201600401819055505b610dcb565b6000600154600160025460005403030312610dca57602560008373ffffffffffffffffffffffffffffffffffffffff1673ffffffffffffffffffffffffffffffffffffffff168152602001908152602001600020600154600160025460005403030381548110610d5657fe5b90600052602060002090600c0201600a0154602560008473ffffffffffffffffffffffffffffffffffffffff1673ffffffffffffffffffffffffffffffffffffffff16815260200190815260200160002060005481548110610db457fe5b90600052602060002090600c0201600201819055505b5b602560008373ffffffffffffffffffffffffffffffffffffffff1673ffffffffffffffffffffffffffffffffffffffff16815260200190815260200160002060016000540381548110610e1a57fe5b90600052602060002090600c020160070154602560008473ffffffffffffffffffffffffffffffffffffffff1673ffffffffffffffffffffffffffffffffffffffff16815260200190815260200160002060005481548110610e7857fe5b90600052602060002090600c0201600301819055506000610ef76000602560008673ffffffffffffffffffffffffffffffffffffffff1673ffffffffffffffffffffffffffffffffffffffff16815260200190815260200160002060005481548110610ee057fe5b90600052602060002090600c020160030154611832565b602560008573ffffffffffffffffffffffffffffffffffffffff1673ffffffffffffffffffffffffffffffffffffffff16815260200190815260200160002060005481548110610f4357fe5b90600052602060002090600c020160020154602560008673ffffffffffffffffffffffffffffffffffffffff1673ffffffffffffffffffffffffffffffffffffffff16815260200190815260200160002060005481548110610fa157fe5b90600052602060002090600c020160010154010190506000602560008573ffffffffffffffffffffffffffffffffffffffff1673ffffffffffffffffffffffffffffffffffffffff1681526020019081526020016000206000548154811061100557fe5b90600052602060002090600c0201600301549050600081131561108a576000602560008673ffffffffffffffffffffffffffffffffffffffff1673ffffffffffffffffffffffffffffffffffffffff1681526020019081526020016000206000548154811061107057fe5b90600052602060002090600c020160050181905550611175565b600082126111745761109b8161184b565b8212611110576110aa8161184b565b602560008673ffffffffffffffffffffffffffffffffffffffff1673ffffffffffffffffffffffffffffffffffffffff168152602001908152602001600020600054815481106110f657fe5b90600052602060002090600c020160050181905550611173565b81602560008673ffffffffffffffffffffffffffffffffffffffff1673ffffffffffffffffffffffffffffffffffffffff1681526020019081526020016000206000548154811061115d57fe5b90600052602060002090600c0201600501819055505b5b5b602560008573ffffffffffffffffffffffffffffffffffffffff1673ffffffffffffffffffffffffffffffffffffffff168152602001908152602001600020600054815481106111c157fe5b90600052602060002090600c020160040154602560008673ffffffffffffffffffffffffffffffffffffffff1673ffffffffffffffffffffffffffffffffffffffff1681526020019081526020016000206000548154811061121f57fe5b90600052602060002090600c0201600501548303126112fc57602560008573ffffffffffffffffffffffffffffffffffffffff1673ffffffffffffffffffffffffffffffffffffffff1681526020019081526020016000206000548154811061128457fe5b90600052602060002090600c020160040154602560008673ffffffffffffffffffffffffffffffffffffffff1673ffffffffffffffffffffffffffffffffffffffff168152602001908152602001600020600054815481106112e257fe5b90600052602060002090600c0201600601819055506113be565b602560008573ffffffffffffffffffffffffffffffffffffffff1673ffffffffffffffffffffffffffffffffffffffff1681526020019081526020016000206000548154811061134857fe5b90600052602060002090600c0201600501548203602560008673ffffffffffffffffffffffffffffffffffffffff1673ffffffffffffffffffffffffffffffffffffffff168152602001908152602001600020600054815481106113a857fe5b90600052602060002090600c0201600601819055505b602560008573ffffffffffffffffffffffffffffffffffffffff1673ffffffffffffffffffffffffffffffffffffffff1681526020019081526020016000206000548154811061140a57fe5b90600052602060002090600c020160040154602560008673ffffffffffffffffffffffffffffffffffffffff1673ffffffffffffffffffffffffffffffffffffffff1681526020019081526020016000206000548154811061146857fe5b90600052602060002090600c020160050154830303602560008673ffffffffffffffffffffffffffffffffffffffff1673ffffffffffffffffffffffffffffffffffffffff168152602001908152602001600020600054815481106114c957fe5b90600052602060002090600c02016007018190555060006001546002546000540303106115b857602560008573ffffffffffffffffffffffffffffffffffffffff1673ffffffffffffffffffffffffffffffffffffffff16815260200190815260200160002060015460025460005403038154811061154457fe5b90600052602060002090600c0201600a0154602560008673ffffffffffffffffffffffffffffffffffffffff1673ffffffffffffffffffffffffffffffffffffffff168152602001908152602001600020600054815481106115a257fe5b90600052602060002090600c0201600801819055505b6004851461169b57600060015460025460005403031061169a57602560008473ffffffffffffffffffffffffffffffffffffffff1673ffffffffffffffffffffffffffffffffffffffff16815260200190815260200160002060015460025460005403038154811061162657fe5b90600052602060002090600c0201600b0154602560008673ffffffffffffffffffffffffffffffffffffffff1673ffffffffffffffffffffffffffffffffffffffff1681526020019081526020016000206000548154811061168457fe5b90600052602060002090600c0201600901819055505b5b61170b6117066000602560008873ffffffffffffffffffffffffffffffffffffffff1673ffffffffffffffffffffffffffffffffffffffff168152602001908152602001600020600054815481106116ef57fe5b90600052602060002090600c020160070154611866565b61184b565b602560008673ffffffffffffffffffffffffffffffffffffffff1673ffffffffffffffffffffffffffffffffffffffff1681526020019081526020016000206000548154811061175757fe5b90600052602060002090600c0201600b01819055506117d46000602560008773ffffffffffffffffffffffffffffffffffffffff1673ffffffffffffffffffffffffffffffffffffffff168152602001908152602001600020600054815481106117bd57fe5b90600052602060002090600c020160070154611832565b60076001602460008873ffffffffffffffffffffffffffffffffffffffff1673ffffffffffffffffffffffffffffffffffffffff16815260200190815260200160002060000154036004811061182657fe5b01819055505050505050565b60008183136118415781611843565b825b905092915050565b600080821361185d578160000361185f565b815b9050919050565b60008183126118755781611877565b825b905092915050565b82600481019282156118b3579160200282015b828111156118b2578251829060ff16905591602001919060010190611892565b5b5090506118c091906118c4565b5090565b6118e691905b808211156118e25760008160009055506001016118ca565b5090565b9056fea165627a7a723058202d6b9744f348a8d14c158ba0527fb0fdd4ae7b56315ff70fbab14437901fd4220029",
    "source": "\npragma solidity ^0.5.0;\n\ncontract SupplyChain {\n\n    struct Details {\n        uint weekNo;\n        int inventoryReceivedBackOrder;\n        int inventoryReceivedDemand;\n        int inventoryPrevious;\n        int demand;\n        int shippingQuantityBackOrder;\n        int shippingQuantityDemand;\n        int inventoryLeft;\n        int expectedQuantity;\n        int expectedQuantityBackOrder;        \n        int orderPlaced;\n        int backOrder;\n        }\n\n    struct Player {\n        uint role;\n        address upstream;\n        address downstream;\n    }\n\n    uint public weekNo;\n    uint public deliveryLeadTime;\n    uint public orderLeadTime;\n    uint[4] public orderState;\n    int[4] public inventory;\n    int[25] private retailerDemand;\n\n    mapping(address => Player) public players;\n    mapping(address => Details[]) public weekDetails;\n\n    mapping(uint => address) public adds;\n    \n\n    event weekEnd (\n    );\n\n\n\n    constructor (address add1, address add2, address add3, address add4) public {\n        players[add1] = Player(1, add2, add1);\n        players[add2] = Player(2, add3, add1);\n        players[add3] = Player(3,add4, add2);\n        players[add4] = Player(4, add4, add3);\n\n        weekDetails[add1].push(Details(1, 0, 0, 190, 87, 0, 87, 103, 0, 0, 0, 0));\n        weekDetails[add2].push(Details(1, 0, 0, 190, 0, 0, 0, 190, 0, 0, 0, 0));\n        weekDetails[add3].push(Details(1, 0, 0, 190, 0, 0, 0, 190, 0, 0, 0, 0));\n        weekDetails[add4].push(Details(1, 0, 0, 190, 0, 0, 0, 190, 0, 0, 0, 0));\n\n        adds[1] = add1;\n        adds[2] = add2;\n        adds[3] = add3;\n        adds[4] = add4;\n\n        weekNo = 1;\n        deliveryLeadTime = 1;\n        orderLeadTime = 0;\n        inventory = [103, 190, 190, 190];\n        orderState = [0,0,0,0];\n        retailerDemand = [87,77,76,80,88,67,95,81,85,77,75,88,87,80,103,96,97,88,66,67,79,84,90,79,81]; \n    }\n\n\n    function checkWeekEnd() private {\n\n        if(players[msg.sender].role == 1) {\n            weekDetails[msg.sender][weekNo].demand = retailerDemand[weekNo];\n        }\n\n        \n\n        if(orderState[0]==1 && orderState[1]==1 && orderState[2]==1 && orderState[3]==1 ) {\n            orderState = [0, 0, 0, 0];\n\n            updateDetails(1, adds[1], adds[2]);\n            updateDetails(2, adds[2], adds[3]);\n            updateDetails(3, adds[3], adds[4]);\n            updateDetails(4, adds[4], adds[4]);\n\n            weekNo++;\n            emit weekEnd();\n        }\n    }\n\n    function updateDetails (uint role, address add, address upAdd) private{\n\n        // setting inventory received\n        if(role != 4) {\n            if(weekNo - orderLeadTime - deliveryLeadTime >= 0) {\n                weekDetails[add][weekNo].inventoryReceivedBackOrder = weekDetails[upAdd][weekNo-orderLeadTime-deliveryLeadTime].shippingQuantityBackOrder;\n                weekDetails[add][weekNo].inventoryReceivedDemand = weekDetails[upAdd][weekNo-orderLeadTime-deliveryLeadTime].shippingQuantityDemand;\n            }\n            //setting demand\n            if(int(weekNo-1-orderLeadTime) >= 0)\n                weekDetails[upAdd][weekNo].demand = weekDetails[add][weekNo-1-orderLeadTime].orderPlaced;\n\n        }\n        else {\n            if(int(weekNo-orderLeadTime-1-deliveryLeadTime) >= 0)\n                weekDetails[add][weekNo].inventoryReceivedDemand = weekDetails[add][weekNo-orderLeadTime-1-deliveryLeadTime].orderPlaced;\n        }\n        //previous inventory\n        weekDetails[add][weekNo].inventoryPrevious = weekDetails[add][weekNo-1].inventoryLeft;\n\n        int beginInventory = weekDetails[add][weekNo].inventoryReceivedBackOrder + weekDetails[add][weekNo].inventoryReceivedDemand + max(0, weekDetails[add][weekNo].inventoryPrevious);\n        int prevInventory = weekDetails[add][weekNo].inventoryPrevious;\n\n        //shipping quantity BackOrder\n        if(prevInventory > 0)\n            weekDetails[add][weekNo].shippingQuantityBackOrder = 0;\n        else if(beginInventory >= 0) {\n            if(beginInventory >= abs(prevInventory))\n                weekDetails[add][weekNo].shippingQuantityBackOrder = abs(prevInventory);\n            else\n                weekDetails[add][weekNo].shippingQuantityBackOrder = beginInventory;\n        }\n\n        //shipping quantity demand\n        if(beginInventory - weekDetails[add][weekNo].shippingQuantityBackOrder >= weekDetails[add][weekNo].demand) {\n            weekDetails[add][weekNo].shippingQuantityDemand = weekDetails[add][weekNo].demand;       \n        }\n        else { \n                weekDetails[add][weekNo].shippingQuantityDemand = beginInventory - weekDetails[add][weekNo].shippingQuantityBackOrder;\n        }\n\n        //inventory left\n        weekDetails[add][weekNo].inventoryLeft = beginInventory - weekDetails[add][weekNo].shippingQuantityBackOrder - weekDetails[add][weekNo].demand;\n\n        //expected quantity\n        if(weekNo-orderLeadTime-deliveryLeadTime >= 0)\n            weekDetails[add][weekNo].expectedQuantity = weekDetails[add][weekNo-orderLeadTime-deliveryLeadTime].orderPlaced;\n\n        //expected quantity BackOrder\n        if(role != 4) {\n            if(weekNo-orderLeadTime-deliveryLeadTime >= 0)\n                weekDetails[add][weekNo].expectedQuantityBackOrder = weekDetails[upAdd][weekNo-orderLeadTime-deliveryLeadTime].backOrder;                \n        }\n\n        //backOrder\n        weekDetails[add][weekNo].backOrder = abs(min(0, int(weekDetails[add][weekNo].inventoryLeft)));\n\n        inventory[players[add].role-1] = max(0,weekDetails[add][weekNo].inventoryLeft);\n\n    }\n\n\n    function order(int _amt) public {\n        weekDetails[msg.sender].push(Details(weekNo+1,0,0,0,0,0,0,0,0,0,0,0));\n        weekDetails[msg.sender][weekNo-1].orderPlaced = _amt;\n\n        orderState[players[msg.sender].role - 1] = 1;\n        checkWeekEnd(); \n    }\n\n    function max(int a, int b) private pure returns (int){\n        return a>b ? a : b;\n    }\n\n    function min(int a, int b) private pure returns (int){\n        return a<b ? a : b;\n    }\n\n    function abs(int a) private pure returns (int){\n        return a>0 ? int(a) : int(0-a);\n    }\n\n}\n",
    "sourcePath": "/home/kenil/Desktop/dd/SupplyChainDapp_2/SupplyChain/contracts/SupplyChain.sol",
    "compiler": {
        "name": "solc",
        "version": "0.5.8+commit.23d335f2.Emscripten.clang"
    },
    "schemaVersion": "3.0.17",
    "updatedAt": "2020-06-02T11:58:00.110Z",
    "devdoc": {
        "methods": {}
    },
    "userdoc": {
        "methods": {}
    }
}