{
  "contractName": "SupplyChain",
  "abi": [
    {
      "constant": true,
      "inputs": [
        {
          "name": "",
          "type": "address"
        }
      ],
      "name": "players",
      "outputs": [
        {
          "name": "role",
          "type": "uint256"
        },
        {
          "name": "inventory",
          "type": "uint256"
        },
        {
          "name": "orderReceived",
          "type": "uint256"
        },
        {
          "name": "orderSent",
          "type": "uint256"
        },
        {
          "name": "upstream",
          "type": "address"
        },
        {
          "name": "downstream",
          "type": "address"
        }
      ],
      "payable": false,
      "stateMutability": "view",
      "type": "function"
    },
    {
      "inputs": [],
      "payable": false,
      "stateMutability": "nonpayable",
      "type": "constructor"
    },
    {
      "anonymous": false,
      "inputs": [
        {
          "indexed": true,
          "name": "_orderAmount",
          "type": "uint256"
        }
      ],
      "name": "orderPlaced",
      "type": "event"
    },
    {
      "anonymous": false,
      "inputs": [
        {
          "indexed": true,
          "name": "_amt",
          "type": "uint256"
        }
      ],
      "name": "orderSent",
      "type": "event"
    },
    {
      "constant": false,
      "inputs": [
        {
          "name": "_amt",
          "type": "uint256"
        }
      ],
      "name": "orderUp",
      "outputs": [],
      "payable": false,
      "stateMutability": "nonpayable",
      "type": "function"
    },
    {
      "constant": false,
      "inputs": [
        {
          "name": "_amt",
          "type": "uint256"
        }
      ],
      "name": "fillStock",
      "outputs": [],
      "payable": false,
      "stateMutability": "nonpayable",
      "type": "function"
    },
    {
      "constant": false,
      "inputs": [
        {
          "name": "_amt",
          "type": "uint256"
        }
      ],
      "name": "clearStock",
      "outputs": [],
      "payable": false,
      "stateMutability": "nonpayable",
      "type": "function"
    },
    {
      "constant": false,
      "inputs": [
        {
          "name": "_amt",
          "type": "uint256"
        }
      ],
      "name": "orderDown",
      "outputs": [],
      "payable": false,
      "stateMutability": "nonpayable",
      "type": "function"
    }
  ],
  "bytecode": "0x608060405234801561001057600080fd5b5061001f61002460201b60201c565b610712565b6040518060c001604052806001815260200160648152602001601481526020016000815260200173bf43c96c307b2c822fbc6ae3fc6cf203d1c8062d73ffffffffffffffffffffffffffffffffffffffff1681526020017313a72135525fe16dcecb0c0bf59f1f730af00e2773ffffffffffffffffffffffffffffffffffffffff168152506000807313a72135525fe16dcecb0c0bf59f1f730af00e2773ffffffffffffffffffffffffffffffffffffffff1673ffffffffffffffffffffffffffffffffffffffff1681526020019081526020016000206000820151816000015560208201518160010155604082015181600201556060820151816003015560808201518160040160006101000a81548173ffffffffffffffffffffffffffffffffffffffff021916908373ffffffffffffffffffffffffffffffffffffffff16021790555060a08201518160050160006101000a81548173ffffffffffffffffffffffffffffffffffffffff021916908373ffffffffffffffffffffffffffffffffffffffff1602179055509050506040518060c001604052806002815260200160148152602001600f81526020016000815260200173fe536dc6ef2167b9184946ff21d084e16e5ead6773ffffffffffffffffffffffffffffffffffffffff1681526020017313a72135525fe16dcecb0c0bf59f1f730af00e2773ffffffffffffffffffffffffffffffffffffffff1681525060008073bf43c96c307b2c822fbc6ae3fc6cf203d1c8062d73ffffffffffffffffffffffffffffffffffffffff1673ffffffffffffffffffffffffffffffffffffffff1681526020019081526020016000206000820151816000015560208201518160010155604082015181600201556060820151816003015560808201518160040160006101000a81548173ffffffffffffffffffffffffffffffffffffffff021916908373ffffffffffffffffffffffffffffffffffffffff16021790555060a08201518160050160006101000a81548173ffffffffffffffffffffffffffffffffffffffff021916908373ffffffffffffffffffffffffffffffffffffffff1602179055509050506040518060c0016040528060038152602001601e815260200160198152602001600081526020017399c230f42da0f5391cf4ea4dc4e2e6310efdadb973ffffffffffffffffffffffffffffffffffffffff16815260200173bf43c96c307b2c822fbc6ae3fc6cf203d1c8062d73ffffffffffffffffffffffffffffffffffffffff1681525060008073fe536dc6ef2167b9184946ff21d084e16e5ead6773ffffffffffffffffffffffffffffffffffffffff1673ffffffffffffffffffffffffffffffffffffffff1681526020019081526020016000206000820151816000015560208201518160010155604082015181600201556060820151816003015560808201518160040160006101000a81548173ffffffffffffffffffffffffffffffffffffffff021916908373ffffffffffffffffffffffffffffffffffffffff16021790555060a08201518160050160006101000a81548173ffffffffffffffffffffffffffffffffffffffff021916908373ffffffffffffffffffffffffffffffffffffffff1602179055509050506040518060c00160405280600481526020016028815260200160238152602001600081526020017399c230f42da0f5391cf4ea4dc4e2e6310efdadb973ffffffffffffffffffffffffffffffffffffffff16815260200173fe536dc6ef2167b9184946ff21d084e16e5ead6773ffffffffffffffffffffffffffffffffffffffff168152506000807399c230f42da0f5391cf4ea4dc4e2e6310efdadb973ffffffffffffffffffffffffffffffffffffffff1673ffffffffffffffffffffffffffffffffffffffff1681526020019081526020016000206000820151816000015560208201518160010155604082015181600201556060820151816003015560808201518160040160006101000a81548173ffffffffffffffffffffffffffffffffffffffff021916908373ffffffffffffffffffffffffffffffffffffffff16021790555060a08201518160050160006101000a81548173ffffffffffffffffffffffffffffffffffffffff021916908373ffffffffffffffffffffffffffffffffffffffff1602179055509050506040518060800160405280606460ff168152602001601460ff168152602001601e60ff168152602001602860ff1681525060019060046106a59291906106a8565b50565b82600481019282156106dc579160200282015b828111156106db578251829060ff169055916020019190600101906106bb565b5b5090506106e991906106ed565b5090565b61070f91905b8082111561070b5760008160009055506001016106f3565b5090565b90565b6108cb806107216000396000f3fe608060405234801561001057600080fd5b50600436106100575760003560e01c806358efcaf41461005c5780636ee9af401461008a578063a0d649b6146100b8578063c0937228146100e6578063e2eb41ff14610114575b600080fd5b6100886004803603602081101561007257600080fd5b81019080803590602001909291905050506101e7565b005b6100b6600480360360208110156100a057600080fd5b81019080803590602001909291905050506104c4565b005b6100e4600480360360208110156100ce57600080fd5b810190808035906020019092919050505061057d565b005b610112600480360360208110156100fc57600080fd5b8101908080359060200190929190505050610745565b005b6101566004803603602081101561012a57600080fd5b81019080803573ffffffffffffffffffffffffffffffffffffffff169060200190929190505050610823565b604051808781526020018681526020018581526020018481526020018373ffffffffffffffffffffffffffffffffffffffff1673ffffffffffffffffffffffffffffffffffffffff1681526020018273ffffffffffffffffffffffffffffffffffffffff1673ffffffffffffffffffffffffffffffffffffffff168152602001965050505050505060405180910390f35b6000803373ffffffffffffffffffffffffffffffffffffffff1673ffffffffffffffffffffffffffffffffffffffff16815260200190815260200160002060010154811115801561027957506000803373ffffffffffffffffffffffffffffffffffffffff1673ffffffffffffffffffffffffffffffffffffffff168152602001908152602001600020600201548111155b61028257600080fd5b60008060003373ffffffffffffffffffffffffffffffffffffffff1673ffffffffffffffffffffffffffffffffffffffff16815260200190815260200160002060050160009054906101000a900473ffffffffffffffffffffffffffffffffffffffff169050816000808373ffffffffffffffffffffffffffffffffffffffff1673ffffffffffffffffffffffffffffffffffffffff16815260200190815260200160002060010160008282540192505081905550816001806000808573ffffffffffffffffffffffffffffffffffffffff1673ffffffffffffffffffffffffffffffffffffffff16815260200190815260200160002060000154036004811061038857fe5b0160008282540192505081905550816000803373ffffffffffffffffffffffffffffffffffffffff1673ffffffffffffffffffffffffffffffffffffffff16815260200190815260200160002060010160008282540392505081905550816001806000803373ffffffffffffffffffffffffffffffffffffffff1673ffffffffffffffffffffffffffffffffffffffff16815260200190815260200160002060000154036004811061043657fe5b0160008282540392505081905550816000803373ffffffffffffffffffffffffffffffffffffffff1673ffffffffffffffffffffffffffffffffffffffff16815260200190815260200160002060020160008282540392505081905550817f0e213bdc406c034352c187ea338f408de37e07efafa09364c50f247f0cb0c28760405160405180910390a25050565b60008060003373ffffffffffffffffffffffffffffffffffffffff1673ffffffffffffffffffffffffffffffffffffffff16815260200190815260200160002060040160009054906101000a900473ffffffffffffffffffffffffffffffffffffffff169050816000808373ffffffffffffffffffffffffffffffffffffffff1673ffffffffffffffffffffffffffffffffffffffff168152602001908152602001600020600201600082825401925050819055505050565b6000803373ffffffffffffffffffffffffffffffffffffffff1673ffffffffffffffffffffffffffffffffffffffff16815260200190815260200160002060010154811115801561060f57506000803373ffffffffffffffffffffffffffffffffffffffff1673ffffffffffffffffffffffffffffffffffffffff168152602001908152602001600020600201548111155b61061857600080fd5b806000803373ffffffffffffffffffffffffffffffffffffffff1673ffffffffffffffffffffffffffffffffffffffff16815260200190815260200160002060010160008282540392505081905550806001806000803373ffffffffffffffffffffffffffffffffffffffff1673ffffffffffffffffffffffffffffffffffffffff1681526020019081526020016000206000015403600481106106b857fe5b0160008282540392505081905550806000803373ffffffffffffffffffffffffffffffffffffffff1673ffffffffffffffffffffffffffffffffffffffff16815260200190815260200160002060020160008282540392505081905550807f0e213bdc406c034352c187ea338f408de37e07efafa09364c50f247f0cb0c28760405160405180910390a250565b806000803373ffffffffffffffffffffffffffffffffffffffff1673ffffffffffffffffffffffffffffffffffffffff16815260200190815260200160002060010160008282540192505081905550806001806000803373ffffffffffffffffffffffffffffffffffffffff1673ffffffffffffffffffffffffffffffffffffffff1681526020019081526020016000206000015403600481106107e557fe5b0160008282540192505081905550807f0e213bdc406c034352c187ea338f408de37e07efafa09364c50f247f0cb0c28760405160405180910390a250565b60006020528060005260406000206000915090508060000154908060010154908060020154908060030154908060040160009054906101000a900473ffffffffffffffffffffffffffffffffffffffff16908060050160009054906101000a900473ffffffffffffffffffffffffffffffffffffffff1690508656fea165627a7a72305820a7c969905d8657be6df3dabde28fd8b1b69832842ffa15a19a85ba773dc313ba0029",
  "source": "\npragma solidity ^0.5.0;\n\ncontract SupplyChain {\n\n    struct Details {\n        uint role;\n        uint inventory;\n        uint orderReceived;\n        uint orderSent;\n        address upstream;\n        address downstream;\n    }\n\n    // Store accounts that have voted\n    mapping(address => Details) public players;\n\n    uint[4] private inventory;\n\n    // voted event\n    event orderPlaced (\n        uint indexed _orderAmount\n    );\n\n    event orderSent (\n        uint indexed _amt\n    );\n\n    constructor () public {\n        setRoles();\n    }\n\n\n    function setRoles() private {\n        players[0x13A72135525FE16DcECb0C0BF59F1f730aF00e27] = Details(1, 100, 20, 0, 0xBF43C96c307B2c822fbc6Ae3fC6cf203D1c8062D, 0x13A72135525FE16DcECb0C0BF59F1f730aF00e27);\n        players[0xBF43C96c307B2c822fbc6Ae3fC6cf203D1c8062D] = Details(2, 20, 15, 0, 0xFe536dc6ef2167B9184946FF21D084E16e5EAd67, 0x13A72135525FE16DcECb0C0BF59F1f730aF00e27);\n        players[0xFe536dc6ef2167B9184946FF21D084E16e5EAd67] = Details(3, 30, 25, 0, 0x99C230F42Da0F5391cf4EA4dc4e2e6310eFDadB9, 0xBF43C96c307B2c822fbc6Ae3fC6cf203D1c8062D);\n        players[0x99C230F42Da0F5391cf4EA4dc4e2e6310eFDadB9] = Details(4, 40, 35, 0, 0x99C230F42Da0F5391cf4EA4dc4e2e6310eFDadB9, 0xFe536dc6ef2167B9184946FF21D084E16e5EAd67);\n\n        inventory = [100, 20, 30, 40];\n    }\n\n    function orderUp(uint _amt) public {\n       address upAddreess = players[msg.sender].upstream;\n       players[upAddreess].orderReceived += _amt;\n //       emit orderPlaced(_orderAmount);\n    }\n\n    function fillStock(uint _amt) public {\n        players[msg.sender].inventory += _amt;\n        inventory[players[msg.sender].role - 1] += _amt;\n        emit orderSent(_amt);\n    }\n\n    function clearStock(uint _amt) public {\n        require(_amt <= players[msg.sender].inventory && _amt<= players[msg.sender].orderReceived);\n        players[msg.sender].inventory -= _amt;\n        inventory[players[msg.sender].role-1] -= _amt;\n\n        players[msg.sender].orderReceived -= _amt;\n        emit orderSent(_amt);\n    }\n\n    function orderDown(uint _amt) public {\n\n        require(_amt <= players[msg.sender].inventory && _amt<= players[msg.sender].orderReceived);\n\n        address downAddress = players[msg.sender].downstream;\n        players[downAddress].inventory += _amt;\n        inventory[players[downAddress].role-1] += _amt;\n\n        players[msg.sender].inventory -= _amt;\n        inventory[players[msg.sender].role-1] -= _amt;\n\n        players[msg.sender].orderReceived -= _amt;\n\n        emit orderSent(_amt);\n    }\n\n\n\n    /*\n    function vote (uint _DetailsId) public {\n        // require that they haven't voted before\n        //require(!voters[msg.sender]);\n\n        // require a valid Details\n        //require(_DetailsId > 0 && _DetailsId <= DetailssCount);\n\n        // record that voter has voted\n        //voters[msg.sender] = true;\n\n        // update Details vote Count\n      //  Detailss[_DetailsId].voteCount ++;\n\n        // trigger voted event\n        //emit votedEvent(_DetailsId);\n    } */\n}\n",
  "sourcePath": "/home/kenil/Desktop/SupplyChainDapp/SupplyChain/contracts/SupplyChain.sol",
  "compiler": {
    "name": "solc",
    "version": "0.5.8+commit.23d335f2.Emscripten.clang"
  },
  "schemaVersion": "3.0.17",
  "updatedAt": "2019-11-07T14:58:58.998Z",
  "networkType": "ethereum",
  "devdoc": {
    "methods": {}
  },
  "userdoc": {
    "methods": {}
  }
}