{
  "contractName": "SupplyChain",
  "abi": [
    {
      "constant": true,
      "inputs": [
        {
          "name": "",
          "type": "uint256"
        }
      ],
      "name": "inventory",
      "outputs": [
        {
          "name": "",
          "type": "uint256"
        }
      ],
      "payable": false,
      "stateMutability": "view",
      "type": "function"
    },
    {
      "constant": true,
      "inputs": [
        {
          "name": "",
          "type": "address"
        },
        {
          "name": "",
          "type": "uint256"
        }
      ],
      "name": "weekDetails",
      "outputs": [
        {
          "name": "inventoryReceived",
          "type": "uint256"
        },
        {
          "name": "inventoryPrevious",
          "type": "uint256"
        },
        {
          "name": "demand",
          "type": "uint256"
        },
        {
          "name": "shippingQuantity",
          "type": "uint256"
        },
        {
          "name": "orderPlaced",
          "type": "uint256"
        },
        {
          "name": "inventoryLeft",
          "type": "uint256"
        }
      ],
      "payable": false,
      "stateMutability": "view",
      "type": "function"
    },
    {
      "constant": true,
      "inputs": [
        {
          "name": "",
          "type": "address"
        }
      ],
      "name": "players",
      "outputs": [
        {
          "name": "role",
          "type": "uint256"
        },
        {
          "name": "upstream",
          "type": "address"
        },
        {
          "name": "downstream",
          "type": "address"
        }
      ],
      "payable": false,
      "stateMutability": "view",
      "type": "function"
    },
    {
      "inputs": [],
      "payable": false,
      "stateMutability": "nonpayable",
      "type": "constructor"
    },
    {
      "anonymous": false,
      "inputs": [],
      "name": "weekEnd",
      "type": "event"
    },
    {
      "constant": false,
      "inputs": [
        {
          "name": "actor",
          "type": "address"
        }
      ],
      "name": "addWeeks",
      "outputs": [],
      "payable": false,
      "stateMutability": "nonpayable",
      "type": "function"
    },
    {
      "constant": false,
      "inputs": [
        {
          "name": "_amt",
          "type": "uint256"
        }
      ],
      "name": "order",
      "outputs": [],
      "payable": false,
      "stateMutability": "nonpayable",
      "type": "function"
    },
    {
      "constant": false,
      "inputs": [
        {
          "name": "_amt",
          "type": "uint256"
        }
      ],
      "name": "fillStock",
      "outputs": [],
      "payable": false,
      "stateMutability": "nonpayable",
      "type": "function"
    }
  ],
  "bytecode": "0x60806040523480156200001157600080fd5b5060018081905550620000296200002f60201b60201c565b62000bca565b604051806060016040528060018152602001735a528ef100931de8dd12c08d09877ac038af04eb73ffffffffffffffffffffffffffffffffffffffff16815260200173b92d238ea91ea398cdc2b885b8f4395dd5c4bf3473ffffffffffffffffffffffffffffffffffffffff16815250600a600073b92d238ea91ea398cdc2b885b8f4395dd5c4bf3473ffffffffffffffffffffffffffffffffffffffff1673ffffffffffffffffffffffffffffffffffffffff1681526020019081526020016000206000820151816000015560208201518160010160006101000a81548173ffffffffffffffffffffffffffffffffffffffff021916908373ffffffffffffffffffffffffffffffffffffffff16021790555060408201518160020160006101000a81548173ffffffffffffffffffffffffffffffffffffffff021916908373ffffffffffffffffffffffffffffffffffffffff16021790555090505060405180606001604052806002815260200173eb01d15d4c7b3c75bb801e8ffde842e3a5e4d94c73ffffffffffffffffffffffffffffffffffffffff16815260200173b92d238ea91ea398cdc2b885b8f4395dd5c4bf3473ffffffffffffffffffffffffffffffffffffffff16815250600a6000735a528ef100931de8dd12c08d09877ac038af04eb73ffffffffffffffffffffffffffffffffffffffff1673ffffffffffffffffffffffffffffffffffffffff1681526020019081526020016000206000820151816000015560208201518160010160006101000a81548173ffffffffffffffffffffffffffffffffffffffff021916908373ffffffffffffffffffffffffffffffffffffffff16021790555060408201518160020160006101000a81548173ffffffffffffffffffffffffffffffffffffffff021916908373ffffffffffffffffffffffffffffffffffffffff16021790555090505060405180606001604052806003815260200173777b061fb4c1eb1b5f745ebe45e0f462f1e298f873ffffffffffffffffffffffffffffffffffffffff168152602001735a528ef100931de8dd12c08d09877ac038af04eb73ffffffffffffffffffffffffffffffffffffffff16815250600a600073eb01d15d4c7b3c75bb801e8ffde842e3a5e4d94c73ffffffffffffffffffffffffffffffffffffffff1673ffffffffffffffffffffffffffffffffffffffff1681526020019081526020016000206000820151816000015560208201518160010160006101000a81548173ffffffffffffffffffffffffffffffffffffffff021916908373ffffffffffffffffffffffffffffffffffffffff16021790555060408201518160020160006101000a81548173ffffffffffffffffffffffffffffffffffffffff021916908373ffffffffffffffffffffffffffffffffffffffff16021790555090505060405180606001604052806004815260200173777b061fb4c1eb1b5f745ebe45e0f462f1e298f873ffffffffffffffffffffffffffffffffffffffff16815260200173eb01d15d4c7b3c75bb801e8ffde842e3a5e4d94c73ffffffffffffffffffffffffffffffffffffffff16815250600a600073777b061fb4c1eb1b5f745ebe45e0f462f1e298f873ffffffffffffffffffffffffffffffffffffffff1673ffffffffffffffffffffffffffffffffffffffff1681526020019081526020016000206000820151816000015560208201518160010160006101000a81548173ffffffffffffffffffffffffffffffffffffffff021916908373ffffffffffffffffffffffffffffffffffffffff16021790555060408201518160020160006101000a81548173ffffffffffffffffffffffffffffffffffffffff021916908373ffffffffffffffffffffffffffffffffffffffff160217905550905050600b600073b92d238ea91ea398cdc2b885b8f4395dd5c4bf3473ffffffffffffffffffffffffffffffffffffffff1673ffffffffffffffffffffffffffffffffffffffff1681526020019081526020016000206040518060c001604052806000815260200160288152602001600081526020016000815260200160008152602001600081525090806001815401808255809150509060018203906000526020600020906006020160009091929091909150600082015181600001556020820151816001015560408201518160020155606082015181600301556080820151816004015560a08201518160050155505050600b6000735a528ef100931de8dd12c08d09877ac038af04eb73ffffffffffffffffffffffffffffffffffffffff1673ffffffffffffffffffffffffffffffffffffffff1681526020019081526020016000206040518060c001604052806000815260200160288152602001600081526020016000815260200160008152602001600081525090806001815401808255809150509060018203906000526020600020906006020160009091929091909150600082015181600001556020820151816001015560408201518160020155606082015181600301556080820151816004015560a08201518160050155505050600b600073eb01d15d4c7b3c75bb801e8ffde842e3a5e4d94c73ffffffffffffffffffffffffffffffffffffffff1673ffffffffffffffffffffffffffffffffffffffff1681526020019081526020016000206040518060c001604052806000815260200160288152602001600081526020016000815260200160008152602001600081525090806001815401808255809150509060018203906000526020600020906006020160009091929091909150600082015181600001556020820151816001015560408201518160020155606082015181600301556080820151816004015560a08201518160050155505050600b600073777b061fb4c1eb1b5f745ebe45e0f462f1e298f873ffffffffffffffffffffffffffffffffffffffff1673ffffffffffffffffffffffffffffffffffffffff1681526020019081526020016000206040518060c001604052806000815260200160288152602001600081526020016000815260200160008152602001600081525090806001815401808255809150509060018203906000526020600020906006020160009091929091909150600082015181600001556020820151816001015560408201518160020155606082015181600301556080820151816004015560a0820151816005015550505060016000819055506200099473b92d238ea91ea398cdc2b885b8f4395dd5c4bf3462000a6860201b60201c565b620009b973b92d238ea91ea398cdc2b885b8f4395dd5c4bf3462000a6860201b60201c565b620009de73b92d238ea91ea398cdc2b885b8f4395dd5c4bf3462000a6860201b60201c565b6040518060800160405280606460ff168152602001601460ff168152602001601e60ff168152602001602860ff16815250600690600462000a2192919062000b58565b506040518060800160405280600060ff168152602001600060ff168152602001600060ff168152602001600060ff16815250600290600462000a6592919062000b58565b50565b600b60008273ffffffffffffffffffffffffffffffffffffffff1673ffffffffffffffffffffffffffffffffffffffff1681526020019081526020016000206040518060c001604052806005815260200160148152602001600a81526020016022815260200160148152602001600a81525090806001815401808255809150509060018203906000526020600020906006020160009091929091909150600082015181600001556020820151816001015560408201518160020155606082015181600301556080820151816004015560a08201518160050155505050600080815480929190600101919050555050565b826004810192821562000b8f579160200282015b8281111562000b8e578251829060ff1690559160200191906001019062000b6c565b5b50905062000b9e919062000ba2565b5090565b62000bc791905b8082111562000bc357600081600090555060010162000ba9565b5090565b90565b6110c18062000bda6000396000f3fe608060405234801561001057600080fd5b50600436106100625760003560e01c806321603f43146100675780633b81b8ed146100955780634272ee18146100d9578063567802da1461011b578063c0937228146101a0578063e2eb41ff146101ce575b600080fd5b6100936004803603602081101561007d57600080fd5b810190808035906020019092919050505061028c565b005b6100d7600480360360208110156100ab57600080fd5b81019080803573ffffffffffffffffffffffffffffffffffffffff169060200190929190505050610a54565b005b610105600480360360208110156100ef57600080fd5b8101908080359060200190929190505050610b44565b6040518082815260200191505060405180910390f35b6101676004803603604081101561013157600080fd5b81019080803573ffffffffffffffffffffffffffffffffffffffff16906020019092919080359060200190929190505050610b5c565b60405180878152602001868152602001858152602001848152602001838152602001828152602001965050505050505060405180910390f35b6101cc600480360360208110156101b657600080fd5b8101908080359060200190929190505050610bb2565b005b610210600480360360208110156101e457600080fd5b81019080803573ffffffffffffffffffffffffffffffffffffffff169060200190929190505050610deb565b604051808481526020018373ffffffffffffffffffffffffffffffffffffffff1673ffffffffffffffffffffffffffffffffffffffff1681526020018273ffffffffffffffffffffffffffffffffffffffff1673ffffffffffffffffffffffffffffffffffffffff168152602001935050505060405180910390f35b6000600a60003373ffffffffffffffffffffffffffffffffffffffff1673ffffffffffffffffffffffffffffffffffffffff16815260200190815260200160002060010160009054906101000a900473ffffffffffffffffffffffffffffffffffffffff1690506000600a60003373ffffffffffffffffffffffffffffffffffffffff1673ffffffffffffffffffffffffffffffffffffffff16815260200190815260200160002060020160009054906101000a900473ffffffffffffffffffffffffffffffffffffffff169050600b60008373ffffffffffffffffffffffffffffffffffffffff1673ffffffffffffffffffffffffffffffffffffffff16815260200190815260200160002060015460005403815481106103aa57fe5b906000526020600020906006020160030154600b60003373ffffffffffffffffffffffffffffffffffffffff1673ffffffffffffffffffffffffffffffffffffffff1681526020019081526020016000206000548154811061040857fe5b906000526020600020906006020160000181905550600b60003373ffffffffffffffffffffffffffffffffffffffff1673ffffffffffffffffffffffffffffffffffffffff1681526020019081526020016000206001600054038154811061046c57fe5b906000526020600020906006020160050154600b60003373ffffffffffffffffffffffffffffffffffffffff1673ffffffffffffffffffffffffffffffffffffffff168152602001908152602001600020600054815481106104ca57fe5b9060005260206000209060060201600101819055506000600b60003373ffffffffffffffffffffffffffffffffffffffff1673ffffffffffffffffffffffffffffffffffffffff1681526020019081526020016000206000548154811061052d57fe5b906000526020600020906006020160010154600b60003373ffffffffffffffffffffffffffffffffffffffff1673ffffffffffffffffffffffffffffffffffffffff1681526020019081526020016000206000548154811061058b57fe5b906000526020600020906006020160000154019050600060015460005403111561067757600b60003373ffffffffffffffffffffffffffffffffffffffff1673ffffffffffffffffffffffffffffffffffffffff16815260200190815260200160002060015460005403815481106105ff57fe5b906000526020600020906006020160040154600b60008573ffffffffffffffffffffffffffffffffffffffff1673ffffffffffffffffffffffffffffffffffffffff1681526020019081526020016000206000548154811061065d57fe5b9060005260206000209060060201600201819055506106db565b6000600b60008573ffffffffffffffffffffffffffffffffffffffff1673ffffffffffffffffffffffffffffffffffffffff168152602001908152602001600020600054815481106106c557fe5b9060005260206000209060060201600201819055505b80600b60003373ffffffffffffffffffffffffffffffffffffffff1673ffffffffffffffffffffffffffffffffffffffff1681526020019081526020016000206000548154811061072857fe5b90600052602060002090600602016002015410156108c557600b60003373ffffffffffffffffffffffffffffffffffffffff1673ffffffffffffffffffffffffffffffffffffffff1681526020019081526020016000206000548154811061078c57fe5b906000526020600020906006020160020154600b60003373ffffffffffffffffffffffffffffffffffffffff1673ffffffffffffffffffffffffffffffffffffffff168152602001908152602001600020600054815481106107ea57fe5b906000526020600020906006020160030181905550600b60003373ffffffffffffffffffffffffffffffffffffffff1673ffffffffffffffffffffffffffffffffffffffff1681526020019081526020016000206000548154811061084b57fe5b9060005260206000209060060201600201548103600b60003373ffffffffffffffffffffffffffffffffffffffff1673ffffffffffffffffffffffffffffffffffffffff168152602001908152602001600020600054815481106108ab57fe5b90600052602060002090600602016005018190555061098b565b80600b60003373ffffffffffffffffffffffffffffffffffffffff1673ffffffffffffffffffffffffffffffffffffffff1681526020019081526020016000206000548154811061091257fe5b9060005260206000209060060201600301819055506000600b60003373ffffffffffffffffffffffffffffffffffffffff1673ffffffffffffffffffffffffffffffffffffffff1681526020019081526020016000206000548154811061097557fe5b9060005260206000209060060201600501819055505b83600b60003373ffffffffffffffffffffffffffffffffffffffff1673ffffffffffffffffffffffffffffffffffffffff168152602001908152602001600020600054815481106109d857fe5b906000526020600020906006020160040181905550600160026001600a60003373ffffffffffffffffffffffffffffffffffffffff1673ffffffffffffffffffffffffffffffffffffffff168152602001908152602001600020600001540360048110610a4157fe5b0181905550610a4e610e55565b50505050565b600b60008273ffffffffffffffffffffffffffffffffffffffff1673ffffffffffffffffffffffffffffffffffffffff1681526020019081526020016000206040518060c001604052806005815260200160148152602001600a81526020016022815260200160148152602001600a81525090806001815401808255809150509060018203906000526020600020906006020160009091929091909150600082015181600001556020820151816001015560408201518160020155606082015181600301556080820151816004015560a08201518160050155505050600080815480929190600101919050555050565b60068160048110610b5157fe5b016000915090505481565b600b6020528160005260406000208181548110610b7557fe5b9060005260206000209060060201600091509150508060000154908060010154908060020154908060030154908060040154908060050154905086565b6004600a60003373ffffffffffffffffffffffffffffffffffffffff1673ffffffffffffffffffffffffffffffffffffffff1681526020019081526020016000206000015414610c0157600080fd5b600b60003373ffffffffffffffffffffffffffffffffffffffff1673ffffffffffffffffffffffffffffffffffffffff16815260200190815260200160002060016000540381548110610c5057fe5b906000526020600020906006020160050154600b60003373ffffffffffffffffffffffffffffffffffffffff1673ffffffffffffffffffffffffffffffffffffffff16815260200190815260200160002060005481548110610cae57fe5b906000526020600020906006020160010181905550600b60003373ffffffffffffffffffffffffffffffffffffffff1673ffffffffffffffffffffffffffffffffffffffff1681526020019081526020016000206001546000540381548110610d1357fe5b906000526020600020906006020160040154600b60003373ffffffffffffffffffffffffffffffffffffffff1673ffffffffffffffffffffffffffffffffffffffff16815260200190815260200160002060005481548110610d7157fe5b90600052602060002090600602016000018190555080600b60003373ffffffffffffffffffffffffffffffffffffffff1673ffffffffffffffffffffffffffffffffffffffff16815260200190815260200160002060005481548110610dd357fe5b90600052602060002090600602016004018190555050565b600a6020528060005260406000206000915090508060000154908060010160009054906101000a900473ffffffffffffffffffffffffffffffffffffffff16908060020160009054906101000a900473ffffffffffffffffffffffffffffffffffffffff16905083565b6001600a60003373ffffffffffffffffffffffffffffffffffffffff1673ffffffffffffffffffffffffffffffffffffffff168152602001908152602001600020600001541415610f41576064444260405160200180838152602001828152602001925050506040516020818303038152906040528051906020012060001c81610edb57fe5b06600b60003373ffffffffffffffffffffffffffffffffffffffff1673ffffffffffffffffffffffffffffffffffffffff16815260200190815260200160002060016000540181548110610f2b57fe5b9060005260206000209060060201600201819055505b60016002600060048110610f5157fe5b0154148015610f6f575060016002600160048110610f6b57fe5b0154145b8015610f895750600160028060048110610f8557fe5b0154145b8015610fa4575060016002600360048110610fa057fe5b0154145b15611029576040518060800160405280600060ff168152602001600060ff168152602001600060ff168152602001600060ff168152506002906004610fea92919061102b565b5060008081548092919060010191905055507f68e88fafe1fbb7460dc442ab8fb3c91cfd6aaa447128ffb4bc091eb739260f5360405160405180910390a15b565b826004810192821561105f579160200282015b8281111561105e578251829060ff1690559160200191906001019061103e565b5b50905061106c9190611070565b5090565b61109291905b8082111561108e576000816000905550600101611076565b5090565b9056fea165627a7a7230582056059d01ad1f3c73117712e0e9257198bde00f7c0514cf938ee20d1486c346150029",
  "source": "\npragma solidity ^0.5.0;\n\ncontract SupplyChain {\n\n    struct Details {\n        uint inventoryReceived;\n        uint inventoryPrevious;\n        uint demand;\n        uint shippingQuantity;\n        uint orderPlaced;\n        uint inventoryLeft;         \n        }\n\n    struct Player {\n        uint role;\n        address upstream;\n        address downstream;\n    }\n\n    uint private weekNo;\n    uint private leadTime;\n    uint[4] private orderState;\n    uint[4] public inventory;\n\n    mapping(address => Player) public players;\n    mapping(address => Details[]) public weekDetails;\n\n    \n\n    event weekEnd (\n    );\n\n\n\n    constructor () public {\n        leadTime = 1;\n        setRoles();\n    }\n\n\n    function setRoles() private {\n        players[0xB92D238ea91Ea398CdC2b885B8F4395Dd5C4Bf34] = Player(1, 0x5a528ef100931de8dd12C08d09877ac038AF04eb, 0xB92D238ea91Ea398CdC2b885B8F4395Dd5C4Bf34);\n        players[0x5a528ef100931de8dd12C08d09877ac038AF04eb] = Player(2, 0xeb01d15D4C7B3c75bB801E8fFDE842E3a5e4D94C, 0xB92D238ea91Ea398CdC2b885B8F4395Dd5C4Bf34);\n        players[0xeb01d15D4C7B3c75bB801E8fFDE842E3a5e4D94C] = Player(3,0x777B061fB4C1eB1b5F745eBe45e0f462F1e298F8, 0x5a528ef100931de8dd12C08d09877ac038AF04eb);\n        players[0x777B061fB4C1eB1b5F745eBe45e0f462F1e298F8] = Player(4, 0x777B061fB4C1eB1b5F745eBe45e0f462F1e298F8, 0xeb01d15D4C7B3c75bB801E8fFDE842E3a5e4D94C);\n\n        weekDetails[0xB92D238ea91Ea398CdC2b885B8F4395Dd5C4Bf34].push(Details(0, 40, 0, 0, 0, 0));\n        weekDetails[0x5a528ef100931de8dd12C08d09877ac038AF04eb].push(Details(0, 40, 0, 0, 0, 0));\n        weekDetails[0xeb01d15D4C7B3c75bB801E8fFDE842E3a5e4D94C].push(Details(0, 40, 0, 0, 0, 0));\n        weekDetails[0x777B061fB4C1eB1b5F745eBe45e0f462F1e298F8].push(Details(0, 40, 0, 0, 0, 0));\n\n        weekNo = 1;\n        addWeeks(0xB92D238ea91Ea398CdC2b885B8F4395Dd5C4Bf34);\n        addWeeks(0xB92D238ea91Ea398CdC2b885B8F4395Dd5C4Bf34);\n        addWeeks(0xB92D238ea91Ea398CdC2b885B8F4395Dd5C4Bf34);\n        inventory = [100, 20, 30, 40];\n        orderState = [0,0,0,0];\n    }\n\n    function addWeeks(address actor) public {\n        weekDetails[actor].push(Details(5,20,10,34,20,10));\n        weekNo++;\n    }\n\n\n    function checkWeekEnd() private {\n\n        if(players[msg.sender].role == 1)  \n            weekDetails[msg.sender][weekNo+1].demand = (uint(keccak256(abi.encode(block.difficulty, block.timestamp)))%100);\n\n        if(orderState[0]==1 && orderState[1]==1 && orderState[2]==1 && orderState[3]==1 ) {\n            orderState = [0, 0, 0, 0];\n            weekNo++;\n            emit weekEnd();\n        }\n    }\n\n    function order(uint _amt) public {\n        address upAddreess = players[msg.sender].upstream;\n        address downAddreess = players[msg.sender].downstream;\n\n        weekDetails[msg.sender][weekNo].inventoryReceived = weekDetails[upAddreess][weekNo-leadTime].shippingQuantity;\n        weekDetails[msg.sender][weekNo].inventoryPrevious = weekDetails[msg.sender][weekNo-1].inventoryLeft;\n\n        uint totalInventory = weekDetails[msg.sender][weekNo].inventoryReceived + weekDetails[msg.sender][weekNo].inventoryPrevious;\n\n\n        if(weekNo-leadTime > 0)\n            weekDetails[upAddreess][weekNo].demand = weekDetails[msg.sender][weekNo-leadTime].orderPlaced;\n        else\n            weekDetails[upAddreess][weekNo].demand = 0;\n\n        if(weekDetails[msg.sender][weekNo].demand < totalInventory) {\n            weekDetails[msg.sender][weekNo].shippingQuantity = weekDetails[msg.sender][weekNo].demand;\n            weekDetails[msg.sender][weekNo].inventoryLeft = totalInventory - weekDetails[msg.sender][weekNo].demand;\n        }\n        else {\n            weekDetails[msg.sender][weekNo].shippingQuantity = totalInventory;\n            weekDetails[msg.sender][weekNo].inventoryLeft = 0;\n        }\n\n\n        weekDetails[msg.sender][weekNo].orderPlaced = _amt;\n\n        orderState[players[msg.sender].role - 1] = 1;\n\n        checkWeekEnd();\n    }\n\n    function fillStock(uint _amt) public {\n\n        require(players[msg.sender].role==4);\n        weekDetails[msg.sender][weekNo].inventoryPrevious = weekDetails[msg.sender][weekNo-1].inventoryLeft;\n        weekDetails[msg.sender][weekNo].inventoryReceived = weekDetails[msg.sender][weekNo-leadTime].orderPlaced;\n        weekDetails[msg.sender][weekNo].orderPlaced = _amt;\n//        players[msg.sender].inventory += _amt;\n//        inventory[players[msg.sender].role - 1] += _amt;\n//        emit orderSent(_amt);\n    }\n\n/*function clearStock(uint _amt) public {\n       // require(_amt <= players[msg.sender].inventory && _amt<= players[msg.sender].orderReceived);\n        players[msg.sender].inventory -= _amt;\n        inventory[players[msg.sender].role-1] -= _amt;\n\n        players[msg.sender].orderReceived -= _amt;\n        //emit orderSent(_amt);\n    }\n\n\n    function orderDown(uint _amt) public {\n\n        require(_amt <= players[msg.sender].inventory && _amt<= players[msg.sender].orderReceived);\n\n        address downAddress = players[msg.sender].downstream;\n        players[downAddress].inventory += _amt;\n        inventory[players[downAddress].role-1] += _amt;\n\n        players[msg.sender].inventory -= _amt;\n        inventory[players[msg.sender].role-1] -= _amt;\n\n        players[msg.sender].orderReceived -= _amt;\n\n        emit orderSent(_amt);\n    }\n*/\n}\n",
  "sourcePath": "/home/kenil/Desktop/SupplyChainDapp/SupplyChain/contracts/SupplyChain.sol",
  "compiler": {
    "name": "solc",
    "version": "0.5.8+commit.23d335f2.Emscripten.clang"
  },
  "schemaVersion": "3.0.17",
  "updatedAt": "2020-01-14T11:55:17.913Z",
  "networkType": "ethereum",
  "devdoc": {
    "methods": {}
  },
  "userdoc": {
    "methods": {}
  }
}