{
  "contractName": "SupplyChain",
  "abi": [
    {
      "constant": true,
      "inputs": [
        {
          "name": "",
          "type": "uint256"
        }
      ],
      "name": "adds",
      "outputs": [
        {
          "name": "",
          "type": "address"
        }
      ],
      "payable": false,
      "stateMutability": "view",
      "type": "function"
    },
    {
      "constant": true,
      "inputs": [
        {
          "name": "",
          "type": "uint256"
        }
      ],
      "name": "orderState",
      "outputs": [
        {
          "name": "",
          "type": "uint256"
        }
      ],
      "payable": false,
      "stateMutability": "view",
      "type": "function"
    },
    {
      "constant": true,
      "inputs": [
        {
          "name": "",
          "type": "uint256"
        }
      ],
      "name": "inventory",
      "outputs": [
        {
          "name": "",
          "type": "uint256"
        }
      ],
      "payable": false,
      "stateMutability": "view",
      "type": "function"
    },
    {
      "constant": true,
      "inputs": [
        {
          "name": "",
          "type": "address"
        },
        {
          "name": "",
          "type": "uint256"
        }
      ],
      "name": "weekDetails",
      "outputs": [
        {
          "name": "weekNo",
          "type": "uint256"
        },
        {
          "name": "inventoryReceived",
          "type": "uint256"
        },
        {
          "name": "inventoryPrevious",
          "type": "uint256"
        },
        {
          "name": "demand",
          "type": "uint256"
        },
        {
          "name": "shippingQuantity",
          "type": "uint256"
        },
        {
          "name": "orderPlaced",
          "type": "uint256"
        },
        {
          "name": "inventoryLeft",
          "type": "uint256"
        }
      ],
      "payable": false,
      "stateMutability": "view",
      "type": "function"
    },
    {
      "constant": true,
      "inputs": [],
      "name": "leadTime",
      "outputs": [
        {
          "name": "",
          "type": "uint256"
        }
      ],
      "payable": false,
      "stateMutability": "view",
      "type": "function"
    },
    {
      "constant": true,
      "inputs": [],
      "name": "weekNo",
      "outputs": [
        {
          "name": "",
          "type": "uint256"
        }
      ],
      "payable": false,
      "stateMutability": "view",
      "type": "function"
    },
    {
      "constant": true,
      "inputs": [
        {
          "name": "",
          "type": "address"
        }
      ],
      "name": "players",
      "outputs": [
        {
          "name": "role",
          "type": "uint256"
        },
        {
          "name": "upstream",
          "type": "address"
        },
        {
          "name": "downstream",
          "type": "address"
        }
      ],
      "payable": false,
      "stateMutability": "view",
      "type": "function"
    },
    {
      "inputs": [],
      "payable": false,
      "stateMutability": "nonpayable",
      "type": "constructor"
    },
    {
      "anonymous": false,
      "inputs": [],
      "name": "weekEnd",
      "type": "event"
    },
    {
      "constant": false,
      "inputs": [
        {
          "name": "role",
          "type": "uint256"
        },
        {
          "name": "add",
          "type": "address"
        },
        {
          "name": "upAdd",
          "type": "address"
        }
      ],
      "name": "updateDetails",
      "outputs": [],
      "payable": false,
      "stateMutability": "nonpayable",
      "type": "function"
    },
    {
      "constant": false,
      "inputs": [
        {
          "name": "_amt",
          "type": "uint256"
        }
      ],
      "name": "order",
      "outputs": [],
      "payable": false,
      "stateMutability": "nonpayable",
      "type": "function"
    }
  ],
  "bytecode": "0x60806040523480156200001157600080fd5b50620000226200002860201b60201c565b62000c4b565b604051806060016040528060018152602001735a528ef100931de8dd12c08d09877ac038af04eb73ffffffffffffffffffffffffffffffffffffffff16815260200173b92d238ea91ea398cdc2b885b8f4395dd5c4bf3473ffffffffffffffffffffffffffffffffffffffff16815250600a600073b92d238ea91ea398cdc2b885b8f4395dd5c4bf3473ffffffffffffffffffffffffffffffffffffffff1673ffffffffffffffffffffffffffffffffffffffff1681526020019081526020016000206000820151816000015560208201518160010160006101000a81548173ffffffffffffffffffffffffffffffffffffffff021916908373ffffffffffffffffffffffffffffffffffffffff16021790555060408201518160020160006101000a81548173ffffffffffffffffffffffffffffffffffffffff021916908373ffffffffffffffffffffffffffffffffffffffff16021790555090505060405180606001604052806002815260200173eb01d15d4c7b3c75bb801e8ffde842e3a5e4d94c73ffffffffffffffffffffffffffffffffffffffff16815260200173b92d238ea91ea398cdc2b885b8f4395dd5c4bf3473ffffffffffffffffffffffffffffffffffffffff16815250600a6000735a528ef100931de8dd12c08d09877ac038af04eb73ffffffffffffffffffffffffffffffffffffffff1673ffffffffffffffffffffffffffffffffffffffff1681526020019081526020016000206000820151816000015560208201518160010160006101000a81548173ffffffffffffffffffffffffffffffffffffffff021916908373ffffffffffffffffffffffffffffffffffffffff16021790555060408201518160020160006101000a81548173ffffffffffffffffffffffffffffffffffffffff021916908373ffffffffffffffffffffffffffffffffffffffff16021790555090505060405180606001604052806003815260200173777b061fb4c1eb1b5f745ebe45e0f462f1e298f873ffffffffffffffffffffffffffffffffffffffff168152602001735a528ef100931de8dd12c08d09877ac038af04eb73ffffffffffffffffffffffffffffffffffffffff16815250600a600073eb01d15d4c7b3c75bb801e8ffde842e3a5e4d94c73ffffffffffffffffffffffffffffffffffffffff1673ffffffffffffffffffffffffffffffffffffffff1681526020019081526020016000206000820151816000015560208201518160010160006101000a81548173ffffffffffffffffffffffffffffffffffffffff021916908373ffffffffffffffffffffffffffffffffffffffff16021790555060408201518160020160006101000a81548173ffffffffffffffffffffffffffffffffffffffff021916908373ffffffffffffffffffffffffffffffffffffffff16021790555090505060405180606001604052806004815260200173777b061fb4c1eb1b5f745ebe45e0f462f1e298f873ffffffffffffffffffffffffffffffffffffffff16815260200173eb01d15d4c7b3c75bb801e8ffde842e3a5e4d94c73ffffffffffffffffffffffffffffffffffffffff16815250600a600073777b061fb4c1eb1b5f745ebe45e0f462f1e298f873ffffffffffffffffffffffffffffffffffffffff1673ffffffffffffffffffffffffffffffffffffffff1681526020019081526020016000206000820151816000015560208201518160010160006101000a81548173ffffffffffffffffffffffffffffffffffffffff021916908373ffffffffffffffffffffffffffffffffffffffff16021790555060408201518160020160006101000a81548173ffffffffffffffffffffffffffffffffffffffff021916908373ffffffffffffffffffffffffffffffffffffffff160217905550905050600b600073b92d238ea91ea398cdc2b885b8f4395dd5c4bf3473ffffffffffffffffffffffffffffffffffffffff1673ffffffffffffffffffffffffffffffffffffffff1681526020019081526020016000206040518060e00160405280600181526020016000815260200160328152602001601481526020016014815260200160008152602001601e81525090806001815401808255809150509060018203906000526020600020906007020160009091929091909150600082015181600001556020820151816001015560408201518160020155606082015181600301556080820151816004015560a0820151816005015560c08201518160060155505050600b6000735a528ef100931de8dd12c08d09877ac038af04eb73ffffffffffffffffffffffffffffffffffffffff1673ffffffffffffffffffffffffffffffffffffffff1681526020019081526020016000206040518060e00160405280600181526020016000815260200160328152602001600081526020016000815260200160008152602001603281525090806001815401808255809150509060018203906000526020600020906007020160009091929091909150600082015181600001556020820151816001015560408201518160020155606082015181600301556080820151816004015560a0820151816005015560c08201518160060155505050600b600073eb01d15d4c7b3c75bb801e8ffde842e3a5e4d94c73ffffffffffffffffffffffffffffffffffffffff1673ffffffffffffffffffffffffffffffffffffffff1681526020019081526020016000206040518060e00160405280600181526020016000815260200160328152602001600081526020016000815260200160008152602001603281525090806001815401808255809150509060018203906000526020600020906007020160009091929091909150600082015181600001556020820151816001015560408201518160020155606082015181600301556080820151816004015560a0820151816005015560c08201518160060155505050600b600073777b061fb4c1eb1b5f745ebe45e0f462f1e298f873ffffffffffffffffffffffffffffffffffffffff1673ffffffffffffffffffffffffffffffffffffffff1681526020019081526020016000206040518060e00160405280600181526020016000815260200160328152602001600081526020016000815260200160008152602001603281525090806001815401808255809150509060018203906000526020600020906007020160009091929091909150600082015181600001556020820151816001015560408201518160020155606082015181600301556080820151816004015560a0820151816005015560c0820151816006015550505073b92d238ea91ea398cdc2b885b8f4395dd5c4bf34600c60006001815260200190815260200160002060006101000a81548173ffffffffffffffffffffffffffffffffffffffff021916908373ffffffffffffffffffffffffffffffffffffffff160217905550735a528ef100931de8dd12c08d09877ac038af04eb600c60006002815260200190815260200160002060006101000a81548173ffffffffffffffffffffffffffffffffffffffff021916908373ffffffffffffffffffffffffffffffffffffffff16021790555073eb01d15d4c7b3c75bb801e8ffde842e3a5e4d94c600c60006003815260200190815260200160002060006101000a81548173ffffffffffffffffffffffffffffffffffffffff021916908373ffffffffffffffffffffffffffffffffffffffff16021790555073777b061fb4c1eb1b5f745ebe45e0f462f1e298f8600c60006004815260200190815260200160002060006101000a81548173ffffffffffffffffffffffffffffffffffffffff021916908373ffffffffffffffffffffffffffffffffffffffff1602179055506001600081905550600180819055506040518060800160405280603260ff168152602001603260ff168152602001603260ff168152602001603260ff16815250600690600462000b9292919062000bd9565b506040518060800160405280600060ff168152602001600060ff168152602001600060ff168152602001600060ff16815250600290600462000bd692919062000bd9565b50565b826004810192821562000c10579160200282015b8281111562000c0f578251829060ff1690559160200191906001019062000bed565b5b50905062000c1f919062000c23565b5090565b62000c4891905b8082111562000c4457600081600090555060010162000c2a565b5090565b90565b6112da8062000c5b6000396000f3fe608060405234801561001057600080fd5b50600436106100935760003560e01c8063567802da11610066578063567802da146101b857806386742a2c146102445780638c8d04a7146102b2578063de0ac159146102d0578063e2eb41ff146102ee57610093565b806321603f431461009857806336720309146100c65780634077c33c146101345780634272ee1814610176575b600080fd5b6100c4600480360360208110156100ae57600080fd5b81019080803590602001909291905050506103ac565b005b6100f2600480360360208110156100dc57600080fd5b8101908080359060200190929190505050610566565b604051808273ffffffffffffffffffffffffffffffffffffffff1673ffffffffffffffffffffffffffffffffffffffff16815260200191505060405180910390f35b6101606004803603602081101561014a57600080fd5b8101908080359060200190929190505050610599565b6040518082815260200191505060405180910390f35b6101a26004803603602081101561018c57600080fd5b81019080803590602001909291905050506105b1565b6040518082815260200191505060405180910390f35b610204600480360360408110156101ce57600080fd5b81019080803573ffffffffffffffffffffffffffffffffffffffff169060200190929190803590602001909291905050506105c9565b6040518088815260200187815260200186815260200185815260200184815260200183815260200182815260200197505050505050505060405180910390f35b6102b06004803603606081101561025a57600080fd5b8101908080359060200190929190803573ffffffffffffffffffffffffffffffffffffffff169060200190929190803573ffffffffffffffffffffffffffffffffffffffff169060200190929190505050610625565b005b6102ba610e2b565b6040518082815260200191505060405180910390f35b6102d8610e31565b6040518082815260200191505060405180910390f35b6103306004803603602081101561030457600080fd5b81019080803573ffffffffffffffffffffffffffffffffffffffff169060200190929190505050610e37565b604051808481526020018373ffffffffffffffffffffffffffffffffffffffff1673ffffffffffffffffffffffffffffffffffffffff1681526020018273ffffffffffffffffffffffffffffffffffffffff1673ffffffffffffffffffffffffffffffffffffffff168152602001935050505060405180910390f35b600b60003373ffffffffffffffffffffffffffffffffffffffff1673ffffffffffffffffffffffffffffffffffffffff1681526020019081526020016000206040518060e0016040528060016000540181526020016000815260200160008152602001600081526020016000815260200160008152602001600081525090806001815401808255809150509060018203906000526020600020906007020160009091929091909150600082015181600001556020820151816001015560408201518160020155606082015181600301556080820151816004015560a0820151816005015560c0820151816006015550505080600b60003373ffffffffffffffffffffffffffffffffffffffff1673ffffffffffffffffffffffffffffffffffffffff168152602001908152602001600020600160005403815481106104ed57fe5b906000526020600020906007020160050181905550600160026001600a60003373ffffffffffffffffffffffffffffffffffffffff1673ffffffffffffffffffffffffffffffffffffffff16815260200190815260200160002060000154036004811061055657fe5b0181905550610563610ea1565b50565b600c6020528060005260406000206000915054906101000a900473ffffffffffffffffffffffffffffffffffffffff1681565b600281600481106105a657fe5b016000915090505481565b600681600481106105be57fe5b016000915090505481565b600b60205281600052604060002081815481106105e257fe5b9060005260206000209060070201600091509150508060000154908060010154908060020154908060030154908060040154908060050154908060060154905087565b600b60008373ffffffffffffffffffffffffffffffffffffffff1673ffffffffffffffffffffffffffffffffffffffff1681526020019081526020016000206001600054038154811061067457fe5b906000526020600020906007020160060154600b60008473ffffffffffffffffffffffffffffffffffffffff1673ffffffffffffffffffffffffffffffffffffffff168152602001908152602001600020600054815481106106d257fe5b9060005260206000209060070201600201819055506004831461087957600b60008273ffffffffffffffffffffffffffffffffffffffff1673ffffffffffffffffffffffffffffffffffffffff168152602001908152602001600020600154600054038154811061073f57fe5b906000526020600020906007020160040154600b60008473ffffffffffffffffffffffffffffffffffffffff1673ffffffffffffffffffffffffffffffffffffffff1681526020019081526020016000206000548154811061079d57fe5b906000526020600020906007020160010181905550600b60008373ffffffffffffffffffffffffffffffffffffffff1673ffffffffffffffffffffffffffffffffffffffff1681526020019081526020016000206001600054038154811061080157fe5b906000526020600020906007020160050154600b60008373ffffffffffffffffffffffffffffffffffffffff1673ffffffffffffffffffffffffffffffffffffffff1681526020019081526020016000206000548154811061085f57fe5b90600052602060002090600702016003018190555061093d565b600b60008373ffffffffffffffffffffffffffffffffffffffff1673ffffffffffffffffffffffffffffffffffffffff16815260200190815260200160002060015460005403815481106108c957fe5b906000526020600020906007020160050154600b60008473ffffffffffffffffffffffffffffffffffffffff1673ffffffffffffffffffffffffffffffffffffffff1681526020019081526020016000206000548154811061092757fe5b9060005260206000209060070201600101819055505b600b60008373ffffffffffffffffffffffffffffffffffffffff1673ffffffffffffffffffffffffffffffffffffffff1681526020019081526020016000206001600054038154811061098c57fe5b906000526020600020906007020160060154600b60008473ffffffffffffffffffffffffffffffffffffffff1673ffffffffffffffffffffffffffffffffffffffff168152602001908152602001600020600054815481106109ea57fe5b9060005260206000209060070201600201819055506000600b60008473ffffffffffffffffffffffffffffffffffffffff1673ffffffffffffffffffffffffffffffffffffffff16815260200190815260200160002060005481548110610a4d57fe5b906000526020600020906007020160020154600b60008573ffffffffffffffffffffffffffffffffffffffff1673ffffffffffffffffffffffffffffffffffffffff16815260200190815260200160002060005481548110610aab57fe5b90600052602060002090600702016001015401905080600b60008573ffffffffffffffffffffffffffffffffffffffff1673ffffffffffffffffffffffffffffffffffffffff16815260200190815260200160002060005481548110610b0d57fe5b9060005260206000209060070201600301541015610caa57600b60008473ffffffffffffffffffffffffffffffffffffffff1673ffffffffffffffffffffffffffffffffffffffff16815260200190815260200160002060005481548110610b7157fe5b906000526020600020906007020160030154600b60008573ffffffffffffffffffffffffffffffffffffffff1673ffffffffffffffffffffffffffffffffffffffff16815260200190815260200160002060005481548110610bcf57fe5b906000526020600020906007020160040181905550600b60008473ffffffffffffffffffffffffffffffffffffffff1673ffffffffffffffffffffffffffffffffffffffff16815260200190815260200160002060005481548110610c3057fe5b9060005260206000209060070201600301548103600b60008573ffffffffffffffffffffffffffffffffffffffff1673ffffffffffffffffffffffffffffffffffffffff16815260200190815260200160002060005481548110610c9057fe5b906000526020600020906007020160060181905550610d70565b80600b60008573ffffffffffffffffffffffffffffffffffffffff1673ffffffffffffffffffffffffffffffffffffffff16815260200190815260200160002060005481548110610cf757fe5b9060005260206000209060070201600401819055506000600b60008573ffffffffffffffffffffffffffffffffffffffff1673ffffffffffffffffffffffffffffffffffffffff16815260200190815260200160002060005481548110610d5a57fe5b9060005260206000209060070201600601819055505b600b60008473ffffffffffffffffffffffffffffffffffffffff1673ffffffffffffffffffffffffffffffffffffffff16815260200190815260200160002060005481548110610dbc57fe5b90600052602060002090600702016006015460066001600a60008773ffffffffffffffffffffffffffffffffffffffff1673ffffffffffffffffffffffffffffffffffffffff168152602001908152602001600020600001540360048110610e2057fe5b018190555050505050565b60015481565b60005481565b600a6020528060005260406000206000915090508060000154908060010160009054906101000a900473ffffffffffffffffffffffffffffffffffffffff16908060020160009054906101000a900473ffffffffffffffffffffffffffffffffffffffff16905083565b6001600a60003373ffffffffffffffffffffffffffffffffffffffff1673ffffffffffffffffffffffffffffffffffffffff168152602001908152602001600020600001541415610f8a576064444260405160200180838152602001828152602001925050506040516020818303038152906040528051906020012060001c81610f2757fe5b06600b60003373ffffffffffffffffffffffffffffffffffffffff1673ffffffffffffffffffffffffffffffffffffffff16815260200190815260200160002060005481548110610f7457fe5b9060005260206000209060070201600301819055505b60016002600060048110610f9a57fe5b0154148015610fb8575060016002600160048110610fb457fe5b0154145b8015610fd25750600160028060048110610fce57fe5b0154145b8015610fed575060016002600360048110610fe957fe5b0154145b15611242576040518060800160405280600060ff168152602001600060ff168152602001600060ff168152602001600060ff168152506002906004611033929190611244565b506110a86001600c60006001815260200190815260200160002060009054906101000a900473ffffffffffffffffffffffffffffffffffffffff16600c60006002815260200190815260200160002060009054906101000a900473ffffffffffffffffffffffffffffffffffffffff16610625565b61111c6002600c60006002815260200190815260200160002060009054906101000a900473ffffffffffffffffffffffffffffffffffffffff16600c60006003815260200190815260200160002060009054906101000a900473ffffffffffffffffffffffffffffffffffffffff16610625565b6111906003600c60006003815260200190815260200160002060009054906101000a900473ffffffffffffffffffffffffffffffffffffffff16600c60006004815260200190815260200160002060009054906101000a900473ffffffffffffffffffffffffffffffffffffffff16610625565b6112046004600c60006004815260200190815260200160002060009054906101000a900473ffffffffffffffffffffffffffffffffffffffff16600c60006004815260200190815260200160002060009054906101000a900473ffffffffffffffffffffffffffffffffffffffff16610625565b60008081548092919060010191905055507f68e88fafe1fbb7460dc442ab8fb3c91cfd6aaa447128ffb4bc091eb739260f5360405160405180910390a15b565b8260048101928215611278579160200282015b82811115611277578251829060ff16905591602001919060010190611257565b5b5090506112859190611289565b5090565b6112ab91905b808211156112a757600081600090555060010161128f565b5090565b9056fea165627a7a72305820c9d76ba1b60e167bc4d42e215382729d84964599410601322ef2da6582ff3a0b0029",
  "source": "\npragma solidity ^0.5.0;\n\ncontract SupplyChain {\n\n    struct Details {\n        uint weekNo;\n        uint inventoryReceived;\n        uint inventoryPrevious;\n        uint demand;\n        uint shippingQuantity;\n        uint orderPlaced;\n        uint inventoryLeft;         \n        }\n\n    struct Player {\n        uint role;\n        address upstream;\n        address downstream;\n    }\n\n    uint public weekNo;\n    uint public leadTime;\n    uint[4] public orderState;\n    uint[4] public inventory;\n\n    mapping(address => Player) public players;\n    mapping(address => Details[]) public weekDetails;\n\n    mapping(uint => address) public adds;\n    \n\n    event weekEnd (\n    );\n\n\n\n    constructor () public {\n        setRoles();\n    }\n\n\n    function setRoles() private {\n        players[0xB92D238ea91Ea398CdC2b885B8F4395Dd5C4Bf34] = Player(1, 0x5a528ef100931de8dd12C08d09877ac038AF04eb, 0xB92D238ea91Ea398CdC2b885B8F4395Dd5C4Bf34);\n        players[0x5a528ef100931de8dd12C08d09877ac038AF04eb] = Player(2, 0xeb01d15D4C7B3c75bB801E8fFDE842E3a5e4D94C, 0xB92D238ea91Ea398CdC2b885B8F4395Dd5C4Bf34);\n        players[0xeb01d15D4C7B3c75bB801E8fFDE842E3a5e4D94C] = Player(3,0x777B061fB4C1eB1b5F745eBe45e0f462F1e298F8, 0x5a528ef100931de8dd12C08d09877ac038AF04eb);\n        players[0x777B061fB4C1eB1b5F745eBe45e0f462F1e298F8] = Player(4, 0x777B061fB4C1eB1b5F745eBe45e0f462F1e298F8, 0xeb01d15D4C7B3c75bB801E8fFDE842E3a5e4D94C);\n\n        weekDetails[0xB92D238ea91Ea398CdC2b885B8F4395Dd5C4Bf34].push(Details(1, 0, 50, 20, 20, 0, 30));\n        weekDetails[0x5a528ef100931de8dd12C08d09877ac038AF04eb].push(Details(1, 0, 50, 0, 0, 0, 50));\n        weekDetails[0xeb01d15D4C7B3c75bB801E8fFDE842E3a5e4D94C].push(Details(1, 0, 50, 0, 0, 0, 50));\n        weekDetails[0x777B061fB4C1eB1b5F745eBe45e0f462F1e298F8].push(Details(1, 0, 50, 0, 0, 0, 50));\n\n\n        adds[1] = 0xB92D238ea91Ea398CdC2b885B8F4395Dd5C4Bf34;\n        adds[2] = 0x5a528ef100931de8dd12C08d09877ac038AF04eb;\n        adds[3] = 0xeb01d15D4C7B3c75bB801E8fFDE842E3a5e4D94C;\n        adds[4] = 0x777B061fB4C1eB1b5F745eBe45e0f462F1e298F8;\n\n\n        weekNo = 1;\n        leadTime = 1;\n        inventory = [50, 50, 50, 50];\n        orderState = [0,0,0,0];\n    }\n\n\n    function checkWeekEnd() private {\n\n        if(players[msg.sender].role == 1) {\n            weekDetails[msg.sender][weekNo].demand = (uint(keccak256(abi.encode(block.difficulty, block.timestamp)))%100);\n        }\n\n        \n\n        if(orderState[0]==1 && orderState[1]==1 && orderState[2]==1 && orderState[3]==1 ) {\n            orderState = [0, 0, 0, 0];\n\n            updateDetails(1, adds[1], adds[2]);\n            updateDetails(2, adds[2], adds[3]);\n            updateDetails(3, adds[3], adds[4]);\n            updateDetails(4, adds[4], adds[4]);\n\n            weekNo++;\n            emit weekEnd();\n        }\n    }\n\n    function updateDetails (uint role, address add, address upAdd) public{\n        weekDetails[add][weekNo].inventoryPrevious = weekDetails[add][weekNo-1].inventoryLeft;\n        if(role != 4) {\n            weekDetails[add][weekNo].inventoryReceived = weekDetails[upAdd][weekNo-leadTime].shippingQuantity;\n            weekDetails[upAdd][weekNo].demand = weekDetails[add][weekNo-1].orderPlaced;\n        }\n        else\n            weekDetails[add][weekNo].inventoryReceived = weekDetails[add][weekNo-leadTime].orderPlaced;\n\n        weekDetails[add][weekNo].inventoryPrevious = weekDetails[add][weekNo-1].inventoryLeft;\n\n        uint totalInventory = weekDetails[add][weekNo].inventoryReceived + weekDetails[add][weekNo].inventoryPrevious;\n\n        if(weekDetails[add][weekNo].demand < totalInventory) {\n                weekDetails[add][weekNo].shippingQuantity = weekDetails[add][weekNo].demand;\n                weekDetails[add][weekNo].inventoryLeft = totalInventory - weekDetails[add][weekNo].demand;       \n        }\n        else {\n            weekDetails[add][weekNo].shippingQuantity = totalInventory;\n            weekDetails[add][weekNo].inventoryLeft = 0;\n        }\n\n        inventory[players[add].role-1] = weekDetails[add][weekNo].inventoryLeft;\n\n    }\n\n\n    function order(uint _amt) public {\n\n        weekDetails[msg.sender].push(Details(weekNo+1,0,0,0,0,0,0));\n        weekDetails[msg.sender][weekNo-1].orderPlaced = _amt;\n\n/*        address upAddreess = players[msg.sender].upstream;\n        address downAddress = players[msg.sender].downstream;\n\n        weekDetails[msg.sender][weekNo-1].orderPlaced = _amt;\n\n        if(weekDetails[msg.sender].length <= weekNo)\n            weekDetails[msg.sender].push(Details(0,0,0,0,0,0));\n\n        if(weekDetails[upAddreess].length <= weekNo)\n            weekDetails[upAddreess].push(Details(0,0,0,0,0,0));    \n\n        weekDetails[msg.sender][weekNo].inventoryPrevious = weekDetails[msg.sender][weekNo-1].inventoryLeft;\n\n        if(players[msg.sender].role != 4) {\n            weekDetails[msg.sender][weekNo].inventoryReceived = weekDetails[upAddreess][weekNo-leadTime].shippingQuantity;\n            weekDetails[upAddreess][weekNo].demand = weekDetails[msg.sender][weekNo-1].orderPlaced;\n        }\n        else {\n            weekDetails[msg.sender][weekNo].inventoryReceived = weekDetails[msg.sender][weekNo-leadTime].orderPlaced;\n        }\n\n        uint totalInventory = weekDetails[msg.sender][weekNo].inventoryReceived + weekDetails[msg.sender][weekNo].inventoryPrevious;\n\n\n\n        if(weekDetails[downAddress][weekNo-1].demand < totalInventory) {\n            weekDetails[msg.sender][weekNo].shippingQuantity = weekDetails[downAddress][weekNo-1].orderPlaced;\n            weekDetails[msg.sender][weekNo].inventoryLeft = totalInventory - weekDetails[downAddress][weekNo-1].demand;\n        }\n        else {\n            weekDetails[msg.sender][weekNo].shippingQuantity = totalInventory;\n            weekDetails[msg.sender][weekNo].inventoryLeft = 0;\n        }\n*/\n\n        orderState[players[msg.sender].role - 1] = 1;\n\n        checkWeekEnd(); \n    }\n\n /*   function fillStock(uint _amt) public {\n\n        require(players[msg.sender].role==4);\n        weekDetails[msg.sender][weekNo].inventoryPrevious = weekDetails[msg.sender][weekNo-1].inventoryLeft;\n        weekDetails[msg.sender][weekNo].inventoryReceived = weekDetails[msg.sender][weekNo-leadTime].orderPlaced;\n        weekDetails[msg.sender][weekNo].orderPlaced = _amt;\n//        players[msg.sender].inventory += _amt;\n//        inventory[players[msg.sender].role - 1] += _amt;\n//        emit orderSent(_amt);\n    }\n\n/*function clearStock(uint _amt) public {\n       // require(_amt <= players[msg.sender].inventory && _amt<= players[msg.sender].orderReceived);\n        players[msg.sender].inventory -= _amt;\n        inventory[players[msg.sender].role-1] -= _amt;\n\n        players[msg.sender].orderReceived -= _amt;\n        //emit orderSent(_amt);\n    }\n\n\n    function orderDown(uint _amt) public {\n\n        require(_amt <= players[msg.sender].inventory && _amt<= players[msg.sender].orderReceived);\n\n        address downAddress = players[msg.sender].downstream;\n        players[downAddress].inventory += _amt;\n        inventory[players[downAddress].role-1] += _amt;\n\n        players[msg.sender].inventory -= _amt;\n        inventory[players[msg.sender].role-1] -= _amt;\n\n        players[msg.sender].orderReceived -= _amt;\n\n        emit orderSent(_amt);\n    }\n*/\n}\n",
  "sourcePath": "/home/kenil/Desktop/SupplyChainDapp/SupplyChain/contracts/SupplyChain.sol",
  "compiler": {
    "name": "solc",
    "version": "0.5.8+commit.23d335f2.Emscripten.clang"
  },
  "schemaVersion": "3.0.17",
  "updatedAt": "2020-01-21T06:08:51.443Z",
  "networkType": "ethereum",
  "devdoc": {
    "methods": {}
  },
  "userdoc": {
    "methods": {}
  }
}