{
    "contractName": "SupplyChain",
    "abi": [
        {
            "constant": true,
            "inputs": [
                {
                    "name": "",
                    "type": "uint256"
                }
            ],
            "name": "adds",
            "outputs": [
                {
                    "name": "",
                    "type": "address"
                }
            ],
            "payable": false,
            "stateMutability": "view",
            "type": "function",
            "signature": "0x36720309"
        },
        {
            "constant": true,
            "inputs": [],
            "name": "orderLeadTime",
            "outputs": [
                {
                    "name": "",
                    "type": "uint256"
                }
            ],
            "payable": false,
            "stateMutability": "view",
            "type": "function",
            "signature": "0x3e459c59"
        },
        {
            "constant": true,
            "inputs": [
                {
                    "name": "",
                    "type": "uint256"
                }
            ],
            "name": "orderState",
            "outputs": [
                {
                    "name": "",
                    "type": "uint256"
                }
            ],
            "payable": false,
            "stateMutability": "view",
            "type": "function",
            "signature": "0x4077c33c"
        },
        {
            "constant": true,
            "inputs": [
                {
                    "name": "",
                    "type": "uint256"
                }
            ],
            "name": "inventory",
            "outputs": [
                {
                    "name": "",
                    "type": "uint256"
                }
            ],
            "payable": false,
            "stateMutability": "view",
            "type": "function",
            "signature": "0x4272ee18"
        },
        {
            "constant": true,
            "inputs": [
                {
                    "name": "",
                    "type": "address"
                },
                {
                    "name": "",
                    "type": "uint256"
                }
            ],
            "name": "weekDetails",
            "outputs": [
                {
                    "name": "weekNo",
                    "type": "uint256"
                },
                {
                    "name": "inventoryReceived",
                    "type": "uint256"
                },
                {
                    "name": "inventoryPrevious",
                    "type": "uint256"
                },
                {
                    "name": "demand",
                    "type": "uint256"
                },
                {
                    "name": "shippingQuantity",
                    "type": "uint256"
                },
                {
                    "name": "orderPlaced",
                    "type": "uint256"
                },
                {
                    "name": "inventoryLeft",
                    "type": "uint256"
                }
            ],
            "payable": false,
            "stateMutability": "view",
            "type": "function",
            "signature": "0x567802da"
        },
        {
            "constant": true,
            "inputs": [],
            "name": "deliveryLeadTime",
            "outputs": [
                {
                    "name": "",
                    "type": "uint256"
                }
            ],
            "payable": false,
            "stateMutability": "view",
            "type": "function",
            "signature": "0xaf0f545f"
        },
        {
            "constant": true,
            "inputs": [],
            "name": "weekNo",
            "outputs": [
                {
                    "name": "",
                    "type": "uint256"
                }
            ],
            "payable": false,
            "stateMutability": "view",
            "type": "function",
            "signature": "0xde0ac159"
        },
        {
            "constant": true,
            "inputs": [
                {
                    "name": "",
                    "type": "address"
                }
            ],
            "name": "players",
            "outputs": [
                {
                    "name": "role",
                    "type": "uint256"
                },
                {
                    "name": "upstream",
                    "type": "address"
                },
                {
                    "name": "downstream",
                    "type": "address"
                }
            ],
            "payable": false,
            "stateMutability": "view",
            "type": "function",
            "signature": "0xe2eb41ff"
        },
        {
            "inputs": [
                {
                    "name": "add1",
                    "type": "address"
                },
                {
                    "name": "add2",
                    "type": "address"
                },
                {
                    "name": "add3",
                    "type": "address"
                },
                {
                    "name": "add4",
                    "type": "address"
                }
            ],
            "payable": false,
            "stateMutability": "nonpayable",
            "type": "constructor",
            "signature": "constructor"
        },
        {
            "anonymous": false,
            "inputs": [],
            "name": "weekEnd",
            "type": "event",
            "signature": "0x68e88fafe1fbb7460dc442ab8fb3c91cfd6aaa447128ffb4bc091eb739260f53"
        },
        {
            "constant": false,
            "inputs": [
                {
                    "name": "role",
                    "type": "uint256"
                },
                {
                    "name": "add",
                    "type": "address"
                },
                {
                    "name": "upAdd",
                    "type": "address"
                }
            ],
            "name": "updateDetails",
            "outputs": [],
            "payable": false,
            "stateMutability": "nonpayable",
            "type": "function",
            "signature": "0x86742a2c"
        },
        {
            "constant": false,
            "inputs": [
                {
                    "name": "_amt",
                    "type": "uint256"
                }
            ],
            "name": "order",
            "outputs": [],
            "payable": false,
            "stateMutability": "nonpayable",
            "type": "function",
            "signature": "0x21603f43"
        }
    ],
    "bytecode": "0x60806040523480156200001157600080fd5b5060405160808062001e55833981018060405260808110156200003357600080fd5b81019080805190602001909291908051906020019092919080519060200190929190805190602001909291905050506040518060600160405280600181526020018473ffffffffffffffffffffffffffffffffffffffff1681526020018573ffffffffffffffffffffffffffffffffffffffff16815250600b60008673ffffffffffffffffffffffffffffffffffffffff1673ffffffffffffffffffffffffffffffffffffffff1681526020019081526020016000206000820151816000015560208201518160010160006101000a81548173ffffffffffffffffffffffffffffffffffffffff021916908373ffffffffffffffffffffffffffffffffffffffff16021790555060408201518160020160006101000a81548173ffffffffffffffffffffffffffffffffffffffff021916908373ffffffffffffffffffffffffffffffffffffffff1602179055509050506040518060600160405280600281526020018373ffffffffffffffffffffffffffffffffffffffff1681526020018573ffffffffffffffffffffffffffffffffffffffff16815250600b60008573ffffffffffffffffffffffffffffffffffffffff1673ffffffffffffffffffffffffffffffffffffffff1681526020019081526020016000206000820151816000015560208201518160010160006101000a81548173ffffffffffffffffffffffffffffffffffffffff021916908373ffffffffffffffffffffffffffffffffffffffff16021790555060408201518160020160006101000a81548173ffffffffffffffffffffffffffffffffffffffff021916908373ffffffffffffffffffffffffffffffffffffffff1602179055509050506040518060600160405280600381526020018273ffffffffffffffffffffffffffffffffffffffff1681526020018473ffffffffffffffffffffffffffffffffffffffff16815250600b60008473ffffffffffffffffffffffffffffffffffffffff1673ffffffffffffffffffffffffffffffffffffffff1681526020019081526020016000206000820151816000015560208201518160010160006101000a81548173ffffffffffffffffffffffffffffffffffffffff021916908373ffffffffffffffffffffffffffffffffffffffff16021790555060408201518160020160006101000a81548173ffffffffffffffffffffffffffffffffffffffff021916908373ffffffffffffffffffffffffffffffffffffffff1602179055509050506040518060600160405280600481526020018273ffffffffffffffffffffffffffffffffffffffff1681526020018373ffffffffffffffffffffffffffffffffffffffff16815250600b60008373ffffffffffffffffffffffffffffffffffffffff1673ffffffffffffffffffffffffffffffffffffffff1681526020019081526020016000206000820151816000015560208201518160010160006101000a81548173ffffffffffffffffffffffffffffffffffffffff021916908373ffffffffffffffffffffffffffffffffffffffff16021790555060408201518160020160006101000a81548173ffffffffffffffffffffffffffffffffffffffff021916908373ffffffffffffffffffffffffffffffffffffffff160217905550905050600c60008573ffffffffffffffffffffffffffffffffffffffff1673ffffffffffffffffffffffffffffffffffffffff1681526020019081526020016000206040518060e00160405280600181526020016000815260200160328152602001601e8152602001601e815260200160008152602001601481525090806001815401808255809150509060018203906000526020600020906007020160009091929091909150600082015181600001556020820151816001015560408201518160020155606082015181600301556080820151816004015560a0820151816005015560c08201518160060155505050600c60008473ffffffffffffffffffffffffffffffffffffffff1673ffffffffffffffffffffffffffffffffffffffff1681526020019081526020016000206040518060e00160405280600181526020016000815260200160328152602001600081526020016000815260200160008152602001603281525090806001815401808255809150509060018203906000526020600020906007020160009091929091909150600082015181600001556020820151816001015560408201518160020155606082015181600301556080820151816004015560a0820151816005015560c08201518160060155505050600c60008373ffffffffffffffffffffffffffffffffffffffff1673ffffffffffffffffffffffffffffffffffffffff1681526020019081526020016000206040518060e00160405280600181526020016000815260200160328152602001600081526020016000815260200160008152602001603281525090806001815401808255809150509060018203906000526020600020906007020160009091929091909150600082015181600001556020820151816001015560408201518160020155606082015181600301556080820151816004015560a0820151816005015560c08201518160060155505050600c60008273ffffffffffffffffffffffffffffffffffffffff1673ffffffffffffffffffffffffffffffffffffffff1681526020019081526020016000206040518060e00160405280600181526020016000815260200160328152602001600081526020016000815260200160008152602001603281525090806001815401808255809150509060018203906000526020600020906007020160009091929091909150600082015181600001556020820151816001015560408201518160020155606082015181600301556080820151816004015560a0820151816005015560c0820151816006015550505083600d60006001815260200190815260200160002060006101000a81548173ffffffffffffffffffffffffffffffffffffffff021916908373ffffffffffffffffffffffffffffffffffffffff16021790555082600d60006002815260200190815260200160002060006101000a81548173ffffffffffffffffffffffffffffffffffffffff021916908373ffffffffffffffffffffffffffffffffffffffff16021790555081600d60006003815260200190815260200160002060006101000a81548173ffffffffffffffffffffffffffffffffffffffff021916908373ffffffffffffffffffffffffffffffffffffffff16021790555080600d60006004815260200190815260200160002060006101000a81548173ffffffffffffffffffffffffffffffffffffffff021916908373ffffffffffffffffffffffffffffffffffffffff16021790555060016000819055506001808190555060006002819055506040518060800160405280601460ff168152602001603260ff168152602001603260ff168152602001603260ff16815250600790600462000a4492919062000a93565b506040518060800160405280600060ff168152602001600060ff168152602001600060ff168152602001600060ff16815250600390600462000a8892919062000a93565b505050505062000b05565b826004810192821562000aca579160200282015b8281111562000ac9578251829060ff1690559160200191906001019062000aa7565b5b50905062000ad9919062000add565b5090565b62000b0291905b8082111562000afe57600081600090555060010162000ae4565b5090565b90565b6113408062000b156000396000f3fe608060405234801561001057600080fd5b506004361061009e5760003560e01c8063567802da11610066578063567802da146101e157806386742a2c1461026d578063af0f545f146102db578063de0ac159146102f9578063e2eb41ff146103175761009e565b806321603f43146100a357806336720309146100d15780633e459c591461013f5780634077c33c1461015d5780634272ee181461019f575b600080fd5b6100cf600480360360208110156100b957600080fd5b81019080803590602001909291905050506103d5565b005b6100fd600480360360208110156100e757600080fd5b810190808035906020019092919050505061058f565b604051808273ffffffffffffffffffffffffffffffffffffffff1673ffffffffffffffffffffffffffffffffffffffff16815260200191505060405180910390f35b6101476105c2565b6040518082815260200191505060405180910390f35b6101896004803603602081101561017357600080fd5b81019080803590602001909291905050506105c8565b6040518082815260200191505060405180910390f35b6101cb600480360360208110156101b557600080fd5b81019080803590602001909291905050506105e0565b6040518082815260200191505060405180910390f35b61022d600480360360408110156101f757600080fd5b81019080803573ffffffffffffffffffffffffffffffffffffffff169060200190929190803590602001909291905050506105f8565b6040518088815260200187815260200186815260200185815260200184815260200183815260200182815260200197505050505050505060405180910390f35b6102d96004803603606081101561028357600080fd5b8101908080359060200190929190803573ffffffffffffffffffffffffffffffffffffffff169060200190929190803573ffffffffffffffffffffffffffffffffffffffff169060200190929190505050610654565b005b6102e3610e8e565b6040518082815260200191505060405180910390f35b610301610e94565b6040518082815260200191505060405180910390f35b6103596004803603602081101561032d57600080fd5b81019080803573ffffffffffffffffffffffffffffffffffffffff169060200190929190505050610e9a565b604051808481526020018373ffffffffffffffffffffffffffffffffffffffff1673ffffffffffffffffffffffffffffffffffffffff1681526020018273ffffffffffffffffffffffffffffffffffffffff1673ffffffffffffffffffffffffffffffffffffffff168152602001935050505060405180910390f35b600c60003373ffffffffffffffffffffffffffffffffffffffff1673ffffffffffffffffffffffffffffffffffffffff1681526020019081526020016000206040518060e0016040528060016000540181526020016000815260200160008152602001600081526020016000815260200160008152602001600081525090806001815401808255809150509060018203906000526020600020906007020160009091929091909150600082015181600001556020820151816001015560408201518160020155606082015181600301556080820151816004015560a0820151816005015560c0820151816006015550505080600c60003373ffffffffffffffffffffffffffffffffffffffff1673ffffffffffffffffffffffffffffffffffffffff1681526020019081526020016000206001600054038154811061051657fe5b906000526020600020906007020160050181905550600160036001600b60003373ffffffffffffffffffffffffffffffffffffffff1673ffffffffffffffffffffffffffffffffffffffff16815260200190815260200160002060000154036004811061057f57fe5b018190555061058c610f04565b50565b600d6020528060005260406000206000915054906101000a900473ffffffffffffffffffffffffffffffffffffffff1681565b60025481565b600381600481106105d557fe5b016000915090505481565b600781600481106105ed57fe5b016000915090505481565b600c602052816000526040600020818154811061061157fe5b9060005260206000209060070201600091509150508060000154908060010154908060020154908060030154908060040154908060050154908060060154905087565b600c60008373ffffffffffffffffffffffffffffffffffffffff1673ffffffffffffffffffffffffffffffffffffffff168152602001908152602001600020600160005403815481106106a357fe5b906000526020600020906007020160060154600c60008473ffffffffffffffffffffffffffffffffffffffff1673ffffffffffffffffffffffffffffffffffffffff1681526020019081526020016000206000548154811061070157fe5b906000526020600020906007020160020181905550600483146108cd57600060015460005403106107f057600c60008273ffffffffffffffffffffffffffffffffffffffff1673ffffffffffffffffffffffffffffffffffffffff168152602001908152602001600020600154600054038154811061077c57fe5b906000526020600020906007020160040154600c60008473ffffffffffffffffffffffffffffffffffffffff1673ffffffffffffffffffffffffffffffffffffffff168152602001908152602001600020600054815481106107da57fe5b9060005260206000209060070201600101819055505b600060025460016000540303106108c857600c60008373ffffffffffffffffffffffffffffffffffffffff1673ffffffffffffffffffffffffffffffffffffffff168152602001908152602001600020600254600160005403038154811061085457fe5b906000526020600020906007020160050154600c60008373ffffffffffffffffffffffffffffffffffffffff1673ffffffffffffffffffffffffffffffffffffffff168152602001908152602001600020600054815481106108b257fe5b9060005260206000209060070201600301819055505b6109a0565b6000600154600054031061099f57600c60008373ffffffffffffffffffffffffffffffffffffffff1673ffffffffffffffffffffffffffffffffffffffff168152602001908152602001600020600154600054038154811061092b57fe5b906000526020600020906007020160050154600c60008473ffffffffffffffffffffffffffffffffffffffff1673ffffffffffffffffffffffffffffffffffffffff1681526020019081526020016000206000548154811061098957fe5b9060005260206000209060070201600101819055505b5b600c60008373ffffffffffffffffffffffffffffffffffffffff1673ffffffffffffffffffffffffffffffffffffffff168152602001908152602001600020600160005403815481106109ef57fe5b906000526020600020906007020160060154600c60008473ffffffffffffffffffffffffffffffffffffffff1673ffffffffffffffffffffffffffffffffffffffff16815260200190815260200160002060005481548110610a4d57fe5b9060005260206000209060070201600201819055506000600c60008473ffffffffffffffffffffffffffffffffffffffff1673ffffffffffffffffffffffffffffffffffffffff16815260200190815260200160002060005481548110610ab057fe5b906000526020600020906007020160020154600c60008573ffffffffffffffffffffffffffffffffffffffff1673ffffffffffffffffffffffffffffffffffffffff16815260200190815260200160002060005481548110610b0e57fe5b90600052602060002090600702016001015401905080600c60008573ffffffffffffffffffffffffffffffffffffffff1673ffffffffffffffffffffffffffffffffffffffff16815260200190815260200160002060005481548110610b7057fe5b9060005260206000209060070201600301541015610d0d57600c60008473ffffffffffffffffffffffffffffffffffffffff1673ffffffffffffffffffffffffffffffffffffffff16815260200190815260200160002060005481548110610bd457fe5b906000526020600020906007020160030154600c60008573ffffffffffffffffffffffffffffffffffffffff1673ffffffffffffffffffffffffffffffffffffffff16815260200190815260200160002060005481548110610c3257fe5b906000526020600020906007020160040181905550600c60008473ffffffffffffffffffffffffffffffffffffffff1673ffffffffffffffffffffffffffffffffffffffff16815260200190815260200160002060005481548110610c9357fe5b9060005260206000209060070201600301548103600c60008573ffffffffffffffffffffffffffffffffffffffff1673ffffffffffffffffffffffffffffffffffffffff16815260200190815260200160002060005481548110610cf357fe5b906000526020600020906007020160060181905550610dd3565b80600c60008573ffffffffffffffffffffffffffffffffffffffff1673ffffffffffffffffffffffffffffffffffffffff16815260200190815260200160002060005481548110610d5a57fe5b9060005260206000209060070201600401819055506000600c60008573ffffffffffffffffffffffffffffffffffffffff1673ffffffffffffffffffffffffffffffffffffffff16815260200190815260200160002060005481548110610dbd57fe5b9060005260206000209060070201600601819055505b600c60008473ffffffffffffffffffffffffffffffffffffffff1673ffffffffffffffffffffffffffffffffffffffff16815260200190815260200160002060005481548110610e1f57fe5b90600052602060002090600702016006015460076001600b60008773ffffffffffffffffffffffffffffffffffffffff1673ffffffffffffffffffffffffffffffffffffffff168152602001908152602001600020600001540360048110610e8357fe5b018190555050505050565b60015481565b60005481565b600b6020528060005260406000206000915090508060000154908060010160009054906101000a900473ffffffffffffffffffffffffffffffffffffffff16908060020160009054906101000a900473ffffffffffffffffffffffffffffffffffffffff16905083565b6001600b60003373ffffffffffffffffffffffffffffffffffffffff1673ffffffffffffffffffffffffffffffffffffffff168152602001908152602001600020600001541415610ff057600f444260405160200180838152602001828152602001925050506040516020818303038152906040528051906020012060001c81610f8a57fe5b07602801600c60003373ffffffffffffffffffffffffffffffffffffffff1673ffffffffffffffffffffffffffffffffffffffff16815260200190815260200160002060005481548110610fda57fe5b9060005260206000209060070201600301819055505b6001600360006004811061100057fe5b015414801561101e57506001600360016004811061101a57fe5b0154145b801561103957506001600360026004811061103557fe5b0154145b8015611053575060016003806004811061104f57fe5b0154145b156112a8576040518060800160405280600060ff168152602001600060ff168152602001600060ff168152602001600060ff1681525060039060046110999291906112aa565b5061110e6001600d60006001815260200190815260200160002060009054906101000a900473ffffffffffffffffffffffffffffffffffffffff16600d60006002815260200190815260200160002060009054906101000a900473ffffffffffffffffffffffffffffffffffffffff16610654565b6111826002600d60006002815260200190815260200160002060009054906101000a900473ffffffffffffffffffffffffffffffffffffffff16600d60006003815260200190815260200160002060009054906101000a900473ffffffffffffffffffffffffffffffffffffffff16610654565b6111f66003600d60006003815260200190815260200160002060009054906101000a900473ffffffffffffffffffffffffffffffffffffffff16600d60006004815260200190815260200160002060009054906101000a900473ffffffffffffffffffffffffffffffffffffffff16610654565b61126a6004600d60006004815260200190815260200160002060009054906101000a900473ffffffffffffffffffffffffffffffffffffffff16600d60006004815260200190815260200160002060009054906101000a900473ffffffffffffffffffffffffffffffffffffffff16610654565b60008081548092919060010191905055507f68e88fafe1fbb7460dc442ab8fb3c91cfd6aaa447128ffb4bc091eb739260f5360405160405180910390a15b565b82600481019282156112de579160200282015b828111156112dd578251829060ff169055916020019190600101906112bd565b5b5090506112eb91906112ef565b5090565b61131191905b8082111561130d5760008160009055506001016112f5565b5090565b9056fea165627a7a723058207d9885a65bb3ee0e0d5956ef0c2768ec4bf894f9c303df6daa14a8789072fb590029",
    "source": "\npragma solidity ^0.5.0;\n\ncontract SupplyChain {\n\n    struct Details {\n        uint weekNo;\n        uint inventoryReceived;\n        uint inventoryPrevious;\n        uint demand;\n        uint shippingQuantity;\n        uint orderPlaced;\n        uint inventoryLeft;         \n        }\n\n    struct Player {\n        uint role;\n        address upstream;\n        address downstream;\n    }\n\n    uint public weekNo;\n    uint public deliveryLeadTime;\n    uint public orderLeadTime;\n    uint[4] public orderState;\n    uint[4] public inventory;\n\n    mapping(address => Player) public players;\n    mapping(address => Details[]) public weekDetails;\n\n    mapping(uint => address) public adds;\n    \n\n    event weekEnd (\n    );\n\n\n\n    constructor(address add1, address add2, address add3, address add4) public{\n        players[add1] = Player(1, add2, add1);\n        players[add2] = Player(2, add3, add1);\n        players[add3] = Player(3,add4, add2);\n        players[add4] = Player(4, add4, add3);\n\n        weekDetails[add1].push(Details(1, 0, 50, 30, 30, 0, 20));\n        weekDetails[add2].push(Details(1, 0, 50, 0, 0, 0, 50));\n        weekDetails[add3].push(Details(1, 0, 50, 0, 0, 0, 50));\n        weekDetails[add4].push(Details(1, 0, 50, 0, 0, 0, 50));\n\n\n        adds[1] = add1;\n        adds[2] = add2;\n        adds[3] = add3;\n        adds[4] = add4;\n\n\n        weekNo = 1;\n        deliveryLeadTime = 1;\n        orderLeadTime = 0;\n        inventory = [20, 50, 50, 50];\n        orderState = [0,0,0,0];\n    }\n\n\n    function checkWeekEnd() private {\n\n        if(players[msg.sender].role == 1) {\n            weekDetails[msg.sender][weekNo].demand = uint(40 + (int(keccak256(abi.encode(block.difficulty, block.timestamp)))%15));\n        }\n\n        \n\n        if(orderState[0]==1 && orderState[1]==1 && orderState[2]==1 && orderState[3]==1 ) {\n            orderState = [0, 0, 0, 0];\n\n            updateDetails(1, adds[1], adds[2]);\n            updateDetails(2, adds[2], adds[3]);\n            updateDetails(3, adds[3], adds[4]);\n            updateDetails(4, adds[4], adds[4]);\n\n            weekNo++;\n            emit weekEnd();\n        }\n    }\n\n    function updateDetails (uint role, address add, address upAdd) public{\n        weekDetails[add][weekNo].inventoryPrevious = weekDetails[add][weekNo-1].inventoryLeft;\n        if(role != 4) {\n            if(weekNo-deliveryLeadTime >= 0)\n                weekDetails[add][weekNo].inventoryReceived = weekDetails[upAdd][weekNo-deliveryLeadTime].shippingQuantity;\n            if(weekNo-1-orderLeadTime >= 0)\n                weekDetails[upAdd][weekNo].demand = weekDetails[add][weekNo-1-orderLeadTime].orderPlaced;\n        }\n        else\n            if(weekNo-deliveryLeadTime >= 0)\n                weekDetails[add][weekNo].inventoryReceived = weekDetails[add][weekNo-deliveryLeadTime].orderPlaced;\n\n        weekDetails[add][weekNo].inventoryPrevious = weekDetails[add][weekNo-1].inventoryLeft;\n\n        uint totalInventory = weekDetails[add][weekNo].inventoryReceived + weekDetails[add][weekNo].inventoryPrevious;\n\n        if(weekDetails[add][weekNo].demand < totalInventory) {\n                weekDetails[add][weekNo].shippingQuantity = weekDetails[add][weekNo].demand;\n                weekDetails[add][weekNo].inventoryLeft = totalInventory - weekDetails[add][weekNo].demand;       \n        }\n        else {\n            weekDetails[add][weekNo].shippingQuantity = totalInventory;\n            weekDetails[add][weekNo].inventoryLeft = 0;\n        }\n\n        inventory[players[add].role-1] = weekDetails[add][weekNo].inventoryLeft;\n\n    }\n\n\n    function order(uint _amt) public {\n\n        weekDetails[msg.sender].push(Details(weekNo+1,0,0,0,0,0,0));\n        weekDetails[msg.sender][weekNo-1].orderPlaced = _amt;\n\n        orderState[players[msg.sender].role - 1] = 1;\n\n        checkWeekEnd(); \n    }\n}\n",
    "sourcePath": "/home/kenil/Desktop/SupplyChainDapp/SupplyChain/contracts/SupplyChain.sol",
    "compiler": {
        "name": "solc",
        "version": "0.5.8+commit.23d335f2.Emscripten.clang"
    },
    "schemaVersion": "3.0.17",
    "updatedAt": "2020-03-28T01:45:33.587Z",
    "networkType": "ethereum",
    "devdoc": {
        "methods": {}
    },
    "userdoc": {
        "methods": {}
    }
}