{
  "contractName": "SupplyChain",
  "abi": [
    {
      "constant": true,
      "inputs": [
        {
          "name": "",
          "type": "uint256"
        }
      ],
      "name": "inventory",
      "outputs": [
        {
          "name": "",
          "type": "uint256"
        }
      ],
      "payable": false,
      "stateMutability": "view",
      "type": "function"
    },
    {
      "constant": true,
      "inputs": [],
      "name": "weekNo",
      "outputs": [
        {
          "name": "",
          "type": "uint256"
        }
      ],
      "payable": false,
      "stateMutability": "view",
      "type": "function"
    },
    {
      "constant": true,
      "inputs": [
        {
          "name": "",
          "type": "uint256"
        }
      ],
      "name": "week",
      "outputs": [
        {
          "name": "inventoryReceived",
          "type": "uint256"
        },
        {
          "name": "inventoryPrevious",
          "type": "uint256"
        },
        {
          "name": "demand",
          "type": "uint256"
        },
        {
          "name": "shippingQuantity",
          "type": "uint256"
        },
        {
          "name": "orderPlaced",
          "type": "uint256"
        },
        {
          "name": "inventoryLeft",
          "type": "uint256"
        }
      ],
      "payable": false,
      "stateMutability": "view",
      "type": "function"
    },
    {
      "constant": true,
      "inputs": [
        {
          "name": "",
          "type": "address"
        }
      ],
      "name": "players",
      "outputs": [
        {
          "name": "role",
          "type": "uint256"
        },
        {
          "name": "upstream",
          "type": "address"
        },
        {
          "name": "downstream",
          "type": "address"
        }
      ],
      "payable": false,
      "stateMutability": "view",
      "type": "function"
    },
    {
      "constant": true,
      "inputs": [
        {
          "name": "",
          "type": "address"
        },
        {
          "name": "",
          "type": "uint256"
        }
      ],
      "name": "play",
      "outputs": [
        {
          "name": "inventoryReceived",
          "type": "uint256"
        },
        {
          "name": "inventoryPrevious",
          "type": "uint256"
        },
        {
          "name": "demand",
          "type": "uint256"
        },
        {
          "name": "shippingQuantity",
          "type": "uint256"
        },
        {
          "name": "orderPlaced",
          "type": "uint256"
        },
        {
          "name": "inventoryLeft",
          "type": "uint256"
        }
      ],
      "payable": false,
      "stateMutability": "view",
      "type": "function"
    },
    {
      "inputs": [],
      "payable": false,
      "stateMutability": "nonpayable",
      "type": "constructor"
    },
    {
      "anonymous": false,
      "inputs": [
        {
          "indexed": true,
          "name": "_orderAmount",
          "type": "uint256"
        }
      ],
      "name": "orderPlaced",
      "type": "event"
    },
    {
      "anonymous": false,
      "inputs": [
        {
          "indexed": true,
          "name": "_amt",
          "type": "uint256"
        }
      ],
      "name": "orderSent",
      "type": "event"
    },
    {
      "constant": false,
      "inputs": [
        {
          "name": "actor",
          "type": "address"
        }
      ],
      "name": "addWeeks",
      "outputs": [],
      "payable": false,
      "stateMutability": "nonpayable",
      "type": "function"
    }
  ],
  "bytecode": "0x608060405234801561001057600080fd5b5061001f61002460201b60201c565b610b6c565b604051806060016040528060018152602001735a528ef100931de8dd12c08d09877ac038af04eb73ffffffffffffffffffffffffffffffffffffffff16815260200173b92d238ea91ea398cdc2b885b8f4395dd5c4bf3473ffffffffffffffffffffffffffffffffffffffff168152506001600073b92d238ea91ea398cdc2b885b8f4395dd5c4bf3473ffffffffffffffffffffffffffffffffffffffff1673ffffffffffffffffffffffffffffffffffffffff1681526020019081526020016000206000820151816000015560208201518160010160006101000a81548173ffffffffffffffffffffffffffffffffffffffff021916908373ffffffffffffffffffffffffffffffffffffffff16021790555060408201518160020160006101000a81548173ffffffffffffffffffffffffffffffffffffffff021916908373ffffffffffffffffffffffffffffffffffffffff16021790555090505060405180606001604052806002815260200173eb01d15d4c7b3c75bb801e8ffde842e3a5e4d94c73ffffffffffffffffffffffffffffffffffffffff16815260200173b92d238ea91ea398cdc2b885b8f4395dd5c4bf3473ffffffffffffffffffffffffffffffffffffffff1681525060016000735a528ef100931de8dd12c08d09877ac038af04eb73ffffffffffffffffffffffffffffffffffffffff1673ffffffffffffffffffffffffffffffffffffffff1681526020019081526020016000206000820151816000015560208201518160010160006101000a81548173ffffffffffffffffffffffffffffffffffffffff021916908373ffffffffffffffffffffffffffffffffffffffff16021790555060408201518160020160006101000a81548173ffffffffffffffffffffffffffffffffffffffff021916908373ffffffffffffffffffffffffffffffffffffffff16021790555090505060405180606001604052806003815260200173777b061fb4c1eb1b5f745ebe45e0f462f1e298f873ffffffffffffffffffffffffffffffffffffffff168152602001735a528ef100931de8dd12c08d09877ac038af04eb73ffffffffffffffffffffffffffffffffffffffff168152506001600073eb01d15d4c7b3c75bb801e8ffde842e3a5e4d94c73ffffffffffffffffffffffffffffffffffffffff1673ffffffffffffffffffffffffffffffffffffffff1681526020019081526020016000206000820151816000015560208201518160010160006101000a81548173ffffffffffffffffffffffffffffffffffffffff021916908373ffffffffffffffffffffffffffffffffffffffff16021790555060408201518160020160006101000a81548173ffffffffffffffffffffffffffffffffffffffff021916908373ffffffffffffffffffffffffffffffffffffffff16021790555090505060405180606001604052806004815260200173777b061fb4c1eb1b5f745ebe45e0f462f1e298f873ffffffffffffffffffffffffffffffffffffffff16815260200173eb01d15d4c7b3c75bb801e8ffde842e3a5e4d94c73ffffffffffffffffffffffffffffffffffffffff168152506001600073777b061fb4c1eb1b5f745ebe45e0f462f1e298f873ffffffffffffffffffffffffffffffffffffffff1673ffffffffffffffffffffffffffffffffffffffff1681526020019081526020016000206000820151816000015560208201518160010160006101000a81548173ffffffffffffffffffffffffffffffffffffffff021916908373ffffffffffffffffffffffffffffffffffffffff16021790555060408201518160020160006101000a81548173ffffffffffffffffffffffffffffffffffffffff021916908373ffffffffffffffffffffffffffffffffffffffff1602179055509050506002600073b92d238ea91ea398cdc2b885b8f4395dd5c4bf3473ffffffffffffffffffffffffffffffffffffffff1673ffffffffffffffffffffffffffffffffffffffff1681526020019081526020016000206040518060c001604052806000815260200160288152602001600081526020016000815260200160008152602001600081525090806001815401808255809150509060018203906000526020600020906006020160009091929091909150600082015181600001556020820151816001015560408201518160020155606082015181600301556080820151816004015560a0820151816005015550505060026000735a528ef100931de8dd12c08d09877ac038af04eb73ffffffffffffffffffffffffffffffffffffffff1673ffffffffffffffffffffffffffffffffffffffff1681526020019081526020016000206040518060c001604052806000815260200160288152602001600081526020016000815260200160008152602001600081525090806001815401808255809150509060018203906000526020600020906006020160009091929091909150600082015181600001556020820151816001015560408201518160020155606082015181600301556080820151816004015560a082015181600501555050506002600073eb01d15d4c7b3c75bb801e8ffde842e3a5e4d94c73ffffffffffffffffffffffffffffffffffffffff1673ffffffffffffffffffffffffffffffffffffffff1681526020019081526020016000206040518060c001604052806000815260200160288152602001600081526020016000815260200160008152602001600081525090806001815401808255809150509060018203906000526020600020906006020160009091929091909150600082015181600001556020820151816001015560408201518160020155606082015181600301556080820151816004015560a082015181600501555050506002600073777b061fb4c1eb1b5f745ebe45e0f462f1e298f873ffffffffffffffffffffffffffffffffffffffff1673ffffffffffffffffffffffffffffffffffffffff1681526020019081526020016000206040518060c001604052806000815260200160288152602001600081526020016000815260200160008152602001600081525090806001815401808255809150509060018203906000526020600020906006020160009091929091909150600082015181600001556020820151816001015560408201518160020155606082015181600301556080820151816004015560a08201518160050155505050600160038190555061098773b92d238ea91ea398cdc2b885b8f4395dd5c4bf34610a1160201b60201c565b6109aa73b92d238ea91ea398cdc2b885b8f4395dd5c4bf34610a1160201b60201c565b6109cd73b92d238ea91ea398cdc2b885b8f4395dd5c4bf34610a1160201b60201c565b6040518060800160405280606460ff168152602001601460ff168152602001601e60ff168152602001602860ff168152506004906004610a0e929190610b02565b50565b600260008273ffffffffffffffffffffffffffffffffffffffff1673ffffffffffffffffffffffffffffffffffffffff1681526020019081526020016000206040518060c001604052806005815260200160148152602001600a81526020016022815260200160148152602001600a81525090806001815401808255809150509060018203906000526020600020906006020160009091929091909150600082015181600001556020820151816001015560408201518160020155606082015181600301556080820151816004015560a0820151816005015550505060036000815480929190600101919050555050565b8260048101928215610b36579160200282015b82811115610b35578251829060ff16905591602001919060010190610b15565b5b509050610b439190610b47565b5090565b610b6991905b80821115610b65576000816000905550600101610b4d565b5090565b90565b6104f780610b7b6000396000f3fe608060405234801561001057600080fd5b50600436106100625760003560e01c80633b81b8ed146100675780634272ee18146100ab578063de0ac159146100ed578063debd84fb1461010b578063e2eb41ff14610170578063f0e10c0d1461022e575b600080fd5b6100a96004803603602081101561007d57600080fd5b81019080803573ffffffffffffffffffffffffffffffffffffffff1690602001909291905050506102b3565b005b6100d7600480360360208110156100c157600080fd5b81019080803590602001909291905050506103a4565b6040518082815260200191505060405180910390f35b6100f56103bc565b6040518082815260200191505060405180910390f35b6101376004803603602081101561012157600080fd5b81019080803590602001909291905050506103c2565b60405180878152602001868152602001858152602001848152602001838152602001828152602001965050505050505060405180910390f35b6101b26004803603602081101561018657600080fd5b81019080803573ffffffffffffffffffffffffffffffffffffffff16906020019092919050505061040b565b604051808481526020018373ffffffffffffffffffffffffffffffffffffffff1673ffffffffffffffffffffffffffffffffffffffff1681526020018273ffffffffffffffffffffffffffffffffffffffff1673ffffffffffffffffffffffffffffffffffffffff168152602001935050505060405180910390f35b61027a6004803603604081101561024457600080fd5b81019080803573ffffffffffffffffffffffffffffffffffffffff16906020019092919080359060200190929190505050610475565b60405180878152602001868152602001858152602001848152602001838152602001828152602001965050505050505060405180910390f35b600260008273ffffffffffffffffffffffffffffffffffffffff1673ffffffffffffffffffffffffffffffffffffffff1681526020019081526020016000206040518060c001604052806005815260200160148152602001600a81526020016022815260200160148152602001600a81525090806001815401808255809150509060018203906000526020600020906006020160009091929091909150600082015181600001556020820151816001015560408201518160020155606082015181600301556080820151816004015560a0820151816005015550505060036000815480929190600101919050555050565b600481600481106103b157fe5b016000915090505481565b60035481565b600081815481106103cf57fe5b90600052602060002090600602016000915090508060000154908060010154908060020154908060030154908060040154908060050154905086565b60016020528060005260406000206000915090508060000154908060010160009054906101000a900473ffffffffffffffffffffffffffffffffffffffff16908060020160009054906101000a900473ffffffffffffffffffffffffffffffffffffffff16905083565b6002602052816000526040600020818154811061048e57fe5b906000526020600020906006020160009150915050806000015490806001015490806002015490806003015490806004015490806005015490508656fea165627a7a72305820764c7348bf01ebcbf82eb7105913976c1d700545af813d133e9526104a00f92a0029",
  "source": "\npragma solidity ^0.5.0;\n\ncontract SupplyChain {\n\n    struct Details {\n        uint inventoryReceived;\n        uint inventoryPrevious;\n        uint demand;\n        uint shippingQuantity;\n        uint orderPlaced;\n        uint inventoryLeft;         \n        }\n\n    struct Player {\n        uint role;\n        address upstream;\n        address downstream;\n    }\n\n    Details[] public week;\n    // Store accounts that have voted\n    mapping(address => Player) public players;\n\n    mapping(address => Details[]) public play;\n\n    uint public weekNo;\n    uint[4] public inventory;\n\n    // voted event\n    event orderPlaced (\n        uint indexed _orderAmount\n    );\n\n    event orderSent (\n        uint indexed _amt\n    );\n\n    constructor () public {\n        setRoles();\n    }\n\n\n    function setRoles() private {\n        players[0xB92D238ea91Ea398CdC2b885B8F4395Dd5C4Bf34] = Player(1, 0x5a528ef100931de8dd12C08d09877ac038AF04eb, 0xB92D238ea91Ea398CdC2b885B8F4395Dd5C4Bf34);\n        players[0x5a528ef100931de8dd12C08d09877ac038AF04eb] = Player(2, 0xeb01d15D4C7B3c75bB801E8fFDE842E3a5e4D94C, 0xB92D238ea91Ea398CdC2b885B8F4395Dd5C4Bf34);\n        players[0xeb01d15D4C7B3c75bB801E8fFDE842E3a5e4D94C] = Player(3,0x777B061fB4C1eB1b5F745eBe45e0f462F1e298F8, 0x5a528ef100931de8dd12C08d09877ac038AF04eb);\n        players[0x777B061fB4C1eB1b5F745eBe45e0f462F1e298F8] = Player(4, 0x777B061fB4C1eB1b5F745eBe45e0f462F1e298F8, 0xeb01d15D4C7B3c75bB801E8fFDE842E3a5e4D94C);\n\n        play[0xB92D238ea91Ea398CdC2b885B8F4395Dd5C4Bf34].push(Details(0, 40, 0, 0, 0, 0));\n        play[0x5a528ef100931de8dd12C08d09877ac038AF04eb].push(Details(0, 40, 0, 0, 0, 0));\n        play[0xeb01d15D4C7B3c75bB801E8fFDE842E3a5e4D94C].push(Details(0, 40, 0, 0, 0, 0));\n        play[0x777B061fB4C1eB1b5F745eBe45e0f462F1e298F8].push(Details(0, 40, 0, 0, 0, 0));\n\n        weekNo = 1;\n        addWeeks(0xB92D238ea91Ea398CdC2b885B8F4395Dd5C4Bf34);\n        addWeeks(0xB92D238ea91Ea398CdC2b885B8F4395Dd5C4Bf34);\n        addWeeks(0xB92D238ea91Ea398CdC2b885B8F4395Dd5C4Bf34);\n        inventory = [100, 20, 30, 40];\n    }\n\n    function addWeeks(address actor) public {\n        play[actor].push(Details(5,20,10,34,20,10));\n        weekNo++;\n    }\n\n/*    function orderUp(uint _amt) public {\n       address upAddreess = players[msg.sender].upstream;\n       players[upAddreess].orderReceived += _amt;\n //       emit orderPlaced(_orderAmount);\n    }\n\n    function fillStock(uint _amt) public {\n        players[msg.sender].inventory += _amt;\n        inventory[players[msg.sender].role - 1] += _amt;\n        emit orderSent(_amt);\n    }\n\n    function clearStock(uint _amt) public {\n        require(_amt <= players[msg.sender].inventory && _amt<= players[msg.sender].orderReceived);\n        players[msg.sender].inventory -= _amt;\n        inventory[players[msg.sender].role-1] -= _amt;\n\n        players[msg.sender].orderReceived -= _amt;\n        emit orderSent(_amt);\n    }\n\n    function orderDown(uint _amt) public {\n\n        require(_amt <= players[msg.sender].inventory && _amt<= players[msg.sender].orderReceived);\n\n        address downAddress = players[msg.sender].downstream;\n        players[downAddress].inventory += _amt;\n        inventory[players[downAddress].role-1] += _amt;\n\n        players[msg.sender].inventory -= _amt;\n        inventory[players[msg.sender].role-1] -= _amt;\n\n        players[msg.sender].orderReceived -= _amt;\n\n        emit orderSent(_amt);\n    }\n*/\n}\n",
  "sourcePath": "/home/prajwal/blockchain_projects/SupplyChainDapp/SupplyChain/contracts/SupplyChain.sol",
  "compiler": {
    "name": "solc",
    "version": "0.5.8+commit.23d335f2.Emscripten.clang"
  },
  "schemaVersion": "3.0.17",
  "updatedAt": "2020-01-14T15:32:27.554Z",
  "networkType": "ethereum",
  "devdoc": {
    "methods": {}
  },
  "userdoc": {
    "methods": {}
  }
}